:020000040800F2
:10000000781D0020FD0100089B370008B12E000874
:10001000993700083D0C00083D3D00080000000035
:100020000000000000000000000000006501000862
:10003000270E000800000000A90100085938000838
:10004000170200081702000817020008170200082C
:10005000170200081702000817020008290E0008FE
:10006000170200081702000817020008E50D000833
:1000700017020008F10D0008170200081702000817
:10008000170200081702000817020008510D0008A7
:10009000450D0008170200081702000817020008A3
:1000A00017020008170200081702000817020008CC
:1000B00017020008170200081702000817020008BC
:1000C00017020008170200081702000817020008AC
:1000D000170200081702000817020008313D000847
:1000E00017020008170200081702000800000000AD
:1000F0000000000000000000000000000000000000
:1001000000000000000000001702000817020008AD
:100110001702000817020008453900085139000885
:10012000170200081702000817020008170200084B
:10013000170200080000000000000000170200087D
:10014000170200081702000817020008170200082B
:10015000DFF80CD000F00EFD00480047BD5300084A
:10016000781D0020224B19680868B0E8F00F80F372
:100170000988BFF36F8F4FF0000080F311884EF0B5
:100180000D0E70470000000006480068006880F30C
:10019000088862B661B6BFF34F8FBFF36F8F00DF81
:1001A00000BF00BF08ED00E0EFF30980BFF36F8FE1
:1001B0000F4B1A6820E9F00F106008B54FF050009F
:1001C00080F31188BFF34F8FBFF36F8F06F02EFAC5
:1001D0004FF0000080F31188BDE8084019680868F6
:1001E000B0E8F00F80F30988BFF36F8F704700BF4E
:1001F00094000020EFF30580704700000648804718
:1002000006480047FEE7FEE7FEE7FEE7FEE7FEE7FB
:10021000FEE7FEE7FEE7FEE7F138000851010008BF
:100220002DE9F05F0546002092469B46884606462B
:10023000814640241BE0284641464746224600F0BE
:1002400020F853465A46C01A914110D31146184619
:10025000224600F03BFB2D1A67EB01084F46224671
:100260000120002100F032FB17EB00094E41201E57
:10027000A4F10104DFDC484631462A464346BDE886
:10028000F09F202A04DB203A21FA02F00021704777
:1002900021FA02F3D040C2F12002914008431946EE
:1002A000704740EA01039B0703D009E008C9121F09
:1002B00008C0042AFAD203E011F8013B00F8013B20
:1002C000521EF9D27047D2B201E000F8012B491E4C
:1002D000FBD270470022F6E710B513460A460446E3
:1002E0001946FFF7F0FF204610BDF0B480EA010286
:1002F000D40F4200B2EB410F02D20246084611462B
:100300004A0042D0C30DDDB2C1F3C752AD1A202D51
:1003100035DAC1F3160141F4000204B15242C5F1CD
:10032000200602FA06F12A411044B3EBD05F23D035
:10033000C4B1012DA0EBC35009DCF0BC4FF000426A
:1003400002EAC352DBB200F5000000F0E9BA400057
:1003500000F1807000EBC350A0F1807040EAD170D2
:10036000490009E0490841EAC071A0EBC35000F51B
:100370000000400800EBC350F0BC00F0C8BA614276
:10038000012202EB4101001BF6E7F0BC704781F04F
:100390000041AAE780F00040A7E780EA010210B51B
:1003A00002F00043400022D04A001FD0010E01EBB2
:1003B0001261C0F35600C2F3560240F4000042F44A
:1003C0000002A0FB022000047F39140400D0401C6E
:1003D00050EA124001D44000491EC2B20C0604EBA0
:1003E000D010401C4008802A02D003E0002010BD3D
:1003F00020F00100002900DA0020184310BD30B4BD
:1004000080EA010202F0004530F0004221F0004095
:1004100013D090B1C30DD40DC2F31601C0F3160072
:10042000E41A41F4000140F400027D34914201D30A
:10043000641C00E04900002C02DA30BC0020704748
:100440004FF400000023914201D3891A034340086E
:100450004FEA4101F7D151B1914202D14FF0004131
:1004600005E002D24FF0010101E06FF0010103EB62
:10047000C450284430BC00F04ABA420005D0C0F352
:10048000C7525242914201DC0020704700EBC1503C
:1004900070472DE9FE4F804681EA0300C00F0C46ED
:1004A000009021F0004123F00045B8EB0200A94183
:1004B00005D24046214690461C460B46024623F094
:1004C0000040104347D0270DC7F30A00C3F30A5179
:1004D0000290401A019040286BDAC3F3130040F4F5
:1004E000801B0098924620B10023D2EB030A63EBF5
:1004F0000B0B01985946C0F14002504600F0E6F956
:1005000006460D4650465946019A00F0EEF910EBAA
:1005100008006141002487EA115284EAE7731A4314
:1005200040D0009A62B3019A012A4FEA075215DCC3
:10053000001B61EB02014FF0004202EA0752CDE9D5
:100540000042001C41F5801132462B4600F043FA70
:1005500003B0BDE8F08F40462146F9E7001B61EB90
:100560000201001C41F5801300185B412018A2F520
:10057000001747EB030140EAD570B6196D4111E051
:100580006D084FEA360645EAC0754FEA0752001B70
:1005900061EB0201001C41F5801149084FEA30006F
:1005A0000019514132462B4603B0BDE8F04F00F030
:1005B00003BA0098012240000023D0EB020263EB53
:1005C000E073009821464FEAE074B8EB000061EB5D
:1005D0000401E9E783F000435BE781F0004158E75D
:1005E0002DE9FE4F81EA030404F0004421F00041AC
:1005F00000944FF0000B23F0004350EA01045ED05A
:1006000052EA03045BD0C3F30A54C1F30A552C44E5
:10061000A4F2F3340194A0FB0254C1F3130141F49A
:100620008011C3F3130343F4801301FB024400FB66
:10063000034E840A970A44EA815447EA8357A4FB8D
:10064000076802958D0A05FB07854FEA932C04FB8A
:100650000C542705029D4FEA065847EA1637B5EBBA
:1006600008056EEB070C870E920E47EA811742EAE7
:100670008312A7FB0201B6EB0B0164EB00042B0D08
:1006800043EA0C335E1844EB1C50DA465146E7FB54
:100690000201C5F313044FEA0B3343EA14534FEA44
:1006A0000432019C43EA0603A4F10C040294009C6A
:1006B000CDE900B400F08FF903B0BDE8F08F002061
:1006C0000146F9E72DE9F04D81EA030404F0004BFF
:1006D00021F0004514464FF0000A23F0004150EA93
:1006E000050220D054EA01021DD0C5F30A57024684
:1006F000C5F31303C1F31300C1F30A5640F4801588
:1007000043F48013A7EB0608101BD64608F2FD3809
:1007100073EB050002D308F1010801E092185B4178
:10072000B8F1000F03DA00200146BDE8F08D00208B
:100730004FF48011064684460EE0171B73EB050745
:1007400005D3121B63EB050306434CEA010C490871
:100750004FEA300092185B4150EA0107EDD152EAAE
:10076000030012D082EA040083EA0501084305D0A1
:10077000101BAB4106D20122002306E000224FF0FD
:10078000004302E06FF0010253101AEB06004CEB3D
:10079000085110EB0A0041EB0B01BDE8F04D00F0F1
:1007A0000BB9C10F80EAE0700844CA079623002104
:1007B00000F0B6B896230022114600F0B1B80EB58D
:1007C000C10F80EAE0700844CA07002140F23343B9
:1007D0008DE80E000A460B4600F0FDF803B000BDA0
:1007E00000F0004220F00040C10DC0F3160040F4BC
:1007F00000007F2901DA00207047962903DCC1F14F
:100800009601C84001E096398840002AF4D0404261
:10081000704700F0004230F000400AD0C10D01F5F1
:100820006071C0F3160042EA0151C208400711434B
:10083000704700200146704730B5041E71F1000476
:1008400004DB4FF00044404264EB0101141E73F1DD
:10085000000405DB1C464FF00043524263EB0403E7
:10086000994208BF904230BD01F0004330B421F0FE
:10087000004150EA010206D00A0DA2F56072C1F3F0
:100880001301002A02DC30BC00207047440F44EA08
:10089000C104C100E01830BC00EBC25000F037B812
:1008A00030B50B46014600202022012409E021FA40
:1008B00002F59D4205D303FA02F5491B04FA02F53D
:1008C0002844151EA2F10102F1DC30BD202A04DB10
:1008D000203A00FA02F1002070479140C2F1200353
:1008E00020FA03F3194390407047202A06DBCB1708
:1008F000203A41FA02F043EAE07306E041FA02F3DB
:10090000D040C2F1200291400843194670470029A7
:10091000A8BF7047401C490008BF20F00100704785
:1009200010B4B0FA80FC00FA0CF050EA010404BFE5
:1009300010BC704749B1CCF1200421FA04F411FA3B
:100940000CF118BF012121430843A3EB0C01CB1D7F
:100950004FEA00614FEA102042BF002010BC7047F0
:1009600000EBC35010440029A4BF10BC7047401CCA
:10097000490008BF20F0010010BC704710B54100CD
:100980000CD0C0F3C751962908DC7E2909DC06DBB0
:10099000410204D000F0004040F07E5010BD002025
:1009A00010BDC1F19604C4F1200100FA01F1E0404C
:1009B000FFF7ADFFA04010BD10B5141E73F1000489
:1009C00008DA401C41F1000192185B411A4301D141
:1009D00020F0010010BD2DE9F04D92469B4611B16B
:1009E000B1FA81F202E0B0FA80F220329046FFF7CD
:1009F0006DFF04460F4640EA0A0041EA0B015346E8
:100A00005A46084313D0114653EA010019D0C8F1E1
:100A100040025046FFF735FC05460E465046594603
:100A20004246FFF753FF084305D0012004E020466B
:100A30003946BDE8F08D0020054346EAE0762C43B8
:100A400037430A986305E40AA0EB08000022FD0A78
:100A500044EA47540A3002D500200146E9E701057F
:100A600010196941DDE9084500196941BDE8F04DFB
:100A7000A2E770B521F0004303430CD0C1F30A553F
:100A80000024D5EB040564EB0403D617AD1AB3417B
:100A900002DB0020014670BD201841EB025170BD01
:100AA0002DE9F04D00231A461B1A8A4103DB002072
:100AB0000146BDE8F08DC1F30A52C1F3130141F4C0
:100AC00080154FF0000BD10702D100186D41521E66
:100AD0000027044640F2FF11384601EB620A3E4609
:100AE0008046024600204FF48011FFF7CAFBC2196E
:100AF0007141BB1846EB0100B4EB030C75EB000C25
:100B000004D3E41A65EB000517460E46241908F1D4
:100B100001006D4180463428E3DDF91946EB0600FB
:100B2000091BA84103D24FF0FF32134601E0002217
:100B300013461BEB070046EB0A51BDE8F04DFFF7EB
:100B40003BBFC1F30A52C1F3130140F2FF3341F43A
:100B500080119A4202DA00200146704740F2334386
:100B60009A42A2F2334202DC5242FFF78ABBFFF7FD
:100B7000ADBE0000064C074D06E0E06840F0010302
:100B800094E8070098471034AC42F6D3FFF7E4FA34
:100B9000D86A0008F86A000870B58C1810F8015B74
:100BA00015F0070301D110F8013B2A1106D110F806
:100BB000012B03E010F8016B01F8016B5B1EF9D10A
:100BC0002B0705D40023521E0DD401F8013BFAE790
:100BD00010F8013BCB1A921C03E013F8015B01F8FB
:100BE000015B521EF9D5A142D8D3002070BD000090
:100BF00070B5044600688168C943C9071CD1816883
:100C000021F00101816001F053F805460FE000BFBB
:100C100001F04EF8401B022809D9A06A40F01000EC
:100C2000A062E06A40F00100E062012070BD20682F
:100C30008068C043C007EBD0002070BDFEE72DE9FF
:100C4000F84F88600C4607461546C9689068FFF75C
:100C5000A4FB0090D4F8108068684146FFF79DFB24
:100C6000834621686869FFF798FB666882463146CB
:100C70002869FFF792FB81463946E868FFF78DFB4C
:100C80004946FFF732FB5146FFF72FFB5946FFF766
:100C90007EFB0099FFF77BFB6061C4E90380C4E938
:100CA0000067BDE8F88F000010B51E4C1B4A1C49B8
:100CB000204602F073FD194A1B491832204602F003
:100CC0006DFD164A19493032204602F067FD134A7D
:100CD00017494832204602F061FD104A154960323A
:100CE000204602F05BFD0D4A13497832204602F09F
:100CF00055FD0A4A11499032204602F04FFD074A3D
:100D00000F49A832204602F049FD044A2046C0326D
:100D1000E102BDE8104002F041BD0000E0160020F5
:100D20000000A042000048430000704200004C4216
:100D30000000F0410000A04100007041000020418F
:100D40000000A040014800F0D2BA0000EC030020EF
:100D5000014800F0CCBA0000EC03002010B50A886E
:100D6000C2F30A02A2F5806202804A788B78D20828
:100D700042EA4312C2F30A02A2F5806242808A78F4
:100D8000CB78920942EA83020B7942EA8322C2F3CA
:100D90000A02A2F5806282800A794B79520842EAFF
:100DA000C312C2F30A02A2F58062C2804A79920994
:100DB00002724A79C2F301124272CA8842810A89D8
:100DC00082814A89C2810A7B02744A7B4274C98942
:100DD000418200F06DFF02490860486010BD0000CC
:100DE00058000020014800F0D5BC0000A8030020F6
:100DF000014800F0CFBC00006C05002030B590F831
:100E000040500124AC40C56B6C600468636043686B
:100E1000102B036803D099600068C26030BD9A60EF
:100E20000068C16030BD7047022000F03FBE7047CF
:100E3000F8B50024009490F824202546012A12D009
:100E4000012280F824204A681F23072A0DD2066851
:100E5000776B521E02EB820293409F430B689340D4
:100E60001F43776319E00220F8BD06680D2A0AD2F5
:100E7000376BD21F02EB820293409F430B68934073
:100E80001F43376309E0F76A0D3A02EB8202934091
:100E90009F430B6893401F43F7620A680723066865
:100EA0000A2A0AD3F7680A3A02EB420293409F43A8
:100EB0008B6893401F43F76008E0376902EB4202FA
:100EC00093409F438B6893401F4337610A68102A01
:100ED00001D0112A20D1124B02689A4217D193688F
:100EE0001B0219D4936843F4000393600968102926
:100EF00012D10C490C4A0968B1FBF2F101EB8101F6
:100F0000490000E0491E00910029FBD104E0816AFC
:100F100041F020018162012480F824502046F8BD70
:100F2000002401409000002040420F002DE9F041D4
:100F30004FF0000704003D467ED0A06A002628B985
:100F4000E66284F82460204600F07EF82046FFF731
:100F50004FFEA16A01F01001014304D0A06A40F0E5
:100F60001000A06268E0A16A21F4885141F00201FA
:100F7000A1626268E169237B0A4347EA43010A43AD
:100F8000A1684FF48077B94208D0012906D000212A
:100F900094F814C0BCF1010F02D00AE03946F7E71B
:100FA000F3B1A36A43F02003A362E36A43F00103B1
:100FB000E3622368D3F804C02CF4694C4CEA010CBA
:100FC000C3F804C023689968DFF870C001EA0C0117
:100FD00011439960A168B9420BD0012909D00CE0F6
:100FE000DFF85CC0A3690CEB43330B4343F40061AF
:100FF000DFE7218A0D05A5F580152168CB6A23F46A
:1010000070032B43CB62216889680E4B19409142D3
:1010100008D1E662A16A21F0020141F00101A1625A
:10102000BDE8F081A06A20F0020040F01000A0624C
:10103000E06A40F00100E0620120F1E7FDF7E1FF26
:1010400000E0FFFFFE0E1FFF70B586B000250646CC
:1010500000950195029503950068194988422DD1A4
:101060001849886940F400708861886900F400704C
:101070000490886940F0040088618869694600F03E
:101080000400049002200090032001900E4800F01C
:1010900019FD0F4C0D48C4E900058020C4E9025039
:1010A000400020618000C4E905052046E56100F0AC
:1010B00095FC08B1FFF7BBFE3462666206B070BDF6
:1010C00000240140001002400008014008000240D6
:1010D000A803002090F82020012A07D0022A05D07A
:1010E000416A41F4802141620120704700684269F1
:1010F0000A4342610020704710B590F82020012A71
:1011000007D0022A05D0416A41F4802141620120C2
:1011100010BD3B48D0F8002242F00102C0F8002286
:10112000D0F8002222F47C52C0F80022D0F800222D
:101130004B6A42EA0322C0F800220A7D02F01F0334
:1011400001229A40D0F81C329343C0F81C32CB697C
:10115000B3B9D0F80C329343C0F80C328C894B6889
:1011600064F31F434C6900EBC404C4F840320C899B
:101170000B6864F31F434C6900EBC404C4F84432A9
:10118000CB69012B16D1D0F80C321343C0F80C32C6
:101190000C884B6864F31F434C6900EBC404C4F82B
:1011A00040320C89CB6864F31F434C6900EBC404E4
:1011B000C4F844328B69002BD0F804320ED01343AC
:1011C000C0F804320B69002BD0F8143208D0134356
:1011D000C0F81432096A012904D008E09343EFE70C
:1011E0009343F5E7D0F81C121143C0F81C12D0F855
:1011F000001221F00101C0F80012002010BD000013
:1012000000640040704730B590F82040012C05D0B4
:10121000022C03D0416A41F480215DE0046800297A
:1012200055D02469A40754D04FF4D874056804EB52
:1012300001142D5915F00405956005682D594ED0FF
:10124000ED08556005682C5904F00204D4604FF491
:10125000DA74056804EB01142D5905F00F051561CA
:1012600005682D59C5F30725956105682C59240C8F
:1012700054614FF4DC72046802EB0112A4581C7034
:101280000468A458240A5C700468A458240C9C7058
:101290000468A258120EDA704FF4DE72046802EB92
:1012A0000112A4581C710468A458240A5C710468D3
:1012B000A458240C9C710468A258120EDA710068BC
:1012C00081B1016941F020010161002030BDE46875
:1012D000A8E7416A41F400114162012030BD6D0D63
:1012E0001560AFE7C16841F02001C160EDE72DE96D
:1012F000F05F0546006800244669D0F804908768CE
:10130000D0F80CB0D0F810A0D0F81880F10748D071
:10131000F90714D001218160B80703D5284600F0F1
:1013200032FA0CE0780702D54FF4006407E0380782
:1013300002D54FF4805402E0284600F023FAF80565
:1013400016D529684FF480708860B80503D5284603
:1013500000F01BFA0CE0780502D544F4005407E0D5
:10136000380502D544F4804402E0284600F00CFA27
:10137000F80316D529684FF480308860B80303D588
:10138000284600F004FA0CE0780302D544F4004447
:1013900007E0380302D544F4803402E0284600F028
:1013A000F5F9300707D55FEACB6004D5296810202E
:1013B00044F40074C86070074FF0080707D55FEA6F
:1013C0000B7004D52868C760284600F06DF9B00797
:1013D00006D52868C068800702D0284600F066F964
:1013E000700607D55FEACA6004D52968102044F466
:1013F00080640861B00607D55FEA0A7004D52868E2
:101400000761284600F08EF9F00606D528680069C5
:10141000800702D0284600F086F9B00308D55FEABD
:10142000C96005D5296810204860284600F07CF97D
:10143000F00307D55FEA097004D52868476028469D
:1014400000F0A6F9300446D55FEA497040D5F005B2
:1014500004D55FEAC87001D044F00104B00504D59A
:101460005FEA887001D544F00204700504D55FEA94
:10147000487001D544F00404300529D518F0700FE8
:1014800026D008F07000402815D006DC102809D0BE
:1014900020280AD0302816D10AE050280ED0602823
:1014A00011D10EE044F008040DE044F010040AE00D
:1014B00044F0200407E044F0400404E044F08004D9
:1014C00001E044F480742868816921F07001816131
:1014D000296804204860002C05D0686A20436862AF
:1014E0002846FFF78FFEBDE8F09F70B5040003D0DB
:1014F00094F8200010B104E0012070BD204600F0F7
:1015000081F82068016821F00201016000F0D0FB41
:101510000546052604E000F0CBFB401B0A2811D845
:10152000206840688007F6D42068016841F0010116
:10153000016000F0BDFB05460BE000F0B9FB401B6D
:101540000A2806D9606A40F40030606284F820609E
:10155000D2E720684068C007EFD0207E01282068CD
:1015600001683DD021F080010160607E0128206883
:10157000016838D021F040010160A07E0128206878
:10158000016833D021F020010160E07E012820684D
:1015900001682ED041F010010160207F01282068F1
:1015A000016829D021F008010160607F01282068CE
:1015B000016824D021F004010160D4E9020108434C
:1015C000D4E90412114308436168491E08432168A5
:1015D000C86100206062012084F82000002070BDF6
:1015E00041F08001C0E741F04001C5E741F0200132
:1015F000CAE721F01001CFE741F00801D4E741F03C
:101600000401D9E710B586B0002100910191029143
:1016100003910068204988423BD12048C16941F0CC
:101620000071C161C16901F000710491816941F0EB
:101630000801816180691A4C00F0080004904FF4A1
:10164000807000906946204600F03CFA60150090DA
:1016500002200190032003906946204600F032FAF0
:101660001048416821F4C04141F0E06141F48041FB
:10167000416000220621132000F0A6FB132000F099
:1016800095FB00220621142000F09EFB142000F0A0
:101690008DFB06B010BD0000006400400010024049
:1016A000000C0140000001407047000000B51A4ADC
:1016B000016889B0914204D107AB6A460021FFF767
:1016C000A2FD00991548A1F20521072917D2028829
:1016D000C9B2521C028001EB4103BDF81C20811CE1
:1016E00001EB830152BA8A80BDF81E2052BACA802B
:1016F000BDF8202052BA0A819DF822208A72018802
:10170000B1F5FA7F06D1002101800A460121044883
:1017100000F0C8FA09B000BD0064004000000020DD
:10172000000C0140704770477047000070B50446D8
:1017300090F82000012804D0606A40F40020606224
:1017400018E0022084F820002068016821F00101DF
:10175000016000F0ADFA05460EE000BF00F0A8FA07
:10176000401B0A2808D9606A40F4003060620520F6
:1017700084F82000012070BD20684068C007EDD1CA
:10178000606270BD70477047704770477047704720
:10179000704700002DE9F05FC16B0A6801680B68B3
:1017A000046C4FF0040808FA04F8844D844E854F09
:1017B000DFF814C2DFF81492DFF814A2DFF814B2D5
:1017C000DFF814E218EA020F65D05FEA437862D5C9
:1017D0000A68920603D40A6822F004020A60DFF85D
:1017E000F0814FF48062016808F1140813011402BB
:1017F000414524D9A9420DD0B1420FD0B9421AD0E7
:10180000614515D0494515D0514501D1120312E06B
:10181000594501D104220EE0714501D140220AE070
:101820006D4D1435A94206D06B4A2832914201D140
:101830001A4600E022466749091F0A6029E0A942CA
:1018400013D0B14215D0B94220D061451BD04945D3
:101850001BD0514502D14FF4800217E0414502D11F
:101860004FF0806212E0594501D104220EE071452B
:1018700001D140220AE0584D1435A94206D0564AFB
:101880002832914201D11A4600E022464B490839DC
:101890004A60C16A71E04FF0020808FA04F818EAD9
:1018A000020F70D05FEA83786DD50A68920606D47D
:1018B0000A6822F00A020A60012180F82110DFF88C
:1018C00010814FF40072016808F11408130114022A
:1018D000414524D9A9420DD0B1420FD0B9421AD006
:1018E000614515D0494515D0514501D1120312E08B
:1018F000594501D102220EE0714501D120220AE0B2
:10190000354D1435A94206D0334A2832914201D1CF
:101910001A4600E022462F49091F0A6029E0A94221
:1019200013D0B14215D0B94220D061451BD04945F2
:101930001BD0514502D14FF4001217E0414502D1AE
:101940004FF0007212E0594501D102220EE07145BC
:1019500001D120220AE0204D1435A94206D01E4AAA
:101960002832914201D11A4600E022461349083933
:101970004A60002180F82010816A00291CD0BDE84F
:10198000F05F0847FFE70825A540154214D01A0765
:1019900012D50A6822F00E020A6090F84020C36B4C
:1019A000012101FA02F25A60816380F821100021BE
:1019B00080F82010016BE0E7BDE8F09F08000240CE
:1019C0001C00024030000240440002405800024027
:1019D0006C000240080402401C04024030B560B1B3
:1019E0001A4B026814219A4209D2194B1344B3FBD3
:1019F000F1F18900016417490AE0012030BD134B61
:101A00005B421344B3FBF1F1890001640F490839CB
:101A1000C163022180F82110136843F6F0718B43F3
:101A2000F0E901142143D0E902452C432143046924
:101A300021434469214384692143194311600021F2
:101A40004163012242770177084630BD0804024015
:101A5000F8FFFDBF0000024070B5044690F820007A
:101A6000002501280CD0012084F8200094F8216082
:101A70000020012E06D084F820000225284670BDE3
:101A8000022070BD022684F82160A06320680668E9
:101A900026F0010606602046FFF7B0F920680168CD
:101AA00041F001010160E9E770470000044910B509
:101AB0000A68024202D00860FFF7F6FF10BD00007E
:101AC000140401402DE9F84FDFF8B891002409F122
:101AD000040A0AF1040B23460F270BF1040EC9E098
:101AE0000125A5402A40AA427DD1674ED1F804C005
:101AF000ACEB0608B44532D014DCBCF1030F3AD08D
:101B000009DCBCF1000F2AD0BCF1010F1CD0BCF1E4
:101B1000020F31D11DE0BCF1110F17D0BCF1120F33
:101B20002AD119E0B8F5881F19D006DCB8F5803F36
:101B300015D0B8F5801F1FD111E0B8F5001F0ED0E9
:101B4000B8F5041F18D10AE0CB6815E0CB681B1D5F
:101B500012E0CB6808330FE0CB680C330CE08B68E5
:101B60002BB1012B4FF0080303D0456104E004239F
:101B700002E0056100E00023FF2A01D8064601E0EB
:101B800000F104064FEA840501D9A5F12005D6F835
:101B9000008007FA05FC28EA0C0803FA05F548EA74
:101BA0000508C6F800804D68ED0062D5374DAE6976
:101BB00046F00106AE61AD6924F0030605F00105AB
:101BC0000095334D06EB050CDCF80850A607360FE0
:101BD00007FA06F825EA0805DFF8B880404503D182
:101BE0004FF0000817E044E0DFF8AC80404502D138
:101BF0004FF001080FE0DFF8A480404502D14FF01C
:101C0000020808E0DFF89880404502D14FF0030851
:101C100001E04FF0040808FA06F848EA0508CCF895
:101C200008804D68D9F80060ED034D4601D5164394
:101C300000E096432E604D68DAF80060AD0355462B
:101C400001D5164300E096432E604D68DBF8006036
:101C5000ED025D4601D5164300E096432E604D68C7
:101C6000DEF80060AD02754601D5164300E09643EC
:101C70002E60641C0D682A46E5407FF431AFBDE854
:101C8000F88F000000040140000011100010024015
:101C90000000014000080140000C0140001001401C
:101CA000001401400AB1016170470904FBE700001C
:101CB0000148806870470000840000200248816865
:101CC000027811448160704784000020074810B5F5
:101CD000016841F010010160032000F095F8002038
:101CE00000F006F800F03EF8002010BD0020024091
:101CF00000B5014687B00022372000F065F8372094
:101D000000F054F81348C16941F02001C161C06975
:101D100005A900F020000690684600F0E1F900F007
:101D2000FFF90D494000B0FBF1F10D480B4A491E87
:101D30000260416040F2E7320021C0E90321816086
:101D400000F025FD10B1012007B000BD044800F0EF
:101D500069FDF9E70010024040420F000014004006
:101D6000B00500200F4808B5816941F0010181618B
:101D7000816901F001010091C16941F08051C161A7
:101D8000C069002200F0805000900F21901E00F0EA
:101D90001BF80548416821F0E06141F000714160A5
:101DA00008BD00000010024000000140002809DBCF
:101DB00000F01F02012191404009800000F1E02065
:101DC000C0F8001170470000F0B40E4B1B680C46C1
:101DD000C3F30223C3F10705042D00D90425191DFF
:101DE000072901D2002300E0DB1E012606FA05F1D7
:101DF000491E214099409E40761E16403143F0BC5A
:101E000002F04BB80CED00E0064900F0070208684C
:101E10004FF6FF03184040EA0220034A10430860CF
:101E2000704700000CED00E00000FA052DE9F843D2
:101E3000044600785B4DC0074FF0010951D0E869B6
:101E40000026C00008D4E86940F08050E861E869E5
:101E5000012600F08050009053480168C90512D453
:101E60000168804641F480710160FFF721FF074659
:101E700005E000BFFFF71CFFC01B642877D8D8F827
:101E80000000C005F6D5286A10F440701ED0A18865
:101E900001F44071814219D0286A444920F440700D
:101EA000C1F8009000220A602862C0070ED0FFF738
:101EB000FFFE074641F2883805E000BFFFF7F8FE55
:101EC000C11B414553D8286A8007F7D5286A616845
:101ED00020F44070084328621EB1E86920F0805069
:101EE000E8612078800705D56868A16820F4404043
:101EF000084368602078400705D5E86AE16820F467
:101F000000300843E8622078000705D5E86A2169B7
:101F100020F480200843E862E86A800302D4E86A7B
:101F2000400333D52868C00028D42868400105D56F
:101F3000E86AA16900F0F000884225D1E86AA16949
:101F400020F0F0000843E862E86A616920F470401C
:101F50000843E8621649C1F87090FFF7A9FE0646EB
:101F600008E004E0FFF7A4FE801B642802D90320E8
:101F7000BDE8F88328688000F4D507E0E86A616965
:101F800000F47040884201D00120F1E72078C006BB
:101F900005D56868E16920F4800008436860002086
:101FA000E6E700000010024000700040400442429A
:101FB000000042422DE9F0470F46050061D0434E34
:101FC000306800F00700B84209D2306820F00700FE
:101FD00038433060306800F00700B84251D12868BB
:101FE0003B4C810712D5400703D5606840F4E060A0
:101FF00060602878000703D5606840F46050606036
:102000006068A96820F0F000084360602878C00785
:1020100028D06868012810D02168022810D08907CC
:1020200000292EDA616821F0030101436160FFF7A6
:102030003FFE804641F288390DE021688903EFE7D1
:102040008901EDE7FFF734FEA0EB0801494502D90D
:102050000320BDE8F0876068696800F00C00B0EB11
:10206000810FEFD1306800F00700B8420BD930681B
:1020700020F0070038433060306800F00700B842B5
:1020800001D00120E5E72878400705D56068E968B8
:1020900020F4E060084360602878000706D5606897
:1020A000296920F4605040EAC100606000F058F8EF
:1020B0006168084AC1F30311515CC84006490860D1
:1020C00006480068FFF714FE0020C2E70020024027
:1020D000001002407C690008900000208800002069
:1020E0000F2202600C4A536803F0030343605368F5
:1020F00003F0F0038360536803F4E063C360526845
:102100004FF4E06303EAD20202610448006800F081
:1021100007000860704700000010024000200240E5
:102120000448054900684968044AC1F30221515C2A
:10213000C840704790000020001002408C690008E1
:102140000448054900684968044AC1F3C221515C4A
:10215000C840704790000020001002408C690008C1
:10216000F0B524A289B00FCA04AC84E80F0025A101
:102170000FC98DE80F002748416801F00C02042ABE
:1021800004D0082A04D0244809B0F0BD2348FBE756
:1021900004AAC1F38343C903D45C28D5C16AC26AC7
:1021A00001F00F011DF80110D20316D5C26AC06AF2
:1021B000C2F30312521CA2FB0123C0F30320801CB4
:1021C000A0FB0415154F0026A1FB070C05FB07C556
:1021D00001FB0651FEF724F803E010486043B0FB12
:1021E000F1F09DF81D10A142CED14008CCE70C487B
:1021F0006043C9E700000405060708090000000065
:10220000000D00000102030405060708090A0B0C73
:102210000D0E0F100010024000127A00001BB700D4
:1022200000093D002DE9F84F040070D02078F14DF1
:10223000C00749D06868C0F38100012807D06868EA
:10224000C0F38100022809D16868C00306D5286858
:10225000800339D5A0680028E7D035E0A068B0F544
:10226000803F0BD010B1B0F5A02F11D0286820F41A
:1022700080302860286820F4802002E0286840F43C
:1022800080302860A06890B1FFF712FD06460AE092
:10229000286840F480202860F0E700BFFFF708FDC1
:1022A000801B642876D828688003F7D50CE0FFF7F8
:1022B000FFFC064605E000BFFFF7FAFC801B642820
:1022C000F0D828688003F7D42078CB4E80074FF0F1
:1022D00001094FF000073AD5686810F00C0F07D0DD
:1022E0006868C0F38100022809D16868C00306D479
:1022F0002868800715D56069012808D111E0606958
:10230000B8B1C6F80090FFF7D3FC804606E042E182
:10231000FFF7CEFCA0EB08000228C3D8286880078E
:10232000F6D52868A16920F0F80040EAC1002860CD
:102330000DE03760FFF7BCFC804605E0FFF7B8FC16
:10234000A0EB08000228ADD828688007F6D42078D2
:1023500000072ED5A948E169E9B1C0F80090FFF760
:10236000A7FC804606E000BFFFF7A2FCA0EB080038
:10237000022897D8686A8007F6D5A1484FF4FA5129
:102380000068B0FBF1F0009000BF0098411E009182
:10239000FAD20EE0B0E00760FFF78AFC804605E065
:1023A000FFF786FCA0EB0800022889D8686A80073E
:1023B000F6D42078400763D5E8694FF00008C000E4
:1023C00009D4E86940F08050E861E8694FF00108FD
:1023D00000F0805000908B480168C90512D4016854
:1023E000834641F480710160FFF762FC824605E09C
:1023F000FFF75EFCA0EB0A0064287DD8DBF8000044
:10240000C005F5D5206901280AD008B1052813D0E8
:10241000286A20F001002862286A20F0040002E007
:10242000286A40F001002862206941F2883B98B197
:10243000FFF73EFC82460BE0286A40F00400286269
:10244000EEE700BFFFF734FCA0EB0A01594553D873
:10245000286A8007F6D50CE0FFF72AFC824605E0E3
:10246000FFF726FCA0EB0A01594545D8286A8007EA
:10247000F6D4B8F1000F03D0E86920F08050E8618D
:10248000E06AD0B36968C90307D56968C1F38101FF
:10249000022902D1E96AC9037DD4022808D0E86A7A
:1024A00020F48030E862B766FFF702FC80463BE02C
:1024B0002868C00005D5E86A616B00F0F00088422A
:1024C00069D1B766FFF7F4FB804605E0FFF7F0FB44
:1024D000A0EB0800642874D828680001F6D4E86AE4
:1024E000616B20F0F0000843E862E86A216B20F499
:1024F00070600843E86201E063E018E0C6F86890A5
:10250000FFF7D6FB804605E0FFF7D2FBA0EB080003
:10251000642856D828680001F6D508E0FFF7C8FB04
:10252000A0EB080064284CD828680001F6D4206A83
:1025300090B36968C1F38101022949D00228376646
:1025400003D0FFF7B5FB04463EE0FFF7B1FB0746BB
:1025500005E000BFFFF7ACFBC01B022831D828689C
:102560008001F7D4606AB0F5803F09D1E86A6168FC
:102570000843E862E86AE16820F00F000843E86277
:10258000D4E909010843696821F4741108436860BB
:10259000C6F8609001E028E029E0FFF789FB0446D7
:1025A00005E000BFFFF784FB001B022809D828685C
:1025B0008001F7D51BE000BFFFF77AFB001B022864
:1025C00002D90320BDE8F88F28688001F4D40EE01A
:1025D0000128F7D06868626A00F48031914204D122
:1025E000A16A00F47010884201D00120EAE70020BF
:1025F000E8E700000010024000004242800442422E
:10260000900000200070004070B5040005D0002547
:10261000A56294F8510010B106E0012070BD84F865
:102620005050204600F02EF8022084F85100206817
:10263000016821F040010160D4E901010843D4E9B7
:1026400003121143084361690843218B01F40071AF
:102650000843E1690843216A0843A16A08432168E5
:102660000860A069042101EA1040216848602068E0
:10267000C16921F40061C1616565012084F85100E0
:10268000002070BD00B585B000210091019102913C
:10269000039100681349884221D11348816941F4AC
:1026A00080518161816901F480510491816941F017
:1026B000080181618069694600F0080004902820C3
:1026C000009002200190032003900848FFF7FAF9D8
:1026D0000748416841F0E06141F00101416005B007
:1026E00000BD00000030014000100240000C01401D
:1026F000000001407047704710B590F83C20012A57
:1027000022D0012280F83C20CA688C6822F44072F2
:1027100022434C6822F4806222430C6822F4006257
:1027200022430C6922F4805222434C6922F4005265
:102730002243C969002322F480420A4301684A64A3
:1027400080F83C30002010BD022010BD70B590F81C
:102750003C20012A19D0012400F83C4F022242708B
:1027600050F83C3C5A689D6822F070060A68496837
:10277000324325F0800529435A6050F83C2C916083
:10278000447000210170084670BD022070BD10B574
:10279000040003D094F83D0010B107E0012010BD03
:1027A000002084F83C00204600F00CF8022084F859
:1027B0003D00211D206801F0D9F8012084F83D007A
:1027C000002010BD08B500680B49884212D10B48A3
:1027D000C16941F01001C161C069002200F0100020
:1027E000009006213620FFF7EFFABDE808403620BA
:1027F000FFF7DCBA08BD00000010004000100240E6
:10280000022180F83D1001688A6802F00702062A5A
:1028100003D00A6842F001020A60012180F83D10ED
:10282000002070470168CA6842F00102CA6000686F
:10283000816801F00701062903D0016841F0010118
:10284000016000207047022180F83D1001680A6A8B
:1028500041F211131A4207D10A6A9B101A4203D19E
:102860000A6822F001020A60012180F83D10002070
:102870007047704770B50446006801694FF0000565
:10288000C943890715D4C168C943890711D4E91E12
:10289000016101202077206880698007204602D0EE
:1028A000FFF7E7FF04E000F0BFF8204600F054F91E
:1028B000257720680169C943490717D4C168C9430E
:1028C000490713D46FF004010161022020772068CA
:1028D000806910F4407F204602D0FFF7CAFF04E071
:1028E00000F0A2F8204600F037F92577206801694A
:1028F000C943090716D4C168C943090712D46FF048
:1029000008010161042020772068C0698007204603
:1029100002D0FFF7AEFF04E000F086F8204600F09A
:102920001BF9257720680169C943C90617D4C16816
:10293000C943C90613D46FF0100101610820207744
:102940002068C06910F4407F204602D0FFF791FF55
:1029500004E000F069F8204600F0FEF825772068D2
:102960000169C943C90708D1C168C943C90704D16E
:10297000891E0161204600F00DF920680169C943F4
:10298000090609D4C168C943090605D46FF080015E
:1029900001612046FFF7AEFE20680169C943490680
:1029A00009D4C168C943490605D46FF040010161EB
:1029B000204600F0F9F820680169C94389060BD464
:1029C000C168C943890607D46FF020010161204620
:1029D000BDE87040FFF78FBE70BD000000B585B048
:1029E0000021009101910291039100680B498842F6
:1029F00012D10B48816941F0040181618069694607
:102A000000F0040004904FF4406000900220019018
:102A100003900448FFF756F805B000BD002C0140B4
:102A20000010024000080140704770B5044690F85D
:102A30003C000D4601280DD0012684F83C600220A0
:102A400084F83D0042B1042A18D0082A2AD00C2A62
:102A50004DD139E0022070BD206800F0D3FF20681E
:102A6000816941F0080181612068816921F00401D8
:102A70008161206881692A69114311E0206800F0B2
:102A8000E9FF2068816941F4006181612068816902
:102A900021F480618161206881692A6941EA02210B
:102AA000816124E0206801F001F82068C16941F0EB
:102AB0000801C1612068C16921F00401C161206879
:102AC000C1692A69114311E0206801F01BF82068F0
:102AD000C16941F40061C1612068C16921F480616C
:102AE000C1612068C1692A6941EA0221C16184F893
:102AF0003D60002084F83C0070BD10B5040003D098
:102B000094F83D0010B107E0012010BD002084F8CA
:102B10003C00204600F00CF8022084F83D00211D06
:102B2000206800F023FF012084F83D00002010BD44
:102B300008B500680649884208D10648816941F411
:102B400000618161806900F40060009008BD0000B0
:102B5000002C0140001002407047000010B50446F0
:102B60000068012200F040FF09492068884203D133
:102B7000416C41F4004141642068816801F0070123
:102B8000062903D0016841F001010160002010BD59
:102B9000002C014000680349884201D1FFF78EB83C
:102BA000704700000014004070470000F0B4016856
:102BB0000A68D20655D50A684968416B2B4B2B4AE7
:102BC00009687833914220D0284A1432914222D0A9
:102BD000264C52152834A1422AD0244D14013C35EC
:102BE000A94222D0214E15025036B1421FD01F4EAD
:102BF0006436B14201D112031AE0994202D14FF07A
:102C0000007215E01A4EB14201D1022210E0184EB6
:102C10001436B14201D120220AE0154E2836B142C5
:102C200006D0134A3C32914201D1224600E02A46A6
:102C30000C6824F001040C60416B0968994203D9C7
:102C40000B49091F0A6002E0084908394A60426BD3
:102C5000818D12685160416B09680A6842F0010277
:102C60000A60816AF0BC0348FEF778B808000240A9
:102C7000080402401802002070B5040004D094F843
:102C80003900002510B106E0012070BD84F83850ED
:102C9000204600F023F8242084F839002068C16819
:102CA00021F40051C160204600F0B4FF20680169A2
:102CB00021F4904101612068416921F02A014161BC
:102CC0002068C16841F40051C160E563202084F8A8
:102CD000390084F83A00002070BD000070B586B05D
:102CE000002400940194029403940646354D036831
:102CF000354902200322AB4222D1CB6943F4003391
:102D0000CB61CB6903F4003304938B6943F0040374
:102D10008B6189692D4D01F0040104910421CDE9F5
:102D20000010039269462846FEF7CCFE0820CDE944
:102D30000004694628460294FEF7C4FE06B070BD42
:102D4000234DAB42FAD1CB6943F48023CB61CB69ED
:102D500003F4802304938B6943F010038B6189692A
:102D6000039201F0100104912915CDE90010194DCD
:102D700069462846FEF7A6FEE814CDE90004694638
:102D800028460294FEF79EFE1348416821F0300168
:102D900041F0E06141F010014160114D0F48C5E97B
:102DA00000048020C5E9024020202C61C5E90540CF
:102DB0002846EC61FEF712FE08B1FEF738F875639D
:102DC0006E62BBE700440040001002400008014072
:102DD0000048004000100140000001403000024067
:102DE0006C05002030B40368DC6844F01004DC603B
:102DF00030BC00F0D3BE2DE9F843044690F839000A
:102E00001F4616460D46202850D1A5B19EB194F814
:102E1000380001284AD0012084F838004FF000081B
:102E2000C4F83C80212084F83900FEF741FFA684D5
:102E30008146E68426E00120BDE8F883E08C401E50
:102E4000E084A0684B46B0F5805F4FF000024FF081
:102E500080012046009703D000F038FFE8B90DE06C
:102E600000F034FFC8B928882168C0F30800486022
:102E7000206908B16D1C05E0AD1C03E0216815F860
:102E8000010B4860E08C0028D8D14B46002240213D
:102E90002046009700F01AFF08B10320CCE720205D
:102EA00084F8390084F838800020C5E70220C3E7A1
:102EB000FEE7000070B50D4C0025C4F888510C48A1
:102EC000016821F470410160016841F440510160E2
:102ED000C4F88C51022004F5C47402F069F9012091
:102EE0002060022002F064F9256070BD00002242DB
:102EF000001001400D4810B5816986B041F0100105
:102F000081618069012400F0100004900C20CDE95B
:102F100000040320039069460548FEF7D3FD0548E9
:102F2000C0F88841C0F88C4106B010BD00100240C6
:102F3000001001400000224270B50D4C0025C4F87D
:102F400088510C48016821F470410160016841F426
:102F5000405101600126C4F88C61022004F5C4745C
:102F600002F026F92660022002F022F9256070BDE9
:102F700000002242001001402DE9F0478146174829
:102F80000024016821F470410160016841F40041AE
:102F90000160134E254627464FF00108C6F8887198
:102FA000022002F005F9C6F888816006040ED6F802
:102FB0000C0108B1641CE4B2012002F0F9F86D1CA8
:102FC000EDB2082DEAD3B9F1000F04D0FFF772FF7C
:102FD0002046BDE8F087FFF7AFFFF9E7001001409A
:102FE000000022422DE9F04106461448016821F410
:102FF00070410160016841F440510160104C0027AC
:10300000C4F888713D464FF00108F009C4F88C01FE
:103010007006060E022002F0CBF8C4F88881022068
:1030200002F0C6F8C4F88871022002F0C1F86D1CE5
:10303000EDB2082DE9D3BDE8F08100000010014099
:103040000000224270B50D48016821F47041016012
:10305000016841F440510160094C0120C4F88C0121
:10306000C4F88801042004F5C47402F0A1F8002516
:103070006560042002F09CF8256070BD00100140DE
:103080000000224270B50D48016821F470410160D2
:10309000016841F440510160094C0020C4F88801E6
:1030A000C4F88C01042004F5C47402F081F80125F1
:1030B0002560042002F07CF8656070BD00100140BE
:1030C0000000224270B513480024016821F47041C9
:1030D0000160016841F4004101600F4D0126C5F80F
:1030E0008C61304602F064F8C5F88861012002F076
:1030F0005FF807E0641CE4B2FA2C03D9FFF7C2FFC3
:10310000012070BDD5F80C010028F3D1C5F8880165
:1031100070BD0000001001400000224210B502F016
:10312000EBFC02F079F9BDE8104002F043BC10B5A9
:1031300000F009F8044602F079F84FF4967002F0B6
:1031400097FD204610BD10B5FFF7D4FE80226B21FD
:10315000682000F032F900226B21682000F02DF980
:10316000022000F0F3F8022000F0EAF8322000F02C
:103170000CF900223821682000F01FF900226A2192
:10318000682000F01AF900222321682000F015F9C8
:1031900082223721682000F010F97521682000F0A4
:1031A00077F8712812D101226B21682000F005F90F
:1031B00000226C21682000F000F9322000F0E5F8D0
:1031C00000210C2000F064F8482801D0012010BD37
:1031D00011220A210C2000F0F0F8022000F0B6F8CD
:1031E000022000F0ADF8002010BD00001CB56B46B9
:1031F00006223B21682000F06DF800280DD1BDF8B3
:1032000000104ABA05490968CA80BDF8022052BABE
:103210000A81BDF8042052BA4A811CBD5C0100201D
:103220001CB56B4606224321682000F053F80028A5
:103230000DD1BDF800104ABA054909680A80BDF8E9
:10324000022052BA4A80BDF8042052BA8A801CBDBE
:103250005C0100201CB56B46062203210C2000F007
:1032600039F804000AD10948BDF8001000688181CE
:10327000BDF80210C181BDF80410018211220A219B
:103280000C2000F09AF820461CBD00005C010020D4
:1032900070B50D460446FFF7D5FE6006000EFFF739
:1032A000A1FEFFF70FFF2846FFF79CFEFFF70AFF7E
:1032B000FFF7C8FE012000EB4400C0B2FFF792FE0A
:1032C000FFF700FF0020FFF757FE0446FFF7DAFE86
:1032D000204670BD2DE9F0411D4614460F460646B6
:1032E000FFF7B0FE7006000EFFF77CFEFFF7EAFE68
:1032F00020B1FFF7C7FE0120BDE8F0813846FFF797
:1033000071FEFFF7DFFEFFF79DFE012000EB460098
:10331000C0B2FFF767FEFFF7D5FE09E0012C0DD024
:103320005FF00100FFF728FE641E05F8010BE4B210
:10333000002CF3D1FFF7A6FE0020DDE70020F1E727
:10334000C006020E1C21682000F037B8C006020E2D
:103350001B21682000F031B8BC2801D3012210E005
:10336000622801D302220CE02A2801D3032208E0BC
:10337000142801D3042204E00A2801D3052200E026
:1033800006221A21682000F018B810B504464FF440
:103390007A70844201D9044602E0042C00D204244D
:1033A000B0FBF4F0401EC2B21921682000F005F80D
:1033B0006008BDE81040FFF7CFBF70B515460E4658
:1033C0000446FFF73FFE6006000EFFF70BFEFFF717
:1033D00079FE50B93046FFF705FEFFF773FE284629
:1033E000FFF700FEFFF76EFE18B1FFF74BFE01205E
:1033F00070BDFFF747FE002070BD00003EB5002401
:1034000010480094019402940D4984600160047393
:103410000475012505614FF460214460C161FDF729
:1034200085FD08B1FDF703FD0095CDE9015469461E
:103430000448FDF7FDFC002801D0FDF7F8FC3EBD77
:1034400000240140780300200F4810B50D490160A9
:103450000321416000214FF4C0228160C0E90312C2
:10346000D2004261017641768176C176017741775B
:10347000FEF73BF8002803D0BDE81040FDF7D7BCAD
:1034800010BD000000640040EC0300200D4808B5AA
:10349000416941F0010141614069002200F00100F1
:1034A000009006210B20FEF78FFC0B20FEF77EFC20
:1034B000002206210D20FEF787FCBDE808400D2004
:1034C000FEF774BC0010024000B585B01422064916
:1034D0006846FCF7E6FE0021684602F023FC03493B
:1034E000086005B000BD0000686900088000002089
:1034F0002DE9F04186B000263548009601960296E7
:103500000396816941F020018161816901F0200108
:103510000491816941F010018161816901F010011C
:103520000491816941F004018161816901F0040124
:103530000491816941F0080181618069254F00F0A3
:1035400008000490002201213846FEF7ABFB01225F
:103550000C213846FEF7A6FBDFF87C800122032110
:103560004046FEF79FFB002250214046FEF79AFBA3
:103570000124022503950094CDE9014669463846A9
:10358000FEF7A0FA15486946CDE900503846029585
:10359000FEF798FA0C20CDE900040320CDE90240A3
:1035A00069463846FEF78EFA532003958DE85100A0
:1035B00069464046FEF786FA002206210720FEF7FC
:1035C00003FC0720FEF7F2FB06B0BDE8F081000027
:1035D0000010024000100140000C014000001110DA
:1035E000104810B50E4901604FF4827141604FF4EC
:1035F000004181600021C1604FF400720161C0E9A7
:103600000512C1610162416281620A21C162FEF755
:10361000FBFF002803D0BDE81040FDF708BC10BD3B
:10362000003001401404002010B592B000240F9423
:103630001C2168461094FCF74DFE202107A8FCF7DA
:1036400049FE2648244901604721C0E9011444F697
:103650001F61C0E9031444618461FFF74EFA08B1A9
:10366000FDF7E5FB0F940FA91C481094FFF76EF8C7
:1036700008B1FDF7DCFB6020CDE90004029403945F
:10368000049405940822694614480694FFF7CDF97E
:1036900008B1FDF7CCFB4FF4617001900C22694634
:1036A0000E48FFF7C2F908B1FDF7C1FB0794089473
:1036B00009944FF400500A94CDE90B4007A907483C
:1036C0000E94FFF719F808B1FDF7B1FB0348FFF7B7
:1036D00085F912B010BD0000002C01406C040020E0
:1036E0001CB500240E4800940C4901940160472148
:1036F000C0E901144FF6FF718461C160FFF747F81C
:1037000008B1FDF794FB0094694605480194FFF762
:103710001DF8002801D0FDF78AFB1CBD00100040F9
:10372000AC0400200C4810B50A4901604FF4E131A7
:103730004160002181600C22C160C0E904128161F6
:10374000C161FFF799FA002803D0BDE81040FDF7EA
:103750006EBB10BD00440040EC0400200C4810B5C6
:103760000A4901600B494160002181600C22C1605F
:10377000C0E904128161C161FFF77EFA002803D01D
:10378000BDE81040FDF753BB10BD000000480040ED
:103790002C050020A0860100FEE770472DE9F05FB0
:1037A00014468946FCF72BFE01462748FCF727FE06
:1037B00002F01CFD80460146FCF7EFFD8346DFF872
:1037C0008CA05D46504601F027FC0121FCF755FE18
:1037D0004146FCF7E2FD4FF07E563146FCF785FD91
:1037E0002946FCF782FD0746B9F5000F2ADB58464B
:1037F0003946FCF704FE05460121E060FCF73DFE7A
:103800002660C4E9040558463146FCF7C0FD012195
:10381000FCF733FE3946FCF7F2FD60605D4650462A
:1038200001F0FAFB0121FCF728FE4146FCF7B5FD4B
:103830003146FCF7AFFD2946FCF757FD3946FCF74A
:10384000DEFDA060BDE8F09FDB0F4940DB0F493F84
:10385000012002F05BFAFBE710B5502080F31188DD
:10386000BFF34F8FBFF36F8F02F09AFF18B1044977
:103870004FF080500860002080F3118810BD0000D8
:1038800004ED00E070B59CB038216846FCF722FDDD
:1038900014210EA8FCF71EFD202113A8FCF71AFD29
:1038A000012500242804CDE902040226CDE90860A0
:1038B0000095059501940001CDE90A046846FEF7DC
:1038C000B1FC0F20CDE90E06A802CDE91040129000
:1038D00002210EA8FEF76EFBA8031590139613A8FD
:1038E000FEF7A4FA014805671CB070BD0000424213
:1038F0001048016841F00101016041680E4A114021
:10390000416001680D4A11400160016821F4802185
:103910000160416821F4FE014160016821F0A0517D
:1039200001604FF47F0181600021C1620449C0033E
:1039300008607047001002400000FFF0FFFFF6FE35
:1039400008ED00E00148FEF795BF0000AC04002040
:1039500010B50448FEF78EFF03480168491C01605A
:1039600010BD0000B00500206C000020F0B502681A
:10397000194B1A4C1A4D1B4E4FF08047984207D0F6
:10398000B84205D0A04203D0A84201D0B04204D131
:1039900022F0700C4A6842EA0C02984207D0B84202
:1039A00005D0A04203D0A84201D0B04203D122F4F6
:1039B0004074CA6822434C6922F0800222430260AC
:1039C0008A68C2620A688262984201D10969016309
:1039D00001214161F0BD0000002C014000040040C5
:1039E00000080040000C004010B501F01F03012149
:1039F000046A99408C430462016A9A40114301624F
:103A000010BD000030B5026A22F001020262026AB3
:103A10004368846924F073050C682C4322F0020586
:103A20008A682A430A4DA8420BD122F00805CA68C9
:103A300023F440732A434D6922F004021D438B692D
:103A40002B434360846149684163026230BD0000DA
:103A5000002C014030B5026A22F010020262026AB4
:103A6000436884690D6824F4E64444EA05248D68BB
:103A700022F0200242EA05120B4DA8420ED1CD6879
:103A800022F0800242EA05124D6923F4406343EAC2
:103A900085038D6922F0400243EA85034360846117
:103AA00049688163026230BD002C014030B5026A72
:103AB00022F480720262036A4268C46923F40073CC
:103AC00024F073050C682C438D6843EA05230C4DE4
:103AD000A8420ED1CD6823F4006343EA05234D6963
:103AE00022F4405242EA05128D6923F4806342EACF
:103AF00005124260C4614968C163036230BD0000C1
:103B0000002C014030B5026A22F480520262046A3D
:103B10004268C3690D6823F4E64343EA05238D68D0
:103B200024F4005444EA0534064DA84204D14D69FA
:103B300022F4804242EA85124260C361496801640E
:103B4000046230BD002C014010B590B01422114920
:103B50006846FCF7A6FB0021684602F0E3F80E4C2D
:103B60000C4914222060143105A8FCF79AFB0021AF
:103B700005A802F0D7F807496060142228310AA886
:103B8000FCF78FFB00210AA802F0CCF8A06010B06F
:103B900010BD00002C69000860000020F8B5044644
:103BA00090F83A00202833D179B372B394F83800F2
:103BB00001282DD0012084F83800A162A2850025BB
:103BC000E563222084F83A00606B1346456308469B
:103BD000666B216802463046091DFDF73DFF2068EF
:103BE00001684168009184F83850C16841F48071DF
:103BF000C1602068416941F001014161206841696B
:103C000041F0400141610020F8BDFFE70120FBE7E2
:103C10000220F9E72DE9F041044600680169E268F5
:103C200021F44051114301612169A0680843616991
:103C300008432168CA6841F20C639A430243CA6090
:103C400020684169A26921F44071114341611E4914
:103C5000206864253226884202D1FEF771FA01E01D
:103C6000FEF75EFA00EBC00101EB001160686FF037
:103C700018078000B1FBF0F2B2FBF5F2B1FBF0F3F4
:103C80007A4303EB8202B1FBF0F306EB0212B2FBC4
:103C9000F5F2B3FBF5F302F0F00202EB0312B1FB15
:103CA000F0F3B1FBF0F0B0FBF5F0784303EB8000EC
:103CB00006EB0010B0FBF5F0216800F00F00104497
:103CC0008860BDE8F0810000003801402DE9F04136
:103CD000984617460E460446069D1DE0681C1BD0FC
:103CE0002DB1FDF7E5FFA0EB0800A84214D920682C
:103CF000C16821F4D071C1602068416921F00101DF
:103D00004161202084F8390084F83A00002084F8CA
:103D100038000320BDE8F0812068006836EA000022
:103D200004D00020B842D9D00020F3E70120F9E701
:103D30000148FEF73BBF00002C050020FEE7000015
:103D40002DE9FC41284801F049F9284E0027CDE92A
:103D50000076274B3A462749274801F0FAFF274CBF
:103D6000274D2548CDE900544FF0804843460022B6
:103D70002449683001F0EDFF1F48CDE900760023AB
:103D80001A462149343001F0E4FF1B48CDE90054C4
:103D900000231A461D499C3001F0DBFF1648CDE98F
:103DA000005400231A464146D03001F0D2FFCDE93D
:103DB000005400231A464146154801F0CAFFFCF79B
:103DC00073FFFFF7B4F9642212491348FFF70AF8AA
:103DD00001F014FA02B0114BBDE8F041104A11494C
:103DE000114802F0D5B90000EC0300200000C842E1
:103DF000CDCC4C3ECDCCCC3E400200200060EA460B
:103E00000000964300007042CDCC4C3F00002042A1
:103E100044030020B40100202C0500200000614470
:103E2000000096446F12833A2C0200200FB4054B19
:103E300010B503A9044A029800F030FA10BC5DF8EE
:103E400014FB0000E5510008AC010020490050EAD5
:103E5000C12018BF04204A0D18BF40F0010040F2F5
:103E6000FF72B2EB515F08BF40F00200012808BFAB
:103E7000052070474100080218BF04200A0E18BF31
:103E800040F001004FF07F4232EA010108BF40F0EC
:103E90000200012808BF052070470907090E002805
:103EA00004DB00F1E02080F80014704700F00F0000
:103EB00000F1E02080F8141D70472DE9F0414F1EFD
:103EC00000EBC7010446D1E9000115461E4637F054
:103ED00006020DD02A463346FCF782FB7F1E04EB18
:103EE000C703D3E90023FCF7D4FA37F00602F1D177
:103EF000022F25D0042F13D0062F18BFBDE8F08164
:103F00002A463346FCF76CFBD4E90A23FCF7C1FAD6
:103F10002A463346FCF764FBD4E90823FCF7B9FAD8
:103F20002A463346FCF75CFBD4E90623FCF7B1FADA
:103F30002A463346FCF754FBD4E90423FCF7A9FADC
:103F40002A463346FCF74CFBD4E90223FCF7A1FADE
:103F50002A463346FCF744FBD4E90023BDE8F04190
:103F6000FCF797BA0122FCF784BDFCF792BA002255
:103F7000134610461146FCF7A5BB0000024A00207C
:103F80001107FCF776BD000001FDFFFF0121FCF7E2
:103F900074BA00210846FCF732BA6FF05E010807D8
:103FA000FCF76BBA2DE9F04D0D4614464FF07F41FA
:103FB000B1EB440F9EBF4FF0FF312960BDE8F08D9B
:103FC0004FF0004040EA0421C4F3C750783810F0A5
:103FD0001F024A4B4FEA601CC2F120067B44C4F327
:103FE000C750A0F178004FEA601003EB800053F84F
:103FF0002C3008BFD0E901C612D0D0F804C09340DD
:104000002CFA06F73B4387680CFA02FC27FA06F8FD
:10401000C06807FA02F2F0404CEA080C42EA0006D7
:10402000A3FB0132ACFB01C0A6FB016101EB0C0656
:104030008E4234BF4FF0010C4FF0000CC1186144A8
:10404000BCF1000F02D0814202D903E0814201D2CB
:10405000012000E00020104400F120024FEA9218F5
:104060008006CA0C40EA42304F03C5F80080FCF7D6
:1040700098FB82463846FCF79DFB6FF01201FCF777
:10408000FCF907463046FCF795FB6FF02501FCF77D
:10409000F4F9834639465046FCF727F95946FCF7B0
:1040A00024F900F500666FF30B0651463046FCF725
:1040B0006EF93946FCF76BF95946FCF76BF9104974
:1040C000FCF76BF907460F493046FCF766F93946AD
:1040D000FCF70BF907460C493046FCF75EF9394608
:1040E000FCF703F914F0004F08BFBDE8F08DC8F1EC
:1040F000805180F000402960BDE8F08DA82A0000C2
:10410000DB0FC92F22AAFD290000C92F02E008C831
:10411000121F08C1002AFAD170477047002001E041
:1041200001C1121F002AFBD170470000014908603D
:1041300070470000B00100202DE9FF5FDDE902209B
:10414000010DDDF838B0024318D044F61050A1F24A
:10415000FF3141430D140F98012820D0A5EB0B002F
:10416000401C5FEA000A4FF00004474EDFF81C9144
:10417000A046504616D5CAF1000728E00F98012442
:1041800043A2012808D0002100980F9BC0E900211C
:10419000C0E90243BDE8FF9F6FEA0B01F4E7CBF1F2
:1041A0000000DEE7074612E0F80707D02246334654
:1041B00040464946FCF714FA804689462246334673
:1041C00010461946FCF70CFA04460E467F10002FE5
:1041D000EAD1DDE90201BAF1000F42464B4602DAAC
:1041E000FCF7FEF901E0FCF76DFA04460E460022EA
:1041F000284BFCF721FB03D84FF0FF30014607E0C6
:104200000022254B20463146FCF743F9FCF799FC88
:10421000102409E0002C0ADB0A220023FCF700F836
:10422000019B30321A55641E50EA0102F2D1641C1F
:10423000019AC4F1110314440F9A012A03D00122F8
:1042400008430DD10AE0084304D000204FF0110BC1
:104250000F9080E7A3EB0B056D1E0DE05B4504DDC1
:104260004FF0000205F1010504E003DA4FF000020F
:10427000A5F10105002AECD000980F99C0E90231A0
:10428000C0E9004586E70000000024400000F03F40
:10429000300000000000F0430000E03F2DE9FF4F38
:1042A00095B09B468946064600250FE2252877D122
:1042B00000242746F84A0121059400E0044316F83B
:1042C000013F203B01FA03F01042F7D130782A2851
:1042D00011D06FF02F033078A0F13002092A16D8E0
:1042E000059A44F0020402EB820203EB42021044FE
:1042F000761C0590EFE759F8042B0592002A03DAA3
:10430000504244F40054059044F00204761C307886
:104310002E2816D116F8010F44F004042A280DD0D7
:104320006FF02F023078A0F13003092B09D807EB8A
:10433000870302EB4303C718761CF3E759F8047BA5
:10434000761C30786C280FD006DC4C2817D06828F3
:104350000DD06A2814D104E0742810D07A280FD127
:104360000DE044F400140AE044F4801401E044F445
:1043700040147278824202D104F58014761C761CB7
:10438000307866280BD013DC582877D009DC002859
:1043900075D04528F6D04628F4D047281AD19DE19B
:1043A00018E0632835D0642879D0652812D195E1CA
:1043B000702873D008DC6728F1D069286FD06E2888
:1043C0000DD06F2806D1B5E073282CD0752875D094
:1043D000782874D05A46179990476D1C75E1C4F33C
:1043E0000250022809D003280DD0D9F80010042863
:1043F0000DD00D6009F1040967E1D9F80010EA1742
:10440000C1E90052F6E7D9F800100D80F2E70D700F
:10441000F0E719F8041B8DF8001000208DF801005A
:10442000EA46012003E059F804AB4FF0FF30610782
:104430004FF0000102D40DE008F101018846B942B5
:104440000FDA8045F8DB1AF808100029F4D108E0EB
:1044500008F1010188468142FADB1AF808100029A8
:10446000F6D105985B46A0EB080721463846179A17
:1044700000F094FA284400EB080507E04DE029E13C
:104480000DE01AF8010B5A4617999047B8F1010848
:10449000F7D25B4621463846179A13E142E00A22DA
:1044A0000092C4F302524FF0000A022A08D059F8D1
:1044B00004CB032A4FEAEC710AD00DE029E02AE090
:1044C00009F1070121F00702F2E802C1914609E073
:1044D0000FFA8CFC4FEAEC71042A03D14FFA8CFCE2
:1044E0004FEAEC71002907DA0A460021DCF1000CE2
:1044F00061EB02012D2202E0220504D52B228DF86A
:104500000420012203E0E20701D02022F7E79046D1
:1045100059E00A2102E010220DE010214FF0000ABC
:1045200000910BE010224FF0000A44F00404082729
:10453000009203E008224FF0000A0092C4F30252F6
:10454000022A05D059F804CB0021032A08D009E03B
:1045500009F1070121F00702F2E802C1914605E0E6
:104560001FFA8CFC042A01D10CF0FF0C4FF000085C
:10457000220728D5702806D0009B83F0100353EA49
:104580000A0305D00EE040228DF80420012208E045
:104590005CEA010206D030228DF804208DF8050077
:1045A00002229046009B83F0080353EA0A030AD1D3
:1045B0005CEA010201D1620705D530228DF80420A2
:1045C0004FF001087F1E582804D034A003900EA895
:1045D00002900DE036A0F9E753466046009AFBF7DB
:1045E0001FFE84460398825C0298401E029002706F
:1045F0005CEA0100F0D1029806A9081A00F1200A2D
:10460000600702D524F4803400E00127574502DD1D
:10461000A7EB0A0000E0002000EB0A0100900598DB
:104620004144401A0590E00306D45B462146179AA0
:10463000059800F0B3F90544002706E001A85A46A2
:10464000C05D179990476D1C7F1C4745F6DBE00362
:104650000CD55B462146179A059800F09FF9054452
:1046600004E030205A46179990476D1C0099481E67
:1046700000900029F5DC08E0029802995A4600787B
:10468000491C0291179990476D1CBAF10001AAF1DB
:10469000010AF1DC65E10000092801003031323304
:1046A000343536373839616263646566000000006E
:1046B0003031323334353637383941424344454658
:1046C0000000000000F058F90544761C30780028FE
:1046D0007FF4ECAD19B02846BDE8F08F620700D436
:1046E000062709F1070222F0070CFCE80223E14645
:1046F00003F000485FEA080C02D00FF2702C0DE0C6
:104700005FEA045C02D50FF2682C07E05FEAC47C24
:1047100002D00FF2602C01E0AFF2700C4FF0FF38C6
:1047200023F00043CDF850C065280CD006DC4528A6
:1047300009D046281DD047283DD13DE0662818D035
:1047400067287ED138E00021112F01DB112000E025
:10475000781CCDE9000106A90EA8FFF7EDFCDDE904
:104760000F010E9A03910021009207F1010A0491B2
:104770004DE04FF000400097CDE9011006A90EA8CA
:10478000FFF7DAFCDDE90F0203920E9B119900227C
:10479000DDF80CA00093049211B9791C00EB010A1A
:1047A000B7EB0A0004D4C0F1FF3007F1010A04900E
:1047B000AAEB0700019044E0012F00DA0127002155
:1047C000112F01DD112000E03846CDE9000106A9D6
:1047D0000EA8FFF7B1FCDDE90F010E9A039100214D
:1047E00004910092BA4621070CD40399514500DA8E
:1047F0008A46BAF1010F05DD009AAAF10101515C68
:10480000302908D0B84202DA10F1040F06DA01218B
:10481000CDE9011015E0AAF10101E9E7002805DC66
:10482000049901440491AAEB000102E0411C5145A6
:1048300000DD8A460499401A401C01904FF0004068
:104840000290200704D40198504501DBCDF8048084
:1048500000208DF84F0002980DF14F07B0F1004F86
:1048600025D02B200E9002984FF0020800280CDA79
:10487000404202902D200E9007E00A210298FCF79A
:104880000FF83031029007F8011DB8F10001A8F1CE
:104890000108F2DC02980028EFD1791E0E9808700A
:1048A000307800F0200040F0450007F8020D12A813
:1048B000C01B00F107081498007800B1012000EB3C
:1048C0000A01019801EBE07105984144401A401E2D
:1048D0000590E00306D45B462146179A059800F040
:1048E0005DF805441498007818B15A461799904716
:1048F0006D1CE00324D55B462146179A059800F00D
:104900004DF805441CE00498002807DBDDE90301AD
:10491000884203DD0098405C179901E01799302028
:104920005A469047049805F10105401C04900198EF
:10493000401E019004D12E205A46179990476D1CB5
:10494000BAF10001AAF1010ADDDC05E017F8010B5C
:104950005A46179990476D1CB8F10001A8F101085B
:10496000F4DC5B462146179A0598ABE62D00000063
:104970002B000000200000002DE9F0410446002536
:104980001E461746880404D405E039462020B04767
:104990006D1C641EF9D52846BDE8F0812DE9F04173
:1049A000044600251E469046C80301D5302700E086
:1049B0002027880404D505E041463846B0476D1CE1
:1049C000641EF9D52846BDE8F08100002DE9F04DC0
:1049D0008D4F21F0004A86B005460C46BA452ADBC9
:1049E000AAEB070028430AD08848824501DC1AD187
:1049F000CDB106B02846BDE8F04DFFF7B3BA844A02
:104A0000844B2846FBF7ECFD07460E46824A834B53
:104A100028462146FBF7E4FD06B03A463346BDE89A
:104A2000F04DFBF736BD0120FFF780FB06B0BDE877
:104A3000F04DFFF79CBA7A48824542DABAF1795FC5
:104A40000BDA2846FFF702FA042808BFFFF796FAA8
:104A5000284606B02146BDE8F08D2A460B46104692
:104A6000FBF7BEFD834602466E480E460B46062106
:104A70007844FFF722FA5A463346FBF7B1FD8046E9
:104A800069488A465A46334604217844FFF715FAA6
:104A90005A463346FBF7A4FD00223B46FBF7F9FCE0
:104AA00002460B4640465146FBF70CFE2A4623467B
:104AB000FBF796FD06B02A462346BDE8F04DFBF70E
:104AC000E8BC284624F0004100223D463B46FBF767
:104AD00084FD4FF0FF32FBF7CCFF064602465348F9
:104AE0000F460B4606217844FFF7E7F932463B466E
:104AF000FBF776FDCDE900014D4832463B460421E7
:104B00007844FFF7DAF932463B46FBF769FD0022AD
:104B10002B46FBF7BEFC834602913046394601F036
:104B20003FFB804643480D46504517DCDDE9000158
:104B30005A46029BFBF7C6FD42462B46FBF750FD4B
:104B400042462B46FBF7A5FC0122FBF792FF304AB9
:104B5000304BFBF73FFD304A304B4CE04FF0000A42
:104B600052460B464046FBF794FCCDE903105246F3
:104B70002B4610461946FBF733FD32463B46FBF702
:104B80002CFDDDE90332FBF79DFD06460F46DDE90E
:104B900000015A46029BFBF795FD834600910122D6
:104BA00030463946FBF765FF194A1A4BFBF715FDEE
:104BB00006460F46012240462946FBF75AFF5A4651
:104BC000009BFBF70DFD32463B46FBF703FD064617
:104BD0000F46012250462946FBF74BFF0E4DDFF8EA
:104BE00058802A464346FBF7F8FC32463B46FBF723
:104BF000F4FC2A464346FBF7F0FC002CD8BF81F0BA
:104C0000004106B0BDE8F08D0000F03F0000F07FED
:104C1000075C143326A6913C182D4454FB21F93F20
:104C20000000E03F241F00003A1F0000AE1E0000FD
:104C3000C41E00003333EF3FFB21E93F2DE9F84F5D
:104C400004460D4621F0004000917349814211DC79
:104C50007249884201DC06D12CB120462946BDE8C4
:104C6000F84FFFF77FB96E48002DCCBF6D496E49F4
:104C7000BDE8F88F6D49814211DD6D498142D8BF91
:104C80004FF0FF366DDD20462946FFF7DFF8042898
:104C900008BFFFF773F920462946BDE8F88F65493C
:104CA000654F25F00045814233DD6449814219DDBD
:104CB000002632464FF0804320462946FBF7E9FBA9
:104CC00080468A46012220462946FBF7D2FE002272
:104CD0003B46FBF77FFC42465346FBF7F3FC04469A
:104CE0000D463EE001260022BA463B4620462946B4
:104CF000FBF7CFFB80460F4600225346204629464D
:104D0000FBF768FC42463B46FBF7DCFC04460D46DD
:104D100027E04B4981421BDDDFF828A10226002253
:104D2000534620462946FBF75BFC00223B46FBF737
:104D3000B0FB80460F460022534620462946FBF72B
:104D400049FC42463B46FBF7BDFC04460D4608E0E5
:104D5000032622462B4600203B49FBF7B3FC0446C2
:104D60000D4622462B4610461946FBF739FC8B466A
:104D7000824602460B46FBF733FC074602463348A1
:104D800088460B4606217844FFF797F852465B4663
:104D9000FBF726FC82462E488B463A4643460521C1
:104DA0007844FFF78AF83A464346FBF719FC024677
:104DB0000B46002E504659460CDAFBF76AFB22469A
:104DC0002B46FBF70DFC01B022462B46BDE8F04F09
:104DD000FBF703BCFBF75DFB22462B46FBF700FC11
:104DE0001C4A7A4402EBC603D3E90023FBF7F2FB2B
:104DF00022462B46FBF7EEFB174A7A4402EBC6032A
:104E0000D3E90023FBF7E9FB009A002AB8BF81F041
:104E10000041BDE8F88F0000000010440000F07F62
:104E2000182D4454FB21F93FFB21F9BF0000DC3F62
:104E30000000203E0000F33F0000F03F0000E63F8E
:104E4000008003400000F83F0000F0BFC61C0000D7
:104E5000841C0000221C0000EA1B00002DE9F04D1C
:104E60009446CCF1000423F000464CEA0404524F6F
:104E700046EAD4749A46884621F00042BC4206D8DD
:104E8000454240EA050442EAD474BC4204D9BDE874
:104E9000F04D6246FFF769B8AAF14055A5F17F656C
:104EA00055EA0C040BD0022404EAAA74434DDFF83F
:104EB00010E144EAD87452EA000B04D00CE0BDE8DB
:104EC000F04DFFF7BBBE002C14BF012CBDE8F08DE8
:104ED000022C30D0032C32D056EA0C0B0AD0BE4242
:104EE00020D1BA4209D126F0804622F080423346D2
:104EF000114617E000291ADB25E0DFF8C8B0FB44B3
:104F0000002C04BFDBE90001BDE8F08D012C02BFDD
:104F1000DBE9000181F00041BDE8F08D022C0AD0F0
:104F2000032C0CD0BA4212D1B8F1000F0BDA23488F
:104F30002549BDE8F08D28462449BDE8F08D284676
:104F40007146BDE8F08D1D482149BDE8F08D921BEA
:104F500012153C2AC4BF19481D490EDCBAF1000FD6
:104F6000BEBF12F13C0F0020014606DB6246FBF794
:104F7000A9FB21F00041FFF761FE002C08BFBDE84E
:104F8000F08D012C04BF81F00041BDE8F08D114A85
:104F9000114B022C07D0FBF71DFB2A46BDE8F04D54
:104FA0000A4BFBF717BBFBF715FB2A46BDE8F04D94
:104FB000064BFBF712BB00000000F07F182D445495
:104FC000FB2109C07E1B0000FB21F9BFFB2109402A
:104FD000FB21F93F075C143326A6A13C10B58AB02B
:104FE000002101220446CDE90612039104910E200E
:104FF000CDE9082005910091019102916946204672
:10500000FCF77AF82046FCF791FB02212046FCF7DA
:1050100061F80AB010BD70472DE9F8430446024616
:105020004F486946B0EB420F09D94FF0E640B0EB6C
:10503000420F94BF00204FF0FF30009030E0494B0A
:1050400022F00040834271D947492046FBF7A5F979
:10505000FBF794FC8046FBF7C3FB00F003000090D5
:1050600042494046FBF799F9054641494046FBF75E
:1050700094F906463F494046FBF78FF907463E49FB
:105080004046FBF78AF92146FBF784F93946FBF7DE
:105090007EF93146FBF77BF92946FBF778F90446A0
:1050A0002546009C002C45DB294614F0010F0846DC
:1050B0001CD0FBF772F906463049FBF76EF9304910
:1050C000FBF768F93146FBF768F92E49FBF70DF954
:1050D0003146FBF762F92946FBF75FF92946FBF7F2
:1050E00004F914F0020F1CD0BDE8F883FBF755F962
:1050F00005462549FBF751F92449FBF7F6F82946FF
:10510000FBF74BF92249FBF7F0F82946FBF745F985
:105110004FF07E51FBF7E9F814F0020F08BFBDE82D
:10512000F88380F00040BDE8F883FFE71046FEF703
:1051300039FFB4E76800B0F17F4F3CBF4FF07E50BD
:10514000BDE8F88307D14FF00100FEF7EFFFBDE89F
:10515000F843FEF71EBF2846BDE8F843FEF716BF2A
:10516000B61F927E490E494683F9223F1A61342CBC
:105170000020A23300A0FD390000C93F336D4C3937
:10518000DA82083CA0AA2ABEB93AB2BACA9F2A3D1E
:10519000DDFFFFBE70B5054600244FF47A7603E0CC
:1051A000304600F005F8641CAC42F9D370BD000035
:1051B00070B54FF6FA710A4D081A84B22868446235
:1051C0002846FDF71DFB4FF6F971286801E0426A99
:1051D00094B28C42FBD3BDE870400148FDF733BB6D
:1051E000AC04002013B54FF6FF7301226946024854
:1051F000FDF701FE00981CBDEC04002010B508214D
:105200000748FDF7ABFC0C210548FDF7A7FC044857
:105210004FF461710268D1630068016410BD000041
:105220006C04002000207047704700002DE9F05FFB
:105230003E4C3F4E3F4D6068DFF8FC80DFF8FC904D
:10524000B0F90610B0F90800DFF8F4A0DFF8F4B008
:10525000002935DA3C4F00281ADA91FBF0F0FBF711
:10526000AEFA21F000410022384BFBF7E5FA05D8F1
:10527000A660E56036482061364806E03648A06002
:105280003648E060C4F8108035486061BDE8F09FA2
:10529000FCDD91FBF0F0FBF792FA21F000410022D7
:1052A0002A4BFBF7C9FAA76004D8E560C4F8109050
:1052B0002C48EAE7C4F80CA0C4F810B02A48E4E788
:1052C000E4DD2A4F002818DD91FBF0F0FBF777FAB8
:1052D00021F0004100221D4BFBF7AEFA06D824480E
:1052E000A060C4F80C9025616661CFE72148A060FA
:1052F000C4F80CB0C4F810A0C7E7C7DA91FBF0F00F
:10530000FBF75DFA21F000410022104BFBF794FA05
:10531000A76004D81848E06025611848B5E7C4F8CC
:105320000C80174820611748AFE700005C0100209F
:105330000AD7A3BBA8C64BBEE17A543F355E7ABFFD
:1053400068910DBFE17A54BF0AD7A33B0000F03F3C
:10535000BE9F7A3F4ED111BC6F1203BC7B140EBFAF
:105360006F1203BBA69B443C99BB16BB0AD7233BD9
:1053700052499D3A99BB163B355E7A3F6F12033C0A
:10538000295C0FBFBC74933B10B504464FF0FF314E
:10539000FBF773F80849A1EB64042146FAF7FDFF17
:1053A0002146FAF7FAFF4FF07F51FAF7F3FF214653
:1053B000BDE81040FAF7F1BFDF59375FFCF786FC14
:1053C000FEF760FAFEF794F8FEF760F8FEF7AAF928
:1053D000FEF714F8FEF704F9FEF7C0F9FEF734F80B
:1053E000FEF77EF9FEF720F9002206212720FCF7C0
:1053F000EBFC2720FCF7DAFCFEF7A2FCFEF7A4FB8F
:10540000FEF762F800F089FCFEE7014600208429DF
:1054100000D0C81C704700002DE9F04FFE4C95B03D
:10542000A168A068FAF7B9FF0A90E168A068FAF7E6
:10543000B4FF21698246A068FAF7AFFF616983462D
:10544000A068FAF7AAFFE1688146E068FAF7A5FFCD
:1054500006902169E068FAF7A0FF0C906169E068A6
:10546000FAF79BFF059021692069FAF796FF0390F0
:1054700061692069FAF791FF079061696069FAF73D
:105480008CFF02906568286960626869A062A869FB
:10549000E062B5F90000FBF784F92063B5F902007A
:1054A000FBF77FF96063B5F90400FBF77AF9A063B5
:1054B000B5F90600FBF775F9E063B5F90800FBF7ED
:1054C00070F92064B5F90A00FBF76BF96064FCF72A
:1054D000EFFBE064E06CA16C401AFBF76BF9CF497D
:1054E000FAF78DFF0090E06CA064A16BA06BFAF757
:1054F00054FF616B0646606BFAF74FFF216B054660
:10550000206BFAF74AFF2946FAF7EFFE3146FAF721
:10551000ECFEFFF739FF05460146206BFAF73DFF29
:1055200020632946606BFAF738FF60632946A06B59
:10553000FAF733FFA0630020E063206460645946FB
:105540000598FAF7D2FE05460F900121606CFAF734
:1055500094FF2946FAF721FF074649460C98FAF7C7
:1055600016FF054610900121206CFAF786FF2946A8
:10557000FAF713FF06464FF07C5840460399FAF7B6
:1055800006FF0299FAF703FF054611900121E06B2F
:10559000FAF773FF2946FAF700FF3146FAF7A5FE3E
:1055A0003946FAF7A2FE074651460798FAF7EFFE8A
:1055B00005460121606CFAF760FF2946FAF7EDFE17
:1055C000064640460699FAF7E2FE80460299FAF747
:1055D000DEFE05460121206CFAF74FFF2946FAF757
:1055E000DCFE054649460C98FAF77FFE814601210C
:1055F000E06BFAF742FF4946FAF7CFFE2946FAF781
:1056000074FE3146FAF771FE064640460399FAF7F2
:10561000BEFE05460C900121606CFAF72EFF29466C
:10562000FAF7BBFE804651460798FAF75EFE05463C
:1056300007900121206CFAF720FF2946FAF7ADFE0A
:10564000054659460598FAF7A2FE81460121E06B0E
:10565000FAF713FF4946FAF7A0FE2946FAF745FE86
:105660004146FAF742FE054631460846FAF795FEEE
:10567000064639460846FAF790FE3146FAF735FEF7
:10568000FBF7C7F800F08CFDFBF7EEF880464846C4
:105690000121FAF7F2FE074601210798FAF7EDFE1D
:1056A000049006990A98FAF772FE0399FAF76FFECA
:1056B0000299FAF71AFE83464E4601212846FAF768
:1056C000DCFE31460990FAF768FE064601214046A5
:1056D000119DFAF7D2FE80462946FAF75EFE314662
:1056E000FAF703FE824607990998FAF756FE05462F
:1056F00040461099FAF751FE2946FAF7F6FD814621
:105700000C990998FAF749FE054640460F99FAF7B1
:1057100044FE2946FAF7E9FD06464946606CFAF769
:105720003CFE05463146206CFAF737FE2946FAF76B
:105730002EFE05460499A06BFAF72FFE80465946C7
:10574000606BFAF72AFE4146FAF721FE2946FAF77E
:10575000CCFD80463146E06BFAF71FFE0546514608
:10576000606CFAF71AFE2946FAF711FE054659460B
:10577000206BFAF712FE06463946A06BFAF70DFECB
:105780003146FAF704FE2946FAF7AFFD06465146C0
:10579000206CFAF702FE05464946E06BFAF7FDFD7C
:1057A0002946FAF7F4FD05463946606BFAF7F5FD30
:1057B00007460499206BFAF7F0FD3946FAF7E7FD42
:1057C0002946FAF792FD054618F0FF4F4FD016F024
:1057D000FF4F4CD015F0FF4F49D0114F404639468E
:1057E000FAF7DBFD0099FAF7D8FDA169FAF77DFD1C
:1057F000A06139463046FAF7D0FD0099FAF7CDFDA1
:10580000E169FAF772FDE06139462846FAF7C5FD0D
:105810000099FAF7C2FD05E05C0100200000FA449F
:105820000AD7233C216AFAF760FD20620121404635
:10583000FAF723FE616AFAF758FDA169FAF755FDF8
:10584000606201213046FAF718FEA16AFAF74DFDB1
:10585000E169FAF74AFDA06201212846FAF70DFE38
:10586000E16AFAF742FD216AFAF73FFDE062E16A78
:105870006069FAF792FDA16A06462069FAF78DFD84
:105880000546E068616A80F00040FAF786FD294627
:10589000FAF77DFD3146FAF77AFD0099FAF77DFDBA
:1058A000A168FAF722FDA16A80466069FAF775FDE2
:1058B000E16A06462069FAF770FD616A0546A0684C
:1058C000FAF76BFD2946FAF710FD3146FAF75FFD4E
:1058D0000099FAF762FDE168FAF707FD616A074689
:1058E0006069FAF75AFDE16A0646E068FAF755FD85
:1058F000A16A0546A068FAF750FD2946FAF747FD68
:105900003146FAF7F2FC0099FAF747FD2169FAF7F8
:10591000ECFC616A06462069FAF73FFDA16A814600
:10592000E068FAF73AFDE16A0546A068FAF735FD46
:105930002946FAF7DAFC4946FAF729FD0099FAF701
:105940002CFD6169FAF7D1FC05460146FAF725FD01
:10595000834631460846FAF720FD82463946084616
:10596000FAF71BFD814641460846FAF716FD4946FF
:10597000FAF7BBFC5146FAF7B8FC5946FAF7B5FC02
:10598000FFF702FD814601464046FAF706FDA0609A
:1059900049463846FAF701FDE06049463046FAF7D5
:1059A000FCFC206149462846FAF7F7FC606115B017
:1059B000BDE8F08F2DE9F0474C4C01216069FAF702
:1059C0005CFD6169FAF7E9FC05464FF04048414645
:1059D0002069FAF7E2FC2169FAF7DFFC2946FAF7B9
:1059E000D6FC4FF07E594946FAF77FFCFAF711FFD3
:1059F00006460D460121A068FAF73FFD6169FAF7F6
:105A0000CCFC07460121E068FAF737FD2169FAF777
:105A1000C4FC3946FAF769FCFAF7FBFE32462B461E
:105A2000FFF71CFA324E4FF0663A52463346FAF709
:105A3000D7FDFAF719FF6168C8630121A068FAF77A
:105A40001CFD2169FAF7A9FC05464146E068FAF712
:105A5000A4FC6169FAF7A1FC2946FAF746FCFAF7BB
:105A6000D8FEFEF7B3FF52463346FAF7B9FDFAF710
:105A7000FBFE6168886301212069FAF7FEFC216959
:105A8000FAF78BFC05464146E068FAF786FCE168C8
:105A9000FAF783FC2946FAF77AFC4946FAF725FC1F
:105AA000FAF7B7FE06460D460121A068FAF7E5FCB5
:105AB000E168FAF772FC074601212069FAF7DDFC7C
:105AC0006169FAF76AFC3946FAF70FFCFAF7A1FEAA
:105AD00032462B46FFF7C2F95246064BFAF780FDD5
