:020000040800F2
:10000000F806002001010008850400087D040008AE
:10001000810400089F010008CF0C000800000000C8
:100020000000000000000000000000005D09000862
:10003000410300080000000065080008490A0008A4
:100040001B0100081B0100081B0100081B01000820
:100050001B0100081B0100081B0100081B01000810
:100060001B0100081B0100081B0100081B01000800
:100070001B0100081B0100081B0100081B010008F0
:100080001B0100081B0100081B0100081B010008E0
:100090001B0100081B0100081B0100081B010008D0
:1000A0001B0100081B0100081B0100081B010008C0
:1000B0001B0100081B0100081B0100081B010008B0
:1000C0001B0100081B0100081B0100081B010008A0
:1000D0001B010008AD0A00081B0100081B010008F5
:1000E0001B0100081B0100081B010008DFF80CD0F1
:1000F00000F018F800480047510D0008F8060020ED
:100100000648804706480047FEE7FEE7FEE7FEE7B1
:10011000FEE7FEE7FEE7FEE7FEE7FEE74D0A000822
:10012000ED000008064C074D06E0E06840F00103D2
:1001300094E8070098471034AC42F6D3FFF7DAFF93
:100140009C140008BC14000870B58C1810F8015BF2
:1001500015F0070301D110F8013B2A1106D110F860
:10016000012B03E010F8016B01F8016B5B1EF9D164
:100170002B0705D40023521E0DD401F8013BFAE7EA
:1001800010F8013BCB1A921C03E013F8015B01F855
:10019000015B521EF9D5A142D8D3002070BD00BF2B
:1001A000FEE7000008B50121082000F05DFB0420F7
:1001B0008DF803008002ADF8000003208DF80200E6
:1001C0006946024800F0BDF808BD0000000C01407F
:1001D00008B50121082000F047FB10208DF803002E
:1001E0000002ADF8000003208DF8020069460248C5
:1001F00000F0A7F808BD0000000C01402DE9F84F01
:1002000000F07EF84FF48051264800F030F94FF4AA
:100210008051244800F020F9C8BB00BF4FF4805142
:10022000204800F019F90028F8D000BF4FF48051A1
:100230001C4800F011F90128F8D000F037F8044606
:1002400000F034F8054600F031F8064600F02EF8CC
:10025000074600F02BF800904FF48051114800F051
:1002600004F9372000F05CFD4FF480510D4800F098
:10027000FEF860193044C1190098814207D104F09A
:10028000FF0805F0FF0906F0FF0A07F0FF0B06481C
:10029000C0F80080C0F80490C0F808A0C0F80CB006
:1002A000BDE8F88F000C0140E402002070B5002585
:1002B00000BF1FE000BF4FF48051104800F0CCF8A1
:1002C0000028F8D01E2000F02BFD6006040E4FF42D
:1002D00080510A4800F0C0F8012801D144F001041F
:1002E00000BF4FF48051054800F0B6F80128F8D05F
:1002F000681CC5B2082DDDDB204670BD000C014036
:1003000010B5FFF765FF4FF480510C4800F0AFF8CF
:100310001E2000F005FD4FF48051084800F0A5F8BC
:10032000142000F0E5FC4FF48051044800F09FF8E1
:100330001E2000F0F5FCFFF735FF10BD000C01405A
:1003400070472DE9F04102460025002600200023D9
:100350000024002791F803C00CF00F0591F803C0AA
:100360000CF0100CBCF1000F03D091F802C04CEA65
:10037000050591F800C0BCF1000F31D014680020D1
:100380002BE04FF0010C0CFA00F3B1F800C00CEABE
:1003900003069E4220D183004FF00F0C0CFA03F7A6
:1003A000BC4305FA03FC4CEA040491F803C0BCF119
:1003B000280F06D14FF0010C0CFA00FCC2F814C053
:1003C0000AE091F803C0BCF1480F05D14FF0010CD1
:1003D0000CFA00FCC2F810C0401C0828D1D31460ED
:1003E000B1F800C0BCF1FF0F34DD546800202EE0EE
:1003F00000F1080C4FF0010808FA0CF3B1F800C046
:100400000CEA03069E4221D183004FF00F0C0CFA38
:1004100003F7BC4305FA03FC4CEA040491F803C05B
:10042000BCF1280F05D100F1080C08FA0CF8C2F84D
:10043000148091F803C0BCF1480F07D100F1080CFB
:100440004FF0010808FA0CF8C2F81080401C082888
:10045000CED35460BDE8F0810246002093680B4083
:100460000BB1012000E0002070474161704701613D
:1004700070470AB1016100E04161704700BFFEE7CB
:1004800000BFFEE77047000070B5002100230F2277
:10049000C47804B3154C246804F4E064C4F5E06443
:1004A000210AC1F10403CA40447804FA03F18478B4
:1004B0001440214309010E4C0678A155047804F03C
:1004C0001F050124AC4005786D11AD0005F1E02554
:1004D000C5F8004109E0047804F01F050124AC4090
:1004E000044D0678761145F8264070BD0CED00E00D
:1004F00000E400E080E100E070B500240EE000219F
:10050000204600F0F0F8002504E0002000F09AF901
:10051000681CC5B2802DF8DB601CC4B2082CEEDB71
:1005200070BD000008B50121082000F09DF91420DD
:100530008DF8030003208DF802004FF48070ADF8B1
:10054000000069460A48FFF7FCFE4FF40070ADF862
:10055000000069460648FFF7F4FE01221102044834
:10056000FFF787FF012251020148FFF782FF08BD14
:10057000000C014070B50546002415E080202041A4
:1005800000EA05024FF400710E48FFF772FF0122E6
:1005900011020C48FFF76DFF00224FF480710948EB
:1005A000FFF767FF601CC4B2082CE7DB01221102D1
:1005B0000448FFF75EFF00224FF480710148FFF707
:1005C00058FF70BD000C014010B5012251020A48CD
:1005D000FFF74FFF012211020748FFF74AFF0022F1
:1005E0004FF400710448FFF744FF00224FF480717C
:1005F0000148FFF73EFF10BD000C014010B500227E
:100600004FF400710648FFF734FF0122110204483D
:10061000FFF72FFF012251020148FFF72AFF10BD0B
:10062000000C014070B5002406E0002500E06D1CC0
:10063000B5F57A7FFBD3641CB4F57A7FF5D3FFF769
:1006400071FFAE2000F0EEF8D52000F0EBF880202E
:1006500000F0E8F8A82000F0E5F83F2000F0E2F80C
:10066000D32000F0DFF8002000F0DCF8402000F09C
:10067000D9F8A12000F0D6F8C82000F0D3F8DA208D
:1006800000F0D0F8122000F0CDF8812000F0CAF878
:10069000CF2000F0C7F8D92000F0C4F8F12000F016
:1006A000C1F8DB2000F0BEF8302000F0BBF8A42039
:1006B00000F0B8F8A62000F0B5F88D2000F0B2F8F0
:1006C000142000F0AFF8AF2000F0ACF8FFF714FFF3
:1006D00070BD10B50246012000E050430B1EA1F191
:1006E0000101FAD110BD70B505460C4645F0B000C9
:1006F00000F098F8102141EA141000F093F804F08B
:100700000F0000F08FF870BD2DE9F04106468846D5
:100710001546002741463046FFF7E5FF002409E073
:10072000114A02EB8511085D00F08CF8781CC7B205
:10073000601CC4B2102CF3DB711CC8B24146FFF739
:10074000D2FF00240BE06900491C074A02EB41116B
:10075000085D00F077F8781CC7B2601CC4B2102C9A
:10076000F1DBBDE8F08100001A0000202DE9F04126
:1007700005460E461746721ED206110E6A1E520616
:10078000100EFFF7B0FF002409E0A7F12001134A83
:1007900002EB0111085D00F055F8601CC4B2082C92
:1007A000F3DB721ED206110E6A1E012303EB420216
:1007B000D0B2FFF798FF00240BE0A7F12001074A11
:1007C00002EB011204F10801505C00F03BF8601CE0
:1007D000C4B2082CF1DBBDE8F0810000AC0E0008CB
:1007E0002DE9F04780460E4617461D46002415E0C9
:1007F000281B411E0A20FFF76CFFB7FBF0F00A210F
:10080000B0FBF1F201FB120000F130093019C1B266
:100810004A464046FFF7AAFF601CC4B2AC42E7DB81
:10082000BDE8F08710B50446FFF7CEFE7820FFF74D
:10083000A1FE0020FFF79EFE2046FFF79BFEFFF77C
:10084000DDFE10BD10B50446FFF7BEFE7820FFF7B1
:1008500091FE4020FFF78EFE2046FFF78BFEFFF74C
:10086000CDFE10BD7047000029B1064A92690243CF
:10087000044B9A6104E0034A92698243014B9A61F6
:10088000704700000010024030B500210022002413
:1008900000232D4D6D6805F00C0121B1042905D010
:1008A000082923D105E0294D056022E0274D056088
:1008B0001FE0254D6D6805F47012234D6D6805F439
:1008C0008034022505EB92421CB9214D5543056049
:1008D0000BE01D4D6D6805F400351DB11C4D5543F1
:1008E000056002E0194D5543056002E0174D0560B3
:1008F00000BF00BF144D6D6805F0F0010909154DEA
:100900006B5C0568DD4045600F4D6D6805F4E06186
:10091000090A104D6B5C4568DD4085600A4D6D68C5
:1009200005F46051C90A0B4D6B5C4568DD40C5603C
:10093000054D6D6805F44041890B074D6B5CC5683A
:10094000B5FBF3F5056130BD0010024000127A00DE
:1009500000093D000000002010000020704710B585
:1009600000F002F810BD00000CB5002001900090CE
:100970003348006840F480303149086000BF304897
:10098000006800F4003000900198401C019000982D
:1009900018B90198B0F5A06FF1D12948006800F4AA
:1009A000003010B10120009001E00020009000987C
:1009B000012843D12348006840F010002149086015
:1009C0000846006820F0030008600846006840F010
:1009D000020008601A4840681949486008464068A3
:1009E00048600846406840F48060486008464068B7
:1009F00020F47C1048600846406840F4E8104860E5
:100A00000846006840F08070086000BF0C4800682D
:100A100000F000700028F9D00948406820F0030079
:100A2000074948600846406840F00200486000BF3F
:100A30000348406800F00C000828F9D10CBD000004
:100A400000100240002002407047000010B513481B
:100A5000006840F0010011490860084640681049EC
:100A600008400E494860084600680E4908400B4996
:100A700008600846006820F4802008600846406846
:100A800020F4FE0048604FF41F008860FFF767FF06
:100A90004FF000600449086010BD000000100240E3
:100AA0000000FFF8FFFFF6FE08ED00E010B540F291
:100AB00025511D4800F04AF810B31B4800F002F918
:100AC000C4B21A48008800F40040C8B9174800882A
:100AD00000F4804060B10A2C03D000201349088044
:100AE00020E01248008840F400401049088019E0D6
:100AF0000D2C06D10D48008840F480400B49088039
:100B000010E00A480088C0F30D0009490C5407485A
:100B10000088401C0549088008460088C72801DD78
:100B20000020088010BD000000380140180000209F
:100B30001C02002021B1828942F40052828104E02B
:100B400082894DF6FF731A408281704770B5024664
:100B5000002400230025002040F66A16B14200D18F
:100B600000BFC1F3421501F01F03012606FA03F38B
:100B7000012D02D19689334006E0022D02D1168A5A
:100B8000334001E0968A33400C12012606FA04F441
:100B90001688344013B10CB1012000E0002070BD74
:100BA000F0B50346002400260025002040F66A1711
:100BB000B94200D100BF1846C1F3421401F01F062C
:100BC000012707FA06F5012C01D10C3004E0022CB4
:100BD00001D1103000E014301AB107682F430760CC
:100BE00002E00768AF430760F0BD00002DE9F04761
:100BF00086B005460E460024A24600BFA146002747
:100C0000B08900B100BF2F462C8A4CF6FF7004401B
:100C1000F08804432C82AC894EF6F3100440B0886F
:100C200031890843718908430443AC81AC8A4FF68B
:100C3000FF400440B0890443AC8201A8FFF724FEC2
:100C40001F48874202D1DDF810A001E0DDF80CA0BA
:100C5000A88900F4004040B10AEBCA0000EB0A107A
:100C600031684900B0FBF1F807E00AEBCA0000EB7D
:100C70000A1031688900B0FBF1F86420B8FBF0F08D
:100C800004012009642101FB1089A88900F40040B7
:100C900040B1322000EBC900B0FBF1F000F00700DA
:100CA000044308E0322000EB09106421B0FBF1F0AE
:100CB00000F00F0004432C8106B0BDE8F08700006F
:100CC0000038014001468888C0F30800704700BF23
:100CD000FEE702E008C8121F08C1002AFAD17047D7
:100CE0007047002001E001C1121F002AFBD17047AC
:100CF00000B5034603E04FF47A7000F011F8181EB7
:100D0000A3F10103F7D100BD10B5044603E04FF491
:100D10007A70FFF7EDFF201EA4F10104F7D110BD9A
:100D200000EBC001C9004FF0E02251610021916148
:100D30000521116100BF4FF0E021096901F4803104
:100D40000029F8D004214FF0E02211617047000023
:100D5000FFF768FC4FF4165000F058F800221146D7
:100D60001046FFF7D1FC012210210020FFF7CCFC38
:100D7000042220210020FFF7C7FC05223C2100208F
:100D8000FFF7C2FC06225A210020FFF7BDFC022219
:100D900000210420FFF7B8FC032210210420FFF7F4
:100DA000B3FC042220211046FFF7AEFC05223C21B3
:100DB0000420FFF7A9FC07225A210420FFF7A4FC16
:100DC00020E00120FFF7A0FFFFF718FA0E480223EA
:100DD000072182680120FFF703FD0B4801230A2148
:100DE000C2681846FFF7FCFC074802230721026887
:100DF0000320FFF7F5FC044802230A214268032080
:100E0000FFF7EEFCDDE70000E402002010B586B03D
:100E10000446012144F20400FFF726FD4FF4007060
:100E2000ADF8140003208DF8160018208DF8170077
:100E300005A91C48FFF785FA4FF48060ADF814004F
:100E400004208DF8170005A91648FFF77AFA252027
:100E50008DF8000003208DF801008DF802000120BC
:100E60008DF803006846FFF70FFB01940020ADF8F2
:100E70000800ADF80A00ADF80C00ADF810000C2029
:100E8000ADF80E0001A90848FFF7B0FE012240F2BC
:100E900025510548FFF784FE01210348FFF74AFE6C
:100EA00006B010BD000801400038014000000000FD
:100EB000000000000000000000000000000000F83A
:100EC00000000000000000333000000000100C069D
:100ED000100C0600000000000000000040C0784038
:100EE000C0784000043F04043F040400007088FC04
:100EF00008300000001820FF211E0000F008F0005C
:100F0000E018000000211C031E211E0000F00888CC
:100F1000700000001E2123241927211010160E0036
:100F2000000000000000000000000000000000E0E1
:100F300018040200000000071820400000020418F6
:100F4000E00000000040201807000000404080F052
:100F5000804040000202010F01020200000000F088
:100F6000000000000101011F01010100000000005C
:100F70000000000080B070000000000000000000D1
:100F8000000000000001010101010101000000005A
:100F900000000000003030000000000000000000F1
:100FA00080601804006018060100000000E01008CE
:100FB0000810E000000F102020100F00001010F8A3
:100FC000000000000020203F2020000000700808E2
:100FD0000888700000302824222130000030088862
:100FE000884830000018202020110E000000C0208A
:100FF00010F8000000070424243F240000F80888AB
:10100000880808000019212020110E0000E0108837
:1010100088180000000F112020110E000038080869
:10102000C83808000000003F000000000070880879
:1010300008887000001C222121221C0000E01008FA
:101040000810E0000000312222110F00000000C053
:10105000C0000000000000303000000000000080F0
:1010600000000000000080600000000000008040E0
:1010700020100800000102040810200040404040F9
:10108000404040000404040404040400000810204C
:101090004080000000201008040201000070480891
:1010A0000808F0000000003036010000C030C828F9
:1010B000E810E0000718272423140B000000C038B4
:1010C000E0000000203C23020227382008F888882E
:1010D00088700000203F202020110E00C03008083A
:1010E00008083800071820202010080008F8080811
:1010F0000810E000203F202020100F0008F888880A
:10110000E8081000203F20202320180008F88888D5
:10111000E8081000203F200003000000C03008084D
:101120000838000007182020221E020008F80800D6
:101130000008F808203F210101213F20000808F89D
:10114000080800000020203F2020000000000808C0
:10115000F8080800C08080807F00000008F888C080
:1011600028180800203F20012638200008F8080031
:1011700000000000203F20202020300008F8F80068
:10118000F8F80800203F003F003F200008F830C07A
:101190000008F808203F200007183F00E01008086A
:1011A0000810E0000F10202020100F0008F8080899
:1011B0000808F000203F210101010000E0100808AC
:1011C0000810E0000F18242438504F0008F88888D1
:1011D00088887000203F2000030C302000708808B1
:1011E000080838000038202121221C00180808F8BF
:1011F000080818000000203F2000000008F8080040
:101200000008F808001F202020201F000878880010
:1012100000C83808000007380E010000F80800F880
:101220000008F800033C0700073C0300081868802A
:101230008068180820302C03032C30200838C800A0
:10124000C83808000000203F2000000010080808EF
:10125000C83808002038262120201800000000FE91
:10126000020202000000007F40404000000C30C03D
:1012700000000000000000010638C0000002020269
:10128000FE000000004040407F000000000004021B
:101290000202040000000000000000000000000046
:1012A0000000000080808080808080800002020436
:1012B000000000000000000000000000000080802E
:1012C000808000000019242222223F2008F800809C
:1012D00080000000003F112020110E00000000805F
:1012E00080800000000E11202020110000000080EE
:1012F0008088F800000E112020103F200000808020
:1013000080800000001F222222221300008080F033
:10131000888888180020203F20200000000080805E
:1013200080808000006B94949493600008F80080A3
:1013300080800000203F210000203F2000809898FE
:10134000000000000020203F20200000000000805E
:101350009898000000C08080807F000008F800009E
:1013600080808000203F24022D302000000808F8F3
:10137000000000000020203F2020000080808080AE
:1013800080808000203F20003F20003F8080008040
:1013900080800000203F210000203F20000080804E
:1013A00080800000001F202020201F0080800080FF
:1013B0008000000080FFA12020110E0000000080AE
:1013C00080808000000E112020A0FF80808080009F
:1013D0008080800020203F212000010000008080CC
:1013E000808080000033242424241900008080E0C1
:1013F000808000000000001F20200000808000008E
:1014000000808000001F202020103F20808080006E
:101410000080808000010E3008060100808000807E
:10142000008080800F300C030C300F0000808000A3
:10143000808080000020312E0E31200080808000CE
:101440000080808080818E7018060100008080807E
:10145000808080000021302C22213000000000001C
:10146000807C020200000000003F404000000000BD
:10147000FF00000000000000FF0000000002027CEE
:10148000800000000040403F000000000006010115
:10149000020204040000000000000000BC14000868
:1014A000000000201C02000048010008641500082C
:1014B0001C020020DC040000E20C0008412D0102A7
:1014C00003040460090607080902040608251060E1
:1014D000028C2BFE92010213FE180A04047E0140C6
:1014E0007E42427E020413427E402809FC242424CA
:1014F000FC2526240802110400101140308F80843E
:101500004C55252525554C8080803980497F091709
:1015100080080B504448507F40407F504844800131
:1015200022033E36361A3001011A2809060909E657
:10153000F80C0402010315041E2E071F3020400181
:1015400003122010100860F0080808F8F005168053
:10155000403008170121110C02010E121E21212119
:0415600033610000F3
:04000005080000ED02
:00000001FF
