:020000040800F2
:10000000280400209D010008D30B0008370B0008CE
:10001000D10B0008A9020008B10C00080000000084
:10002000000000000000000000000000D70B0008E6
:10003000AB02000800000000D50B0008D90B000837
:10004000B50C0008B7010008B7010008B7010008A7
:10005000B7010008B7010008B7010008B7010008A0
:10006000B7010008B7010008B7010008B701000890
:10007000B7010008B7010008B7010008B701000880
:10008000B7010008B7010008B7010008B701000870
:10009000B7010008B7010008B7010008B701000860
:1000A000B7010008B7010008B7010008B701000850
:1000B000B7010008B7010008B7010008B701000840
:1000C000B7010008B7010008B7010008B701000830
:1000D000B7010008B7010008B7010008B701000820
:1000E000B7010008B7010008B7010008B701000810
:1000F000B7010008B7010008B7010008B701000800
:10010000B7010008B7010008B7010008B7010008EF
:10011000B7010008B7010008B7010008B7010008DF
:10012000B7010008B7010008B7010008B7010008CF
:10013000B7010008B7010008B7010008B7010008BF
:10014000B7010008B7010008B7010008B7010008AF
:10015000B7010008B7010008B7010008B70100089F
:10016000B7010008B7010008B7010008B70100088F
:10017000B7010008B7010008B7010008000000003F
:10018000B7010008B7010008DFF80CD000F07AF8DA
:1001900000480047FF0C000828040020064880475C
:1001A00006480047FEE7FEE7FEE7FEE7FEE7FEE75C
:1001B000FEE7FEE7FEE7FEE75D0C000889010008A8
:1001C0002DE9F05F0546002092469B46884606468C
:1001D000814640241BE0284641464746224600F01F
:1001E00041F853465A46C01A914110D31146184659
:1001F000224600F028F82D1A67EB01084F462246E8
:100200000120002100F01FF817EB00094E41201ECD
:10021000A4F10104DFDC484631462A464346BDE8E6
:10022000F09FD2B201E000F8012B491EFBD27047CB
:100230000022F6E710B513460A4604461946FFF7B2
:10024000F0FF204610BD202A04DB203A00FA02F11C
:10025000002070479140C2F1200320FA03F31943B4
:1002600090407047202A04DB203A21FA02F0002156
:10027000704721FA02F3D040C2F1200291400843B6
:1002800019467047064C074D06E0E06840F0010350
:1002900094E8070098471034AC42F6D3FFF778FF94
:1002A000200D0008400D0008FEE770477047000071
:1002B0002DE9F84FDFF87CB100224FF001084FF034
:1002C000030A4FF00F090BF1040E00BF0B6808FA88
:1002D00002F42340A3426ED14D68022D01D0122DAD
:1002E0000ED1D50800EB850CDCF820505607F70E30
:1002F00009FA07F6B5430E69BE402E43CCF82060DC
:10030000066855000F790AFA05FC07F0030726EA8C
:100310000C06AF40374307604E68012E05D0022E11
:1003200003D0112E01D0122E0ED18668CF6826EA96
:100330000C06AF40374387604668A6430C79C4F388
:100340000014944034434460C6688C6826EA0C0666
:10035000AC403443C4604C68E40065D5364C256835
:1003600045F480452560246822F0030504F48044A8
:100370000094324C2E19D6F8084895072F0F09FA29
:1003800007F5AC432E4DA84201D1002524E02D4DA8
:10039000A84201D101251FE02B4DA84201D1022521
:1003A0001AE02A4DA84201D1032515E0284DA842A4
:1003B00002D1042510E037E0264DA84201D10525E1
:1003C0000AE0254DA84201D1062505E0234DA842AB
:1003D00001D1072500E00825BD402543C6F808588F
:1003E000DBF800405D464E689C43F60300D51C4395
:1003F0002C60DEF8004075464E689C43B60300D57D
:100400001C432C600B4D08352C684E689C43F6024B
:1004100000D51C432C60074D0C352C684E689C435E
:10042000B60200D51C432C60521C102AFFF44EAFBC
:10043000BDE8F88F003C01404438024000300140E4
:10044000000002400004024000080240000C02408C
:10045000001002400014024000180240001C02403C
:10046000426931EA020200D10904816170470AB190
:10047000816170470904FBE701488068704700000C
:1004800000000020024881680278114481607047B2
:10049000000000200B4810B5016841F400710160B4
:1004A000016841F480610160016841F4807101607C
:1004B000032000F06FF8002000F006F800F024F8A8
:1004C000002010BD003C024070B50D4D04464FF4B5
:1004D0007A712878B1FBF0F00A490968B1FBF0F0B5
:1004E00000F0C0FA48B9102C07D200222146501E55
:1004F00000F030F800206C6070BD012070BD00007D
:10050000000000200C0000200A4808B5016841F4F2
:1005100080410160006800F4804000900548001FA1
:10052000016841F080510160006800F08050009047
:1005300008BD000044380240002809DB00F01F021B
:10054000012191404009800000F1E020C0F8001135
:1005500070470000F0B40E4B1B680C46C3F3022337
:10056000C3F10705042D00D90425191D072901D25F
:10057000002300E0DB1E012606FA05F1491E21409A
:1005800099409E40761E16403143F0BC00F098BB67
:100590000CED00E0064900F0070208684FF6FF0383
:1005A000184040EA0220034A1043086070470000E8
:1005B0000CED00E00000FA052DE9F0470E460500BD
:1005C00065D0DFF81481D8F80000F7B200F00F0012
:1005D000B04207D288F80070D8F8000000F00F0091
:1005E000B04254D128683D4C810712D5400703D54D
:1005F000206840F4E05020602878000703D5206888
:1006000040F4604020602068A96820F0F0000843B2
:1006100020602878C0072DD0304968680839012843
:1006200012D0022813D0032811D0096889070029A5
:100630002DDA216821F0030101432160FFF71CFF3F
:10064000814641F2883A0EE009688903EFE70968BC
:100650008901ECE7FFF710FFA0EB0901514502D932
:100660000320BDE8F0872068696800F00C00B0EB5B
:10067000810FEFD1D8F80010404601F00F01B142D0
:1006800007D90770006800F00F00B04201D00120C8
:10069000E7E72878400705D52068E96820F4E050AE
:1006A000084320602878000706D52068296920F4CF
:1006B000604040EAC100206000F016F82168084A56
:1006C000C1F30311515CC840064908600020FFF7E0
:1006D000FBFE0020C5E70000003C02400838024055
:1006E000100D00080C000020154810B5006810F02F
:1006F0000C02144813D04110042A0FD0082A0ED13E
:100700000F4C241F2268236802F03F025B0207D5CA
:100710002068C0F38810A0FB010106E0084610BD68
:100720002168C1F38811A1FB00010023FFF748FDF8
:100730002168C1F30141491C4900B0FBF1F010BD33
:10074000083802400024F4002DE9F84F050076D067
:100750002878DFF8F8B2BE4CC00749D0DBF80010AB
:100760005846C1F38101012908D00068C0F3810017
:1007700002280AD1201D0068400206D520688003A7
:1007800036D568680028E2D032E06868B0F5803F6E
:1007900010D0B0F5A02F206810D020F48030206059
:1007A000206820F4802020606868A0B1FFF764FE14
:1007B00006460CE0206840F48030F4E740F48020E6
:1007C0002060F7E7FFF758FE801B642873D8206885
:1007D0008003F7D50CE0FFF74FFE064605E000BFAB
:1007E000FFF74AFE801B6428F0D820688003F7D406
:1007F0002878DFF8608280074FF000093ED5DBF8EB
:100800000010584611F00C0F09D00068C0F38100A9
:1008100002280BD18D48001F0068400206D42068D2
:10082000800715D5E868012809D111E0E868B8B15A
:100830000120C8F80000FFF71FFE064605E002E1B0
:10084000FFF71AFE801B0228C0D820688007F7D562
:100850002068296920F0F80040EAC10020600DE01E
:10086000C8F80090FFF708FE064604E0FFF704FE14
:10087000801B02281FD820688007F7D4287800073B
:1008800022D5724E744869696C3671B101210160DC
:10089000FFF7F2FD074604E0FFF7EEFDC01B02285C
:1008A00009D830688007F7D50EE0C0F80090FFF750
:1008B000E3FD074605E083E0FFF7DEFDC01B0228ED
:1008C0007ED830688007F7D42878400768D5DFF8ED
:1008D0007CA100270AF1380ADAF80000C0000BD426
:1008E000DAF8001041F08051CAF80010DAF8000080
:1008F000012700F080500090584E3068C00510D499
:10090000306840F480703060FFF7B6FD009005E07D
:10091000FFF7B2FD0099401A022851D83068C0058F
:10092000F6D54A4EA868683601280FD005283068E9
:1009300010D020F001003060306820F004003060FA
:10094000A868B8B1FFF798FD00900FE0306840F05C
:100950000100F4E740F004003060F7E7FFF78CFD9A
:100960000099411A41F28830814264D8306880078A
:10097000F4D50EE0FFF780FD009007E0FFF77CFD67
:100980000099411A41F28830814254D8306880077A
:10099000F4D42FB1DAF8001021F08051CAF8001019
:1009A000A869C0B3DBF80010C1F3810102294AD065
:1009B0000228484607D0C8F86000FFF75DFD00E058
:1009C00039E005463AE04746C8F86000FFF754FDB5
:1009D000064604E0FFF750FD801B02282BD8206854
:1009E0008001F7D4D5E907010843A96A1C4A4908E0
:1009F00002EB01416A6A41EA8211084395F82C1022
:100A000040EA01611148001F016001203866FFF7CC
:100A100033FD054605E014E0FFF72EFD401B0228DC
:100A200009D820688001F7D50BE000BFFFF724FD4F
:100A3000401B022802D90320BDE8F88F20688001FE
:100A4000F4D40020F8E70120F6E70000083802405F
:100A50000038024000004742800E474200700040CC
:100A60000000FFFF10B5401EB0F1807F01D30120D0
:100A700010BD4FF0E02460610F21601700F020F9F5
:100A80000020A06107202061002010BD10B50446A1
:100A90004FF400410348FFF7E3FC2046BDE8104057
:100AA00000F044B80010024010B501684A68D24313
:100AB000920507D48A68D243D20703D1921E8A6076
:100AC000FFF7E4FF10BD10B504000FD000F010F8E0
:100AD000E068216840F08000086061682069084390
:100AE000A168084321684860002010BD012010BDA6
:100AF00008B500680B49884212D10B48016841F4DF
:100B0000006101600068002200F40060009011465E
:100B10001046FFF71FFDBDE808400020FFF70CBDA1
:100B200008BD0000002C004040380240C168006849
:100B3000016000207047FEE770B586B0142168465A
:100B4000FFF776FB12480024016841F08001016044
:100B5000016801F080010591016841F01001016018
:100B600000680C4E00F010004FF40045059022463E
:100B700029463046FFF77BFC01200095CDE90104B2
:100B8000694630460394FFF793FB06B070BD000042
:100B900030380240001002400C4810B50A4901608C
:100BA0004FF4C07141605F2181607F21C1604FF4CB
:100BB00000710161FFF787FF002803D0BDE81040F6
:100BC000FFF774BB10BD0000002C00401000002097
:100BD000FEE7704770477047FFF754BC30B593B0DD
:100BE00030216846FFF724FB14210CA8FFF720FBF7
:100BF00018480025016841F080510160006800F04C
:100C0000805011901448016841F4804101600068EF
:100C1000022400F480401190012000900004019013
:100C20008001CDE9064008AA0420482182E813008B
:100C30000B906846FFF788FD0CA90F2081E8310072
:100C4000E002CDE90F0502210CA8FFF7B5FC13B0B7
:100C500030BD00004038024000700040104801687C
:100C600041F4700101600F48016841F00101016029
:100C70000C4A00210832116002680B4B1A400260D6
:100C8000031D0A4A1A60026822F4802202600548A5
:100C90000C30016002495806803908607047000036
:100CA00088ED00E000380240FFFFF6FE103000241F
:100CB000FEE700000148FFF7F7BE0000100000202B
:100CC0000907090E002804DB00F1E02080F8001479
:100CD000704700F00F0000F1E02080F8141D70470D
:100CE00002E008C8121F08C1002AFAD170477047F5
:100CF000002001E001C1121F002AFBD17047FFF75D
:100D0000C9FBFFF76BFFFFF717FFFFF745FFFEE794
:100D100000000000000000000102030406070809AB
:100D2000400D00080000002010000000E00C00084A
:100D3000500D00081000002018040000F00C0008FE
:100D40000100000010000000000000000024F4007A
:040000050800018965
:00000001FF
