:020000040800F2
:1000000068040020450100080B1300086B1100086C
:1000100009130008DD010008F916000800000000BF
:100020000000000000000000000000002315000890
:10003000DF010008000000000D130008251500086E
:100040005F0100085F0100085F0100085F01000810
:100050005F0100085F0100085F0100085F01000800
:100060005F0100085F0100085F0100085F010008F0
:100070005F0100085F0100085F0100085F010008E0
:100080005F0100085F0100085F0100085F010008D0
:100090005F0100085F0100085F0100085F010008C0
:1000A0005F0100085F0100085F0100085F010008B0
:1000B0005F0100085F0100085F0100085F010008A0
:1000C0005F0100085F0100085F0100085F01000890
:1000D0005F0100085F0100085F0100085F01000880
:1000E0005F0100085F0100085F0100085F01000870
:1000F0005F0100085F0100085F0100085F01000860
:100100005F0100085F0100085F0100085F0100084F
:100110005F0100085F0100085F0100085F0100083F
:100120005F0100085F0100085F0100085F0100082F
:10013000DFF80CD000F040F800480047BD1A000876
:10014000680400200648804706480047FEE7FEE7AF
:10015000FEE7FEE7FEE7FEE7FEE7FEE7FEE7FEE777
:100160009515000831010008D2B201E000F8012B1A
:10017000491EFBD270470022F6E710B513460A4627
:1001800004461946FFF7F0FF204610BD30B50B4678
:10019000014600202022012409E021FA02F59D42B7
:1001A00005D303FA02F5491B04FA02F52844151E8B
:1001B000A2F10102F1DC30BD064C074D06E0E0681B
:1001C00040F0010394E8070098471034AC42F6D39E
:1001D000FFF7B2FF681B0008881B0008FEE77047A6
:1001E0007047000070B5044600F00AF90546601C2F
:1001F00002D004480078044400F002F9401BA042F9
:10020000FAD370BD000000202DE9F84FDFF8C89147
:10021000002409F1040A0AF1040B23460F270BF10D
:10022000040ED1E00125A54006EA0502AA4276D1D6
:10023000DFF8A8C14E68A6EB0C0866452BD00DDC94
:10024000032E34D005DC36B3012E19D0022E2FD167
:100250001BE0112E16D0122E2AD119E0B8F5881FF6
:1002600019D006DCB8F5803F15D0B8F5801F1FD136
:1002700011E0B8F5001F0ED0B8F5041F18D10AE040
:10028000CB6815E0CB681B1D12E0CB6808330FE08C
:10029000CB680C330CE08B682BB1012B4FF00803BB
:1002A00003D0456104E0042302E0056100E000237F
:1002B000FF2A01D8064601E000F104064FEA840552
:1002C00001D9A5F12005D6F8008007FA05FC28EA37
:1002D0000C0803FA05F548EA0508C6F800804D68E1
:1002E000ED0070D53E4DAE6946F00106AE61AD69D8
:1002F00024F0030605F0010500953A4D06EB050CC8
:10030000DCF80850A607360F07FA06F825EA0805B4
:10031000DFF8D480404503D14FF0000825E052E0DB
:10032000DFF8C880404502D14FF001081DE0DFF83A
:10033000C080404502D14FF0020816E0DFF8B480DB
:10034000404502D14FF003080FE0DFF8AC80404594
:1003500002D14FF0040808E0DFF8A080404502D148
:100360004FF0050801E04FF0060808FA06F848EAE1
:100370000508CCF808804D68D9F80060ED034D46BB
:1003800001D5164300E096432E604D68DAF8006010
:10039000AD03554601D5164300E096432E604D68E7
:1003A000DBF80060ED025D4601D5164300E09643A0
:1003B0002E604D68DEF80060AD02754601D516432B
:1003C00000E096432E60641C0A681646E2407FF403
:1003D00029AFBDE8F88F00000004014000001110B3
:1003E000001002400000014000080140000C0140E4
:1003F000001001400014014000180140001C0140A1
:1004000001488068704700000000002002488168B1
:10041000027811448160704700000020074810B541
:10042000016841F010010160032000F067F800202E
:1004300000F006F800F024F8002010BD0020024073
:1004400070B50D4D04464FF47A712878B1FBF0F089
:100450000A490968B1FBF0F000F0ADFD48B9102C75
:1004600007D200222146501E00F028F800206C60C0
:1004700070BD012070BD0000000000200C000020B5
:100480000C4808B5816941F001018161816901F081
:1004900001010091C16941F08051C161C06900F062
:1004A000805000900448416821F0E06141F0806193
:1004B000416008BD0010024000000140F0B40E4B46
:1004C0001B680C46C3F30223C3F10705042D00D9B2
:1004D0000425191D072901D2002300E0DB1E012697
:1004E00006FA05F1491E214099409E40761E1640AD
:1004F0003143F0BC01F012B90CED00E0064900F008
:10050000070208684FF6FF03184040EA0220034A3A
:1005100010430860704700000CED00E00000FA0591
:10052000014901200862704700000E4210B52CA45A
:1005300001461DCC86B08DE81D002DA02D4C006815
:100540000490002004292FD00BDC01292FD0022990
:1005500028D100F077F96168C1F38131491C490065
:100560001EE0082920D010291CD161682268D20120
:1005700018D5C1F38342C9031DF8020009D561688B
:1005800004AAC1F34041515C1B4AB2FBF1F148435C
:1005900001E01A4948436168490203D4400003213D
:1005A000B0FBF1F006B010BD00F05CF9FAE7226A8A
:1005B000C2F30121012903D1920701D5C803F1E754
:1005C000022905D1626A920702D549F64040E9E75F
:1005D0000329E7D121688903E4D54FF22440E1E7FC
:1005E00002030405060708090A0B0C0D0E0F101074
:1005F000010200000010024000127A0000093D00D4
:100600002DE9F84305460078354CC00754D0E06921
:100610000026C00008D4E06940F08050E061E06945
:10062000012600F0805000902E480168C90512D4C0
:100630000168804641F480710160FFF7E1FE0746E2
:1006400005E000BFFFF7DCFEC01B642823D8D8F804
:100650000000C005F6D5206A10F4407021D0A988AA
:1006600001F4407181421CD0206A1F49012220F40C
:1006700040700A6000220A602062C00711D0FFF7B4
:10068000BFFE074641F2883808E000BFFFF7B8FE1A
:10069000C11B414502D90320BDE8F883206A8007C9
:1006A000F4D5206A696820F44070084320621EB1C6
:1006B000E06920F08050E0612878800705D5606807
:1006C000A96820F44040084360602878C00605D53A
:1006D0006068696920F48000084360600020DBE7FF
:1006E0000010024000700040400442422DE9F047F3
:1006F0000F46050061D0434E306800F00700B84255
:1007000009D2306820F0070038433060306800F0CC
:100710000700B84251D128683B4C810712D54007E9
:1007200003D5606840F4E06060602878000703D576
:10073000606840F4605060606068A96820F0F00074
:10074000084360602878C00728D06868012810D066
:100750002168022810D0890700292EDA616821F06B
:10076000030101436160FFF74BFE804641F2883987
:100770000DE021688903EFE78901EDE7FFF740FE0F
:10078000A0EB0801494502D90320BDE8F087606865
:10079000696800F00C00B0EB810FEFD1306800F019
:1007A0000700B8420BD9306820F0070038433060AA
:1007B000306800F00700B84201D00120E5E7287852
:1007C000400705D56068E96820F4E0600843606090
:1007D0002878000706D56068296920F4605040EA4F
:1007E000C100606000F03EF86168084AC1F303117F
:1007F000515CC8400649086006480068FFF720FEC3
:100800000020C2E70020024000100240501B0008F8
:100810000C0000200400002001490120C86470473A
:10082000000042420448054900684968044AC1F38F
:100830000221515CC84070470C00002000100240AB
:10084000601B00080448054900684968044AC1F370
:10085000C221515CC84070470C00002000100240CB
:10086000601B000812A185B00FC98DE80F0014A00D
:10087000144A006804905168134801F00C03042BDB
:1008800010D0082B0ED1C1F38343C9031DF8030018
:100890000AD5516804AAC1F34041515C0A4A504349
:1008A000B0FBF1F005B0704708494843FAE7000093
:1008B00002030405060708090A0B0C0D0E0F1010A1
:1008C000010200000010024000127A0000093D0001
:1008D0002DE9F84F040070D02078C04DC00749D0F2
:1008E0006868C0F38100012807D06868C0F3810000
:1008F000022809D16868C00306D52868800339D565
:1009000060680028E7D035E06068B0F5803F0BD024
:1009100010B1B0F5A02F11D0286820F480302860E5
:10092000286820F4802002E0286840F480302860A5
:10093000606890B1FFF764FD06460AE0286840F45D
:1009400080202860F0E700BFFFF75AFD801B642875
:1009500073D828688003F7D50CE0FFF751FD0646F1
:1009600005E000BFFFF74CFD801B6428F0D8286825
:100970008003F7D420789A4E80074FF001094FF09A
:10098000000839D5686810F00C0F07D06868C0F30C
:100990008100022809D16868C00306D4286880074E
:1009A00014D52069012808D110E02069B0B1C6F83B
:1009B0000090FFF725FD074605E00AE1FFF720FD5F
:1009C000C01B0228C4D828688007F7D52868616949
:1009D00020F0F80040EAC10028600DE0C6F8008071
:1009E000FFF70EFD074604E0FFF70AFDC01B0228D3
:1009F00023D828688007F7D4207800072CD57948B9
:100A0000A169D9B1C0F80090FFF7FAFC074604E0ED
:100A1000FFF7F6FCC01B02280FD8686A8007F7D5DD
:100A200071484FF4FA510068B0FBF1F0009000BF3C
:100A30000098411E0091FAD20EE080E0C0F80080DC
:100A4000FFF7DEFC074604E0FFF7DAFCC01B0228D4
:100A500075D8686A8007F7D42078400760D5E869C0
:100A60000027C00008D4E86940F08050E861E869D8
:100A7000012700F0805000905C480168C90513D43C
:100A80000168834641F480710160FFF7B9FC82463A
:100A900006E000BFFFF7B4FCA0EB0A0064284ED8C4
:100AA000DBF80000C005F5D5E06801280AD008B1E0
:100AB000052813D0286A20F001002862286A20F057
:100AC000040002E0286A40F001002862E06841F278
:100AD000883B98B1FFF794FC82460BE0286A40F00F
:100AE00004002862EEE700BFFFF78AFCA0EB0A01D2
:100AF00059455AD8286A8007F6D50CE0FFF780FCE4
:100B0000824605E0FFF77CFCA0EB0A0159454CD872
:100B1000286A8007F6D41FB1E86920F08050E861A8
:100B2000E06988B36968C1F38101022944D00228D1
:100B3000C6F8608004D0FFF763FC044638E034E078
:100B4000FFF75EFC074604E0FFF75AFCC01B0228D3
:100B50002BD828688001F7D4206AB0F5803F05D1F2
:100B60006868A16820F4003008436860D4E908018F
:100B70000843696821F4741108436860C6F86090FE
:100B8000FFF73EFC044606E025E000BFFFF738FC17
:100B9000001B022809D828688001F7D51BE000BF98
:100BA000FFF72EFC001B022802D90320BDE8F88FB6
:100BB00028688001F4D40EE00128F7D06868226A22
:100BC00000F48031914204D1616A00F470108842CF
:100BD00001D00120EAE70020E8E700000010024011
:100BE00000004242800442420C000020007000409D
:100BF000024850F8210080B270470000006C0040AD
:100C0000024800EB810091B201607047006C004027
:100C1000F8B505004FF0000016460C46009006D0CF
:100C20002CB100226946284600F019F808B10120CD
:100C3000F8BD287B2070E87BE070697B6170A97B40
:100C4000A17056B100F06CFBE070607800F068FBBA
:100C50006070A07800F064FBA0700020F8BD2DE962
:100C6000F04791460C465FEA00084AD084B3D8F8B2
:100C700000004068400744D4404600F0EFFB4FF4CA
:100C800061620546B0FBF2F1B0FBF2F302FB1350D8
:100C90003C23B0FBF3F0B5FBF2F6607002FB16509C
:100CA000B0FBF3F203FB1200A070182931D3182017
:100CB000B1FBF0F7B1FBF0F200FB121020704046E0
:100CC00000F0C5FB411C04D0A84202D9461B02E03B
:100CD00017E04FF0FF36A7EB071000EB4000C0EB2A
:100CE000001005EBC0152946404600F006FC40B94F
:100CF000701C01D0711900E03146404600F0E9FB5C
:100D000010B10120BDE8F0873946404600F013FBE2
:100D100000E02170B9F1000F0BD0207800F000FB4B
:100D20002070607800F0FCFA6070A07800F0F8FAAB
:100D3000A0700020E6E7000070B5040003D0607CDE
:100D4000002610B105E0012070BD2674204600F099
:100D500043F802206074204600F010F9042578BBA7
:100D6000204600F03FFB58BB2068416821F0070196
:100D70004160A06820B11748016821F001010160BD
:100D80001448001F0168A26821F4607111430160DA
:100D90006068411C04D10120FFF7C8FB80B1401EF0
:100DA00021688A6822F00F0242EA10428A602168B4
:100DB000CA6860F30F02CA60204600F02DFB08B13C
:100DC0006574C0E7E67301206073A073607400204F
:100DD00070BD0000306C004008B5006808498842CA
:100DE0000DD1FFF79DFB0748C16941F00061C1616A
:100DF000C069054900F0006000900120086008BD4E
:100E000000280040001002403C0442422DE9F0411D
:100E10000D4604003BD0C5B3207C01283AD04FF0EA
:100E2000010884F8108002206074E87872B300F042
:100E30006EFAE073687800F06AFA6073A87800F0E0
:100E400066FAA073C2B2617BE07B00F017FB2073EF
:100E50002870204600F002FB4FF46161B0FBF1F115
:100E6000002518292DD91822B1FBF2F1A1EB0111AF
:100E700001EB4101C1EB011100EBC11631462046E7
:100E800000F03BFB0427C8B90BE000E004E00120C0
:100E9000BDE8F0810220FBE7E07368786073A87812
:100EA000CFE7204600F0D3FA411C0AD0B04208D266
:100EB00006490144204600F00CFB10B1677425740C
:100EC000E5E784F8118025740020E1E780510100F6
:100ED0002DE9F0410D46040024D01DB3207C0128EB
:100EE00023D04FF0010884F8108002206074287825
:100EF000EAB100F00CFA4FF4616100FB01F668788A
:100F000000F005FAC0EB001006EB8006A87800F0B0
:100F1000FEF935182946204600F0EFFA002604278E
:100F200010BB0FE00120BDE8F0810220FBE74FF489
:100F3000616148436978C1EB011100EB8100A97838
:100F40004518E7E72068416821F005014160204627
:100F500000F07DFA411C0AD0A84208D2064901449B
:100F6000204600F0B6FA10B167742674DAE784F808
:100F7000118026740020D6E78051010070B504006E
:100F80000AD02068416821F008014160FFF738FA73
:100F900005464FF47A7608E0012070BDFFF730FA7D
:100FA000401BB04201D9032070BD20684068000793
:100FB000F4D5002070BD10B5401EB0F1807F01D384
:100FC000012010BD4FF0E02460610F21601700F098
:100FD000A5FB0020A06107202061002010BD70B596
:100FE000040004D094F83900002510B106E0012077
:100FF00070BD84F83850204600F022F8242084F890
:1010000039002068C16821F40051C160204600F019
:10101000E5FA2068016921F4904101612068416985
:1010200021F02A0141612068C16841F40051C1608A
:10103000E563202084F8390084F83A00002070BD70
:1010400030B585B0002400940194029403940068A4
:101050001449884224D11448816941F48041816156
:10106000816901F480410491816941F00401816149
:1010700080690E4D00F0040004904FF40070009061
:10108000022001900320039069462846FFF7BCF830
:101090002815CDE90004694628460294FFF7B4F804
:1010A00005B030BD0038014000100240000801408A
:1010B0002DE9F843044690F839001F4616460D46C0
:1010C000202850D1A5B19EB194F8380001284AD00B
:1010D000012084F838004FF00008C4F83C8021203B
:1010E00084F83900FFF78CF9A6848146E68426E06F
:1010F0000120BDE8F883E08C401EE084A0684B46E8
:10110000B0F5805F4FF000024FF08001204600975D
:1011100003D000F0BFFAE8B90DE000F0BBFAC8B99F
:1011200028882168C0F308004860206908B16D1C58
:1011300005E0AD1C03E0216815F8010B4860E08C68
:101140000028D8D14B46002240212046009700F0CD
:10115000A1FA08B10320CCE7202084F8390084F8F4
:1011600038800020C5E70220C3E7FEE7094808B53C
:10117000816941F010018161816901F010010091E4
:10118000816941F004018161806900F004000090F0
:1011900008BD000000100240FEB500264948019637
:1011A0000096C16941F00061C161C16901F000614F
:1011B0000291C16941F08051C161C069434D00F0A5
:1011C0008050029040482860701EC5E901062846FC
:1011D000FFF7B2FD08B1FFF703F801213B48FFF725
:1011E00007FD45F25107B84245D014208DF80400A0
:1011F00030208DF805008DF80660012201A93348E2
:10120000FFF766FE08B1FEF7EBFF06208DF8000041
:1012100004208DF8010025208DF8020020208DF893
:101220000300012269462948FFF7F0FD08B1FEF7E7
:10123000D7FF2868016841F0010101603A460121A9
:101240002248009CFFF7DCFC220E02211F48FFF71A
:10125000D7FCC4F3072203211C48FFF7D1FCC4F3D9
:10126000074204211948FFF7CBFCE2B205211748D9
:10127000FFF7C6FCFEBD02211448FFF7B9FC60F37E
:101280001F6403211148FFF7B3FC60F30F2404210E
:101290000E48FFF7ADFC60F3174405210B48FFF73C
:1012A000A7FC60F307040022694608480094FFF792
:1012B000ADFD08B1FEF794FF2868016841F0010117
:1012C0000160FEBD00100240002800401400002014
:1012D0000C4810B50A4901604FF4E131416000212A
:1012E00081600C22C160C0E904128161C161FFF715
:1012F00076FE002803D0BDE81040FEF771BF10BD98
:101300000038014028000020FEE7704770470109BF
:1013100001EB810100F00F0000EB4100C0B270470B
:10132000002102E00A38C0B2491C0A28FAD2090793
:1013300040EA116070472DE9F04104460025C07B6A
:10134000627BA37B42E0012A16D0032A14D0052A2F
:1013500012D0072A10D0082A0ED00A2A0CD00C2A44
:101360000AD0042A10D0062A0ED0092A0CD00B2A43
:101370000AD0022A0DD028E01F2B0CD30C2A05D14D
:1013800001221346401C20E01E2B04D30123521CD3
:101390001BE01C2B02D203F1010316E011D183B232
:1013A0009E0710D16426B3FBF6F706FB173636B955
:1013B0004FF4C876B3FBF6F706FB17331BB91D23B2
:1013C00003E01D2B01D1032201236D1C8D42BAD3F2
:1013D000D1B2E0736173DAB2A27300F04FF82073F8
:1013E000BDE8F08170B50446FFF70AF805464FF4F2
:1013F0007A7606E0FFF704F8401BB04201D90320DB
:1014000070BD206840688006F4D52068416841F0CE
:1014100010014160002070BD70B50446006841684D
:1014200021F010014160FEF7EBFF05464FF47A769C
:1014300007E000BFFEF7E4FF401BB04201D90320E4
:1014400070BD206840688006F4D5002070BD01683A
:10145000086A496A89B241EA0040704700688169B8
:101460008AB2C1698BB2816989B28A4203D0C069EC
:1014700061F31F40704743EA02407047F0B56424AF
:10148000C1EBC1030927A500072603EB01130329BC
:10149000B3FBF7F100F5FA60114401440AD2401E93
:1014A000B0FBF4F201EB9001B0FBF5F0891A0844AF
:1014B000001D08E0B0FBF4F201EB9001B0FBF5F089
:1014C000891A0844801CB0FBF6F106FB1100C0B27B
:1014D000F0BD70B50D4606460024FFF783FF48B9FE
:1014E0003168280C08623168A8B248623046FFF7BC
:1014F00093FF00B10124204670BD70B50D4606462D
:101500000024FFF76FFF48B93168280C8861316803
:10151000A8B2C8613046FFF77FFF00B10124204622
:1015200070BD7047FEF772BF70B596B0282168464F
:10153000FEF721FE14210AA8FEF71DFE18210FA8B0
:10154000FEF719FE0520009001A94FF48030002419
:10155000012581E8310002260495CDE907604FF4AA
:10156000E01009906846FFF7B3F90F20CDE90A06AD
:10157000A802CDE90C4002210AA80E94FFF7B6F8A4
:101580002802CDE90F500FA8FFF73AF8FFF744F90A
:1015900016B070BD0D48016841F00101016041685D
:1015A0000B4A1140416001680A4A1140016001681C
:1015B00021F480210160416821F4FE0141604FF473
:1015C0001F0181600449C003086070470010024099
:1015D0000000FFF8FFFFF6FE08ED00E02DE9F04106
:1015E000044600680169E26821F440511143016139
:1015F0002169A0680843616908432168CA6841F20B
:101600000C639A430243CA6020684169A26921F4CD
:101610004071114341611E49206864253226884289
:1016200002D1FFF70FF901E0FFF7FCF800EBC00172
:1016300001EB001160686FF018078000B1FBF0F259
:10164000B2FBF5F2B1FBF0F37A4303EB8202B1FB9C
:10165000F0F306EB0212B2FBF5F2B3FBF5F302F086
:10166000F00202EB0312B1FBF0F3B1FBF0F0B0FBC0
:10167000F5F0784303EB800006EB0010B0FBF5F0CB
:10168000216800F00F0010448860BDE8F081000080
:10169000003801402DE9F041984617460E460446B1
:1016A000069D1DE0681C1BD02DB1FEF7A9FEA0EB26
:1016B0000800A84214D92068C16821F4D071C16023
:1016C0002068416921F001014161202084F839003E
:1016D00084F83A00002084F838000320BDE8F08147
:1016E0002068006836EA000004D00020B842D9D053
:1016F0000020F3E70120F9E7FEE700000FB4054BF7
:1017000010B503A9044A029800F028F810BC5DF84F
:1017100014FB0000A11A0008100000200907090EA0
:10172000002804DB00F1E02080F80014704700F08E
:101730000F0000F1E02080F8141D704702E008C897
:10174000121F08C1002AFAD170477047002001E03B
:1017500001C1121F002AFBD1704700002DE9FF4F85
:101760008BB088460546002606E025280BD0DDE92B
:101770000D1290476D1C761C28780028F5D10FB00B
:101780003046BDE8F08F0024A146A2460122AE49B2
:1017900000E0044315F8013F203B02FA03F0084241
:1017A000F7D128782A2810D06FF02F022878A0F1DE
:1017B0003001092915D809EB890102EB410144F0F8
:1017C000020400EB01096D1CF0E758F8041B5FEA06
:1017D000010903D544F40054C9F1000944F002049E
:1017E0006D1C28782E2817D115F8010F44F0040439
:1017F0002A280ED06FF02F022878A0F13001092995
:101800000AD80AEB8A0102EB410100EB010A6D1CC8
:10181000F2E758F804AB6D1C28786C280FD006DC72
:101820004C2817D068280DD06A2814D104E07428F9
:1018300010D07A280FD10DE044F400140AE044F4EB
:10184000801401E044F440146978814202D104F527
:1018500080146D1C6D1C2878692865D006DC002872
:101860008DD0632827D0642806D15DE06E2808D08B
:1018700073282AD0752877D0DDE90D129047761CA1
:10188000E0E0C4F30250022809D003280DD0D8F8B4
:10189000001004280DD00E6008F10408D2E0D8F83A
:1018A0000010F217C1E90062F6E7D8F800100E80C8
:1018B000F2E70E70F0E718F8041B8DF80010002016
:1018C0008DF80100EB46012003E058F804BB4FF00F
:1018D000FF3061074FF0000701D40AE07F1C574535
:1018E0000DDA8742FADB1BF807100029F6D106E073
:1018F0007F1C8742FCDB1BF807100029F8D1DDE9CB
:101900000D23A9EB07008146214600F0B1F83044D1
:10191000C61904E0DDE90D121BF8010B90477F1E8C
:10192000F8D22146484688E058F8040BC4F3025127
:101930004FF00A0B032900D100B2042900D140B2B4
:10194000002802DA40422D2102E0210505D52B2195
:101950008DF82410012104E006E0E10710D02021D9
:10196000F6E708AF089113E058F8040BC4F30251EE
:101970004FF00A0B032900D180B2042900D1C0B274
:101980000021EEE75946FEF701FC303107F8011D52
:101990000028F7D1ADEB070000F1200B600702D55E
:1019A00024F4803401E04FF0010ADA4502DDAAEBAD
:1019B0000B0000E00020824600EB0B010898014478
:1019C000A9EB01000A90E00306D4DDE90D232146CE
:1019D0000A9800F04DF806444FF0000908E009A904
:1019E00011F80900DDE90D12904709F10109761C93
:1019F00008998945F3DBE0030CD5DDE90D23214689
:101A00000A9800F035F8064404E0DDE90D123020B4
:101A10009047761CBAF10001AAF1010AF5DC05E055
:101A2000DDE90D1217F8010B9047761CBBF10001A0
:101A3000ABF1010BF4DC0A982146DDE90D2300F03F
:101A400005F806446D1C97E6092801002DE9F041D0
:101A5000044600251E461746880404D405E039468E
:101A60002020B0476D1C641EF9D52846BDE8F081E2
:101A70002DE9F041044600251E469046C80301D5D5
:101A8000302700E02027880404D505E04146384689
:101A9000B0476D1C641EF9D52846BDE8F0810000F2
:101AA00038B504468DF80000022301226946024839
:101AB000FFF7FEFA204638BD280000201CB5FEF7CF
:101AC000ADFCFFF731FDFFF751FBFFF765FBFFF7BB
:101AD000FFFB4FF47A74002201A91148FFF7BFF809
:101AE000002269460E48FFF793F89DF803109DF811
:101AF00002309DF801200BA001F5FA61FFF7FEFD11
:101B00009DF806309DF805209DF804100AA0FFF707
:101B1000F5FD0EA0FFF7F2FD2046FEF763FBDAE7C6
:101B200014000020253032642F253032642F2530F8
:101B300032640D0A00000000253032643A2530324C
:101B4000643A253032640D0A000000000D0A0000DE
:101B5000000000000000000001020304060708095D
:101B60000000000001020304881B000800000020A0
:101B7000140000003C1700089C1B00081400002003
:101B8000540400004C170008010000001000000081
:0C1B9000000000000024F4000000000031
:0400000508000131BD
:00000001FF
