:020000040800F2
:100000001804002045010008A9080008A9020008FA
:10001000A50800088D0100089D0A000800000000E6
:10002000000000000000000000000000250900089A
:100030009101000800000000C1080008390A00080A
:100040005F0100085F0100085F0100085F01000810
:100050005F0100085F0100085F0100085F01000800
:100060005F0100085F0100085F0100085F010008F0
:100070005F0100085F0100085F0100085F010008E0
:100080005F0100085F0100085F0100085F010008D0
:100090005F0100085F0100085F0100085F010008C0
:1000A0005F0100085F0100085F0100085F010008B0
:1000B0005F0100085F0100085F0100085F010008A0
:1000C0005F0100085F0100085F0100085F01000890
:1000D0005F0100085F0100085F0100085F01000880
:1000E0005F0100085F0100085F0100085F01000870
:1000F0005F0100085F0100085F0100085F01000860
:100100005F0100085F0100085F0100085F0100084F
:100110005F0100085F0100085F0100085F0100083F
:100120005F0100085F0100085F0100085F0100082F
:10013000DFF80CD000F018F800480047510B000819
:10014000180400200648804706480047FEE7FEE7FF
:10015000FEE7FEE7FEE7FEE7FEE7FEE7FEE7FEE777
:100160003D0A000831010008064C074D06E0E06832
:1001700040F0010394E8070098471034AC42F6D3EE
:10018000FFF7DAFF8C490008AC49000800BFFEE722
:1001900070472DE9F041024600250026002000238B
:1001A0000024002791F803C00CF00F0591F803C05C
:1001B0000CF0100CBCF1000F03D091F802C04CEA17
:1001C000050591F800C0BCF1000F31D01468002083
:1001D0002BE04FF0010C0CFA00F3B1F800C00CEA70
:1001E00003069E4220D183004FF00F0C0CFA03F758
:1001F000BC4305FA03FC4CEA040491F803C0BCF1CB
:10020000280F06D14FF0010C0CFA00FCC2F814C004
:100210000AE091F803C0BCF1480F05D14FF0010C82
:100220000CFA00FCC2F810C0401C0828D1D314609E
:10023000B1F800C0BCF1FF0F34DD546800202EE09F
:1002400000F1080C4FF0010808FA0CF3B1F800C0F7
:100250000CEA03069E4221D183004FF00F0C0CFAEA
:1002600003F7BC4305FA03FC4CEA040491F803C00D
:10027000BCF1280F05D100F1080C08FA0CF8C2F8FF
:10028000148091F803C0BCF1480F07D100F1080CAD
:100290004FF0010808FA0CF8C2F81080401C08283A
:1002A000CED35460BDE8F08100BFFEE770B50646CE
:1002B0007F231A460021084600F04CFA2C2000F05B
:1002C000C7FA002408E0002503E0304600F0A8FA51
:1002D0006D1C802DF9D3641C802CF4D370BD0000FC
:1002E0002DE9F84F0746884693469A46DDF8289050
:1002F0000097B3E099F8000080283DDA99F8006093
:100300000D2E05D1009F08F110001FFA80F830E093
:10031000202E03DDA6F1200086B200E00026002496
:1003200022E000251CE004EB06105049085C802107
:100330002941084040B108EB040291B27A1990B209
:100340005A4600F097F809E0D34507D008EB0402BD
:1003500091B27A1990B2524600F08CF8681CC5B27E
:10036000082DE0DB601CC4B2102CDADB07F10800BA
:1003700087B209F1010971E0002668E006EB06107A
:100380003B4911F8100099F8001088425DD106EB46
:100390000610374901EB4000407899F80110884277
:1003A00053D100244FE0002520E006EB0610304931
:1003B00001EB4000801C10F81410802028410140FF
:1003C00041B108EB040291B27A1990B25A4600F09A
:1003D00051F809E0D34507D008EB040291B27A192D
:1003E00090B2524600F046F8681CC5B2082DDCDB1E
:1003F000002524E006EB06101D4901EB4000801C9F
:10040000012101EB4401405C80212941084048B1B1
:1004100008EB040291B27A19083290B25A4600F001
:1004200029F80AE0D34508D008EB040291B27A1902
:10043000083290B2524600F01DF8681CC5B2082D73
:10044000D8DB601CC4B2102CADDB701C86B2322E1F
:1004500094DB09F1020907F1100087B299F8000056
:1004600000287FF447AFBDE8F88F0000283300086C
:100470009A40000870B504460D461646681C83B2C3
:10048000601C82B22946204600F064F9304600F034
:10049000C7F970BD08B50121082000F013FA4FF428
:1004A0008070ADF8000010208DF8030003208DF857
:1004B000020069461348FFF76CFE4FF40070ADF878
:1004C000000069460F48FFF764FE4020ADF80000C9
:1004D00069460C48FFF75DFE2020ADF80000694634
:1004E0000848FFF756FE8020ADF800006946054831
:1004F000FFF74FFE1020ADF8000069460148FFF7F6
:1005000048FE08BD000C014010B5FFF7C3FF00F026
:100510000DF9112000F09CF9782000F0F3FAB120D9
:1005200000F096F9012000F067F92C2000F064F942
:100530002D2000F061F9B22000F08AF9012000F0CE
:100540005BF92C2000F058F92D2000F055F9B3206C
:1005500000F07EF9012000F04FF92C2000F04CF95A
:100560002D2000F049F9012000F046F92C2000F080
:1005700043F92D2000F040F9B42000F069F907207C
:1005800000F03AF9C02000F063F9A22000F034F93D
:10059000022000F031F9842000F02EF9C12000F093
:1005A00057F9C52000F028F9C22000F051F90A20BF
:1005B00000F022F9002000F01FF9C32000F048F9F4
:1005C0008A2000F019F92A2000F016F9C42000F062
:1005D0003FF98A2000F010F9EE2000F00DF9C52057
:1005E00000F036F90E2000F007F9362000F030F95F
:1005F000C82000F001F9E02000F02AF90F2000F0F7
:10060000FBF81A2000F0F8F80F2000F0F5F8182099
:1006100000F0F2F82F2000F0EFF8282000F0ECF8BE
:10062000202000F0E9F8222000F0E6F81F2000F07A
:10063000E3F81B2000F0E0F8232000F0DDF837207D
:1006400000F0DAF8002000F0D7F8072000F0D4F826
:10065000022000F0D1F8102000F0CEF8E12000F0E8
:10066000F7F80F2000F0C8F81B2000F0C5F80F20A5
:1006700000F0C2F8172000F0BFF8332000F0BCF8FB
:100680002C2000F0B9F8292000F0B6F82E2000F058
:10069000B3F8302000F0B0F8302000F0ADF8392089
:1006A00000F0AAF83F2000F0A7F8002000F0A4F81E
:1006B000072000F0A1F8032000F09EF8102000F0C1
:1006C0009BF82A2000F0C4F8002000F095F80020E4
:1006D00000F092F8002000F08FF87F2000F08CF8F6
:1006E0002B2000F0B5F8002000F086F8002000F084
:1006F00083F8002000F080F89F2000F07DF8F020C3
:1007000000F0A6F8012000F077F8F62000F0A0F83D
:10071000002000F071F83A2000F09AF8052000F06F
:100720006BF8292000F094F810BD000010B50020EF
:1007300006490860642000F0E5F901200449C1F889
:100740009801322000F0DEF910BD000098812142AE
:1007500000802142F0B504460D4616461F462A2069
:1007600000F076F8002000F047F8A11CC8B200F0B5
:1007700043F8002000F040F8B11CC8B200F03CF88B
:100780002B2000F065F8002000F036F8E91CC8B214
:1007900000F032F8002000F02FF8F91CC8B200F089
:1007A0002BF82C2000F054F8F0BD2DE9F04F07464F
:1007B000884615461E46DDF8249008EB0600401ECC
:1007C00083B27819401E82B241463846FFF7C2FF15
:1007D00000240AE019F814B009EB440090F801A0D5
:1007E0004BEA0A2000F01CF8641C05FB06F0A0424E
:1007F000F0DCBDE8F08F000010B50446002006498B
:10080000086001200549C1F89401204600F06AF80B
:1008100001200149086010BD9C81214200802142D5
:1008200010B5044600200849086001200749C1F8B6
:100830009401201200F056F8E0B200F053F80120C5
:100840000149086010BD00009C81214200802142C6
:1008500010B504460020064908600649C1F8940115
:10086000204600F03FF801200149086010BD00005B
:100870009C8121420080214208B50121042000F022
:1008800021F84FF48070ADF8000010208DF80300BF
:1008900003208DF8020069460148FFF77AFC08BD85
:1008A0000008014000BFFEE7704700000249014315
:1008B000024A1160704700000000FA050CED00E0EC
:1008C0007047000029B1064A92690243044B9A61BD
:1008D00004E0034A92698243014B9A617047000029
:1008E000001002400021082115E000F080021AB13A
:1008F00001220A4B1A6002E00022084B1A60002213
:10090000064B1B1F1A600122054BC3F8A0214206AB
:10091000100E4A1ED1B20029E7DC7047A4812142A3
:1009200000802142704710B500F002F810BD0000B1
:100930000CB50020019000903348006840F48030EE
:100940003149086000BF3048006800F40030009072
:100950000198401C0190009818B90198B0F5A06F5B
:10096000F1D12948006800F4003010B10120009056
:1009700001E0002000900098012843D1234800683E
:1009800040F01000214908600846006820F003008C
:1009900008600846006840F0020008601A48406895
:1009A000194948600846406848600846406840F475
:1009B000806048600846406820F47C104860084623
:1009C000406840F4E81048600846006840F08070D5
:1009D000086000BF0C48006800F000700028F9D0E3
:1009E0000948406820F0030007494860084640680D
:1009F00040F00200486000BF0348406800F00C006F
:100A00000828F9D10CBD000000100240002002406F
:100A1000042808D14FF0E021096941F004014FF0AA
:100A2000E022116107E04FF0E021096921F00401A3
:100A30004FF0E022116170477047000010B5134875
:100A4000006840F0010011490860084640681049FC
:100A500008400E494860084600680E4908400B49A6
:100A600008600846006820F4802008600846406856
:100A700020F4FE0048604FF41F008860FFF753FF2A
:100A80004FF000600449086010BD000000100240F3
:100A90000000FFF8FFFFF6FE08ED00E000BFFEE7F4
:100AA00002E008C8121F08C1002AFAD17047704737
:100AB000002001E001C1121F002AFBD17047000095
:100AC00010B56FF00400FFF7A3FF0A4800680A4959
:100AD000B0FBF1F0094908700846007800EB4001CE
:100AE000C1EBC0104FF6FF7101EAC0000449088055
:100AF00010BD00000000002000127A001400002049
:100B0000160000200146114A12884A434FF0E023A4
:100B10005A6100229A611A46126942F001021A6172
:100B200000BF4FF0E022106900F001021AB100F49A
:100B30008032002AF5D04FF0E022126922F0010243
:100B40004FF0E0231A6100229A61704716000020DE
:100B500008B54FF4A060FFF7A9FEFFF7B1FFFFF75C
:100B60008BFEFFF7D1FC00201D4908604FF6FF7097
:100B7000FFF79CFB1B4832236422002100900E20CB
:100B8000FFF713FE18A04FF6FF731F223C210090C1
:100B90001820FFF7A5FB17A04FF6FF734FF478421C
:100BA000502100901C20FFF79BFB15A04FF6FF7310
:100BB0000022642100900820FFF792FB00201449D6
:100BC000C1F8A0010BE04FF4FA70FFF79BFF11484A
:100BD000006808B9012000E000200E490860F2E733
:100BE00090812142180C0008C2CCC9EEC6ECBDA20F
:100BF000B5EA0000312E3434204C4344000000009C
:100C00006C73737A2E746D616C6C2E636F6D000063
:100C100000002142A0012142FFFFFFFFFFFFFFFF75
:100C2000FFFFFFFFFFFFFFFFFFFFFFFFDFFFDFFF14
:100C3000FFFFFFFFFFFFFFFFFFFFFFFFFFFFFFFFC4
:100C4000FFFFFFFFFFFFFFFFFFFFFFFFFFFFFFFFB4
:100C5000FFFFFFFFFFFFFFFFFFFFFFFFFFFFFFFFA4
:100C6000FFFFFFFFFFFFFFFFFFFFFFFFFFFFFFFF94
:100C7000FFFFFFFFFFFFFFFFFFFFFFFFFFFFFFFF84
:100C8000FFFFFFFFFFFFFFFFFFFFFFFFFFFFFFFF74
:100C9000FFFFFFFFFFFFFFFFFFFFFFFFFFFFFFFF64
:100CA000FFFFFFFFFFFFFFFFFFFFFFFFFFFFFFFF54
:100CB000FFFFFFFFFFFFFFFFFFFFFFFFFFFFFFFF44
:100CC000FFFFFFFFFFFFFFFFFFFFFFFFFFFFFFFF34
:100CD000FFFFFFFFFFFFFFFFFFFFFFFFFFFFFFFF24
:100CE000FFFFFFFFFFFFFFFFFFFFFFFFFFFFFFFF14
:100CF000FFFFFFFFFFFFFFFFFFFFFFFFFFFFFFFF04
:100D0000FFFFFFFFFFFFFFFFFFFFFFFFFFFFFFFFF3
:100D1000FFFFFFFFFFFFFFFFFFFFFFFFFFFFFFFFE3
:100D2000FFFFFFFFFFFFFFFFFFFFFFFFFFFFFFFFD3
:100D3000FFFFFFFFFFFFFFFFFFFFFFFFFFFFFFFFC3
:100D4000FFFFFFFFFFFFFFFFFFFFFFFFFFFFFFFFB3
:100D5000FFFFFFFFFFFFFFFFFFFFFFFFFFFFFFFFA3
:100D6000FFFFFFFFFFFFFFFFFFFFFFFFFFFFFFFF93
:100D7000FFFFFFFFFFFFFFFFFFFFFFFFFFFFFFFF83
:100D8000FFFFFFFFFFFFFFFFFFFFFFFFFFFFFFFF73
:100D9000FFFFFFFFFFFFFFFFFFFFFFFFFFFFFFFF63
:100DA000FFFFFFFFFFFFFFFFFFFFFFFFFFFFFFFF53
:100DB000FFFFDEFFDEF7DFFFFFFFBFF7BCCEFCDE8D
:100DC000DFFFFFFFDFFFDFFFFFFFFFFFFFFFFFFF93
:100DD000FFFFFFFFFFFFFFFFFFFFFFFFFFFFFFFF23
:100DE000FFFFFFFFFFFFFFFFFFFFFFFFFFFFFFFF13
:100DF000FFFFFFFFFFFFFFFFFFFFFFFFFFFFFFFF03
:100E0000FFFFFFFFFFFFFFFFFFFFFFFFFFFFFFFFF2
:100E1000FFFFFFFFFFFFFFFFFFFFFFFFFFFFFFFFE2
:100E2000FFFFFFFFFFFFFFFFFFFFFFFFFFFFFFFFD2
:100E3000FFFFFFFFFFFFFFFFFFFFFFFFFFFFFFFFC2
:100E4000FFFFFFFFFFFFFFFFFFFFFFFFFFFFFFFFB2
:100E5000FFFFFFFFFFFFFFFFFFFFFFFFFFFFFFFFA2
:100E6000FFFFFFFFFFFFFFFFFFFFFFFFFFFFFFFF92
:100E7000FFFFFFFFFFFFFFFFDEFFBEFFFEFFFFFFE5
:100E8000999D522A70099111D53A3BBEFFFFDFF7B9
:100E9000FFFFFFFFFFFFFFFFFFFFFFFFFFFFFFFF62
:100EA000FFFFFFFFFFFFFFFFFFFFFFFFFFFFFFFF52
:100EB000FFFFFFFFFFFFFFFFFFFFFFFFFFFFFFFF42
:100EC000FFFFFFFFFFFFFFFFFFFFFFFFFFFFFFFF32
:100ED000FFFFFFFFFFFFFFFFFFFFFFFFFFFFFFFF22
:100EE000FFFFFFFFFFFFFFFFFFFFFFFFFFFFFFFF12
:100EF000FFFFFFFFFFFFFFFFFFFFFFFFFFFFFFFF02
:100F0000FFFFFFFFFFFFFFFFFFFFFFFFFFFFFFFFF1
:100F1000FFFFFFFFFFFFFFFFFFFFFFFFFFFFFFFFE1
:100F2000FFFFFFFFFFFFFFFFFFFFFFFFFFFFFFFFD1
:100F3000FFFFFFFFFFFFFFFFFFFFFFFFFFFFFFFFC1
:100F4000DEFFDEFFBFF7D663100130013001300154
:100F50002F013009D884FFFFFFFFFFFFFFFFFFFFD6
:100F6000FFFFFFFFFFFFFFFFFFFFFFFFFFFFFFFF91
:100F7000FFFFFFFFFFFFFFFFFFFFFFFFFFFFFFFF81
:100F8000FFFFFFFFFFFFFFFFFFFFFFFFFFFFFFFF71
:100F9000FFFFFFFFFFFFFFFFFFFFFFFFFFFFFFFF61
:100FA000FFFFFFFFFFFFFFFFFFFFFFFFFFFFFFFF51
:100FB000FFFFFFFFFFFFFFFFFFFFFFFFFFFFFFFF41
:100FC000FFFFFFFFFFFFFFFFFFFFFFFFFFFFFFFF31
:100FD000FFFFFFFFFFFFFFFFFFFFFFFFFFFFFFFF21
:100FE000FFFFFFFFFFFFFFFFFFFFFFFFFFFFFFFF11
:100FF000FFFFFFFFFFFFFFFFFFFFFFFFFFFFFFFF01
:10100000FFFFFFFFFFFFFFFFFFFFFFFFD563CF00E5
:101010007101EF0071115009CF007001F0001895B7
:10102000FFFFFFFFFFFFFFFFFFFFFFFFFFFFFFFFD0
:10103000FFFFFFFFFFFFFFFFFFFFFFFFFFFFFFFFC0
:10104000FFFFFFFFFFFFFFFFFFFFFFFFFFFFFFFFB0
:10105000FFFFFFFFFFFFFFFFFFFFFFFFFFFFFFFFA0
:10106000FFFFFFFFFFFFFFFFFFFFFFFFFFFFFFFF90
:10107000FFFFFFFFFFFFFFFFFFFFFFFFFFFFFFFF80
:10108000FFFFFFFFFFFFFFFFFFFFFFFFFFFFFFFF70
:10109000FFFFFFFFFFFFFFFFFFFFFFFFFFFFFFFF60
:1010A000FFFFFFFFFFFFFFFFFFFFFFFFFFFFFFFF50
:1010B000FFFFFFFFFFFFFFFFFFFFFFFFFFFFFFFF40
:1010C000FFFFFFFFFFFFFFFFFFFFFFFFFFFFFFFF30
:1010D000FFFFBAA5CF00710110011674FDD6DDCE59
:1010E0009663EF0050015009BCCEFFFFDFF7FFFF12
:1010F000DFFFFFFFFFFFFFFFFFFFDFFFFFFFFFFF40
:10110000FFFFFFFFFFFFDFFFFFFFFFFFFFFFFFFF0F
:10111000FFFFFFFFFFFFFFFFFFFFFEFFFFFFFFFFE0
:10112000DEFFDFFFFEFFFFFFFFFFFFFFFFFFFFFF11
:10113000FFFFFFFFFFFFFFFFFFFFFFFFFFFFFFFFBF
:10114000FFFFFFFFFFFFFFFFFFFFFFFFFFFFFFFFAF
:10115000FFFFFFFFFFFFFFFFFFFFFFFFFFFFFFFF9F
:10116000FFFFFFFFFFFFFFFFFFFFFFFFFFFFFFFF8F
:10117000FFFFFFFFFFFFFFFFFFFFFFFFFFFFFFFF7F
:10118000FFFFFFFFFFFFFFFFFFFFFFFFFFFFFFFF6F
:10119000FFFFFFFFFFFFFFFFFFFFF4421001CF0043
:1011A000F66BFFFFFFFFFEFFFFFF5653EF00EF0060
:1011B000F66BFFFFDEF7FEFFDFFFDFFFDEFFDFFF87
:1011C000FFFFFFFFFFFFFFFFDFFFFEFFFFFFFFFF50
:1011D000FFFFFFFFFFFFFFFFFFFFFFFFFFFFFFFF1F
:1011E000FEFFDFFFDEFFFFFFFFFFFFFFFFFFDEF77A
:1011F000FFFFFFFFFFFFFFFFFFFFFFFFFFFFFFFFFF
:10120000FFFFFFFFFFFFFFFFFFFFFFFFFFFFFFFFEE
:10121000FFFFFFFFFFFFFFFFFFFFFFFFFFFFFFFFDE
:10122000FFFFFFFFFFFFFFFFFFFFFFFFFFFFFFFFCE
:10123000FFFFFFFFFFFFFFFFFFFFFFFFFFFFFFFFBE
:10124000FFFFFFFFFFFFFFFFFFFFFFFFFFFFFFFFAE
:10125000FFFFFFFFFFFFFFFFFFFFFFFFFFFFFFFF9E
:10126000BFF7522AF0005009FDD6FFFFDEF7BEF7A8
:10127000DFFF3BBE30010F01F43ADFFFFEFFDFFF6F
:10128000FFFFDEFFDFFFFFFF9BE7F6CE17D7BDEFC7
:10129000FFFFDFFFFEFFFFFFFFFFFFFFFFFFFFFF7F
:1012A000FFFFFFFFFFFFFFFFFFFFFEFFFFFF9BE7CB
:1012B00016C717CFBCEFFFFFFFFFFFFFFFFFFFFFCA
:1012C000FFFFFFFFFFFFFFFFFFFFFFFFFFFFFFFF2E
:1012D000FFFFFFFFFFFFFFFFFFFFFFFFFFFFFFFF1E
:1012E000FFFFFFFFFFFFFFFFFFFFFFFFFFFFFFFF0E
:1012F000FFFFFFFFFFFFFFFFFFFFFFFFFFFFFFFFFE
:10130000FFFFFFFFFFFFFFFFFFFFFFFFFFFFFFFFED
:10131000FFFFFFFFFFFFFFFFFFFFFFFFFFFFFFFFDD
:10132000FFFFFFFFFFFFFFFFBFF7532A0F01300949
:101330007CC6FEFFBEF7BEF7FFFFDAAD100110015D
:101340001443DFFFFFFFDFFFFEFFDFFFDFFFD3BE42
:10135000897D476D476DCA8516CFFFFFDFFFDFFF31
:10136000FFFFFFFFFFFFFFFFFFFFFFFFFFFFFFFF8D
:10137000FFFFFEFFF5C6A97D666D476DA98516CFF7
:10138000FFFFFFFFFFFFFFFFFFFFFFFFFFFFFFFF6D
:10139000FFFFFFFFFFFFFFFFFFFFFFFFFFFFFFFF5D
:1013A000FFFFFFFFFFFFFFFFFFFFFFFFFFFFFFFF4D
:1013B000FFFFFFFFFFFFFFFFFFFFFFFFFFFFFFFF3D
:1013C000FFFFFFFFFFFFFFFFFFFFFFFFFFFFFFFF2D
:1013D000FFFFFFFFFFFFFFFFFFFFFFFFFFFFFFFF1D
:1013E000FFFFFFFFFFFFFFFFFFFFFFFFFFFFFFFF0D
:1013F000FFFF76531001EF001553DEF7FFFFFFFFED
:101400009EEF933A3001EF001574FFFFDEFFFFFF00
:10141000DFFFFFFF58D76775897DF5BEB3B66875E6
:10142000897D9BE7FFFFFFFFFFFFFFFFFFFFFFFF40
:10143000FFFFFFFFFFFFFFFFFFFF7ADF8875887563
:10144000D4BED4B6887568757ADFFFFFDFFFFFFF73
:10145000FFFFFFFFFFFFFFFFFFFFFFFFFFFFFFFF9C
:10146000FFFFFFFFFFFFFFFFFFF7FFFFDFFFFFFFB4
:10147000FFFFFFFFFFFFFFFFFFFFFFFFFFFFFFFF7C
:10148000DFFFDFFFDEF7DFFFFFFFFFFFFFFFFFFFF5
:10149000FFFFDEFFDFFFFFFFFFFFFFFFFFFFFFFF9D
:1014A000FFFFFFFFFFFFFFFFFFFFFFFFFFFFFFFF4C
:1014B000FFFFFFFFFFFFFFFFFFFF3BBE10017001BB
:1014C0000F01B43A599D389D73320F01300131013B
:1014D0009CCEFFFFDFFFFFFFDFFFFFFF70A6676D02
:1014E00037CFFFFFFFFFF5BE466DB3B6FFFFFFFF2F
:1014F000FFFFFFFFFFFFFFFFFFFFFFFFFFFFFFFFFC
:10150000FFFF92B6466D17CFFFFFFFFF37CF476D46
:1015100091AEFFFFDFFFDFFFFEFFDFFFFFFFFFFFFB
:10152000FFFFFFFFFFFFFFFFFFFFFFFFFFFFFFFFCB
:10153000FFFFDEFFDFFFFFFFDEF7DEF7FFFFFFFF4E
:10154000DFFFFEFFFFFFFFFFDEF7FFFFFFFFFFFFF5
:101550009EEF3EE71DDF5EE7DEFFFFFFFFFFDFFFE1
:10156000DFFFDFFFDFFFDEFFFFFFFFFFFFFFFFFF0C
:10157000FFFFFFFFFFFFFFFFFFFFFFFFFFFFFFFF7B
:10158000DFFFFEFF7774AF007001F000CF00CF00E7
:10159000110150013009399DFFFFFEFFFFFFDFFF02
:1015A000DFFFFFFF4F9E6775BBE7FFFFFFFF37D7EA
:1015B000466591AEFFFFFEFFFFFFFFFFFFFFFFFF4E
:1015C000FFFFFFFFFFFFFFFFFFFF70A6666D7BE7DA
:1015D000FFFFFFFF7ADF476D2E9EFFFFDEFFDFFF7D
:1015E000FFFFFFFFFFFFDEF7BDF7BDF7DDF7DDF71C
:1015F000DDF7DDF7BDF7BDF7BCF7BEEFBDEFB3BE5E
:10160000EB8DCA7D6F9E79DFFFFFDFFFDEFFFFFFFF
:10161000FFFFBEEFDAADF7637332F221D119122268
:10162000154BB784BCCEFFFFFFFFDEFFDFFFDFFF00
:10163000FFFFFFFFFFFFFFFFFFFFFFFFFFFFFFFFBA
:10164000FFFFFFFFFFFFFFFFDFFFDEFFDFFF9784EE
:1016500050095001700171010F01F2219BC6FFFF7B
:10166000DEFFDFFFFEFFFFFFFFFFFFFFF5C6466D5A
:101670000D967BE759DFCB85687538D7FFFFFFFFF5
:10168000FFFFFFFFFFFFFFFFFFFFFFFFFFFFFFFF6A
:10169000FFFF17CF476D0D8E7ADF79DFEC8D466D3A
:1016A000F6C6FFFFFFFFFEFF79DFB3BE4FA60E9623
:1016B000EC8DEC8DEC8DEC8DEC8DEC8DEC8DEC8D62
:1016C000EC8DEC8DCB85676DAA7D0C8E476D897D89
:1016D00059DFFFFFDFFFFFFFBAAD93321001CF00EC
:1016E0003001300130013001EF00D0007011F66B95
:1016F0001DDFFFFFDFFFFFFFFFFFFFFFFFFFFFFF1C
:10170000FFFFFFFFFFFFFFFFFFFFFFFFFFFFFFFFE9
:10171000FFFFFFFFFFFFFFFF3BBE911151013001B3
:10172000F1219CCEFFFFDEFFFFFFFFFFFFFFFFFF6A
:10173000FFFFDFFFDEF770A64775A97D897D8775FE
:10174000D4BEFFFFDEFFFFFFFFFFFFFFFFFFFFFF36
:10175000FFFFFFFFFFFFFFFFFFFFFEFF71AE676DA3
:10176000A97D89756775B3B6FEFFFFFF7AE72F9EE7
:101770008A7D68756875A875887588758875887597
:101780008875887588758875A975887587750D96AB
:10179000BCEFFFFFD5C6676D4F9EFFFFFFFF176CC5
:1017A0000F010F017101710130010F010F011001D3
:1017B000700170015001CF00112A9CC6FFFFDFFFAE
:1017C000FFFFFFFFFFFFFFFFFFFFFFFFFFFFFFFF29
:1017D000FFFFFFFFFFFFFFFFFFFFFFFFFFFFDFFF39
:1017E000FFFF75530F01F000977CFFFFBEFFFFFF67
:1017F000FFFFFFFFFFFFFFFFFFFFDFFFDFFFDDF763
:10180000EC958875A97D887516CFFFFFFEFFFEFF5A
:10181000FFFFFFFFFFFFFFFFFFFFFFFFFFFFFFFFD8
:10182000FFFFFFFF91AE6875A97D8875B3B6FFFF16
:10183000FFFF7ADFA9856875897DA97D897D887517
:1018400088758875887588758875887588758875B0
:10185000887D897D6775F6C6FFFFBFFFDEF7CB8504
:101860000D96FFFFF66BAF00710171013001EF00C3
:1018700012221443354373325101F0007001710993
:101880000F017019BCCEFFFFFFFFFFFFFFFFFFFF3F
:10189000FFFFFFFFFFFFFFFFFFFFFFFFFFFFFFFF58
:1018A000FFFFFFFFFFFFFFFFDFFF55531001100198
:1018B0003674FFFFBFFFFFFFFFFFFFFFFFFFFFFFCC
:1018C000FFFFFFFFDFFFFFFFD4BE6875AA7D6875CD
:1018D0000D9EFEFFDFFFFFFFFFFFFFFFFFFFFFFF8C
:1018E000FFFFFFFFFFFFFFFFFFFF9BE7AA7DA9753B
:1018F000897DAA859BEFFFFFDEFF2D96876DCA7D50
:10190000A9758875AA850D8E0D960C960C960D9668
:101910000D960C960C960C96ED950D9687752E9659
:10192000BDF7FFFF17D7476DAFAE7AADAF007101BE
:1019300070010F01B11939953EE7FFFFDEFF9EF7F9
:101940003BBE344BF00071019101F0007232BEF7E2
:10195000FFFFFFFFFFFFFFFFFFFFFFFFFFFFFFFF97
:10196000FFFFFFFFFFFFFFFFFFFFFFFFFFFFFFFF87
:10197000FFFF354B100110019884FFFFDEFFDFFFF2
:10198000FFFFFFFFFFFFFFFFFFFFFFFFDEFFFFFF88
:101990007BE7A97D8975897D887579DFFFFFDEFF8B
:1019A000FFFFFFFFFFFFFFFFFFFFFFFFFFFFFFFF47
:1019B000FFFFD3C66875AA7D8875709EFFFFFFFF85
:1019C0009AE78985A975A97D88752FA69AE7DEF71C
:1019D000DEF7DEF7DEF7DEF7DEF7DEF7DEF7DEF75F
:1019E000DEF7DDF793AE46650D8E71A6697DA87DA5
:1019F00013A67211300171013001F2199CC6FFFF6C
:101A0000FFFFDFFFDFFFFFFFFFFFFFFFB563EF001B
:101A100071017001CF00399DFFFFFFFFFFFFFFFF46
:101A2000FFFFFFFFFFFFFFFFFFFFFFFFFFFFFFFFC6
:101A3000FFFFFFFFFFFFFFFFFFFF344B10010F0110
:101A4000B884FFFFDEFFFFFFFFFFFFFFFFFFFFFF89
:101A5000FFFFFFFFFFFFFFFFDFFF2D9E886DAA7DC9
:101A6000677592B6FFFFDEFFFFFFFFFFFFFFFFFF7F
:101A7000FFFFFFFFFFFFFFFFDEFF0D968875897DEB
:101A8000887517CFFFFFFFFF38D78875A97DA97527
:101A9000A9859BE7FFFFFEFFFFFFFFFFFFFFFFFFA3
:101AA000FFFFFFFFFFFFFFFFFFFFDFFFDEF770AE6F
:101AB0008875666DAB8598DF3A9DCF007001500147
:101AC0001001FBBDFFFFBEF7FFFFFFFFFFFFFFFFA2
:101AD000BFF7FEFFBFF7D442EF0071010F01F442E0
:101AE000DFF7FFFFFFFFFFFFFFFFFFFFFFFFFFFF2E
:101AF000FFFFFFFFFFFFFFFFFFFFFFFFFFFFFFFFF6
:101B0000FFFF345310010F01D88CFFFFDFFFFFFFF1
:101B1000FFFFFFFFFFFFFFFFFFFFFFFFFFFFFFFFD5
:101B2000FFFF15C78775A97D8875CB8DBDF7FFFFB2
:101B3000FFFFFFFFFFFFFFFFFFFFFFFFFFFFFFFFB5
:101B400059DF887DA97D8875EB8DBDF7FFFFFFFF0D
:101B500017CF8875A97D897DAB7DBCEFFFFFDEFFC8
:101B6000DFFFFFFFFFFFFFFFFFFFFFFFFFFFFFFFA5
:101B7000FEFFDFFFDFFFFEFF5ADF59DFBCEFFFFF95
:101B8000D66BF0007001EF00544BFFFFBEF7DEFF95
:101B9000FFFFFFFFFFFFFFFFDFFFBEF7FEFF1BB6EC
:101BA000100170013001B1193DDFFFFFFEFFFFFFA3
:101BB000FFFFFFFFFFFFFFFFFFFFFFFFFFFFFFFF35
:101BC000FFFFFFFFFFFFFFFFFFFF755310010F0136
:101BD000D88CFFFFFFFFFFFFFFFFFFFFFFFFFFFFAF
:101BE000FFFFFFFFFFFFFFFFFFFFBDEFCB8D8875FE
:101BF000A97D877517CFFFFFFFFFFFFFFFFFFFFFE7
:101C0000FFFFFFFFDFFFFFFF71A68775A97D8875C6
:101C100092B6FFFFDEF7FFFF59DF897DA97DA97D21
:101C2000887591B6DEF7FFFFFFFFDFFFFFFFFFFFC5
:101C3000FFFFFFFFFFFFFFFFFFFFFFFFDFFFDFFFF4
:101C4000FFFFFFFFFFFFBFFFD43A10017101CF007C
:101C50001995FFFFBFF7DFFFFFFFFFFFFFFFFFFF4C
:101C6000FFFFDFF7DFFF9FEF532A2F0151013009FC
:101C70007CC6FFFFDFFFFFFFFFFFFFFFFFFFFFFF50
:101C8000FFFFFFFFFFFFFFFFFFFFFFFFFFFFFFFF64
:101C9000FFFFB65B1001EF00F894FFFFDFFFFFFFCF
:101CA000FFFFFFFFFFFFFFFFFFFFFFFFFFFFFFFF44
:101CB000FEFFFFFF92AE6775AA7D886D2F9EFFFF26
:101CC000FFFFFFFFFFFFFFFFFFFFFFFFFFFF9CEF97
:101CD000AA85A975897DA97D7ADFFFFFDFFFFFFF58
:101CE000DEF7EC8D8875A97DA97D88750E9617D7CE
:101CF000BDF7FFFFFFFFFFFFFFFFFFFFFFFFFFFF3E
:101D0000DFFFFFFFFFFFFFFFFFFFDEFFFEFF9EF78E
:101D1000732A10017101EF009AA5FFFFDEF7DFFFC4
:101D2000FFFFFFFFFFFFFFFFDFFFDFF7DFFFFFFF2B
:101D3000F44AEF0071012F01DBADFFFFDFFFFFFF72
:101D4000FFFFFFFFFFFFFFFFFFFFFFFFFFFFFFFFA3
:101D5000FFFFFFFFFFFFFFFFFFFFF66B0F01F0002C
:101D60001995FFFFFFFFFFFFFFFFFFFFFFFFFFFFD3
:101D7000FFFFFFFFFFFFFFFFFFFFFFFF38DF88755B
:101D8000A97D8975A97D7BE7FFFFFFFFDFFFFFFFCF
:101D9000DEFFDFF7FFFFF6C6686DA97D88750E9E32
:101DA000FFFFFFFFFFFFFFFFFFFF16C76775A97566
:101DB000AA7DA97D68756875CC8D70AEF5C679DF92
:101DC000BDF7FFFFFFFFFFFFDEFFDEFFDFFFFFFFCF
:101DD000FFFFFFFFFFFFBFF7732A10017101EF0044
:101DE0009AA5FFFFDEFFFFFFFFFFFFFFFFFFFFFFE3
:101DF000FFFFFFFFFFFFFFFF143B10017101100108
:101E0000DAB5FFFFDFFFFFFFFFFFFFFFFFFFFFFF71
:101E1000FFFFFFFFFFFFFFFFFFFFFFFFFFFFFFFFD2
:101E2000FFFF3774EF00F000399DFFFFDFFFFFFF7A
:101E3000FFFFFFFFFFFFFFFFFFFFFFFFFFFFFFFFB2
:101E4000FFFFFFFFFEFF0D968875A97D6875B3BE85
:101E5000FFFFFFFFFFFFFFFFDFFFFEFFFFFF0D960E
:101E60008875A97D677516C7FFFFFFFFFFFFFFFF9E
:101E7000FEFFFFFFD5C6897D6875A97DAA7DA97D76
:101E8000A875686D6875A97DEC8590A637D7DEF7D3
:101E9000FFFFDFFFDEFFFFFFFFFFFFFFFFFFBFF7DB
:101EA000732A10017001F0007AA5FFFFFFFFFFFF0A
:101EB000FFFFFFFFFFFFFFFFFFFFFFFFFFFFFFFF32
:101EC000143B0F0171011001DAB5FFFFFFFFFFFFA7
:101ED000FFFFFFFFFFFFFFFFFFFFFFFFFFFFFFFF12
:101EE000FFFFFFFFFFFFFFFFFFFF577C0F01F00029
:101EF000399DFFFFFFFFFFFFFFFFFFFFFFFFFFFF1A
:101F0000FFFFFFFFFFFFFFFFFFFFFEFFFFFFF5C625
:101F10006775A97D8875EC8DDDF7FFFFFFFFFFFF7B
:101F2000DFFFFFFF5ADF887DA97D8975CA85BDEF78
:101F3000FFFFFFFFFFFFFFFFFFFFDFFFFFFF79DF77
:101F40004F9E897D88758975A97DAA7DA97DA97D0A
:101F50008875677589750D96F5C6DEF7FEFFFFFF7C
:101F6000FFFFFFFFFFFFBFF7732A10017101EF00B2
:101F70009AA5FFFFDFFFFFFFFFFFFFFFFFFFFFFF50
:101F8000FFFFFFFFFFFFFFFF143B10017101100176
:101F9000DAB5FFFFDFFFFFFFFFFFFFFFFFFFFFFFE0
:101FA000FFFFFFFFFFFFFFFFFFFFFFFFFFFFFFFF41
:101FB000FFFF577C0F01F000399DFFFFDFFFFFFFA0
:101FC000FFFFFFFFFFFFFFFFFFFFFFFFFFFFFFFF21
:101FD000FFFFFFFFFFFF9BE7A97D897DA97D687556
:101FE00037D7FFFFDFFFFFFFDEFFFFFF92B6676D12
:101FF000AA7D677571A6FFFFFFFFFFFFFFFFFFFFD1
:10200000FEFFDFFFDEFFFFFFFFFF7ADF92B6CB8D23
:10201000887D6875887D897DAA7DAA7DA97D887562
:10202000676D2E9E9CEFFFFFFFFFFFFFFFFFBFF7D7
:10203000732A10017101F0009AA5FFFFFFFFFFFF57
:10204000FFFFFFFFFFFFFFFFFFFFFFFFFFFFFFFFA0
:10205000143B100171011001DAB5FFFFFFFFFFFF14
:10206000FFFFFFFFFFFFFFFFFFFFFFFFFFFFFFFF80
:10207000FFFFFFFFFFFFFFFFFFFF777CEF000F0178
:102080005A9DFFFFDFFFFFFFFFFFFFFFFFFFFFFF87
:10209000FFFFFFFFFFFFFFFFFFFFFFFFFFFFFFFF50
:1020A00050A66875A97D687570A6FFFFDEFFDEF794
:1020B000FFFFBEF7EC8D8875A97D887538DFFFFFBF
:1020C000FFFFFFFFFFFFFFFFFFFFFFFFFFFFFFFF20
:1020D000FFFFFFFFFFFFBDF738D792B62D96A97D12
:1020E00088758875A97DAA7DA97D886D0C96DDF718
:1020F000FFFFDEFFFFFFBFF7732A10017101F00041
:102100009AA5FFFFFFFFFFFFFFFFFFFFFFFFFFFF9E
:10211000FFFFFFFFFFFFFFFF143B100171011001E4
:10212000DAB5FFFFFFFFFFFFFFFFFFFFFFFFFFFF2E
:10213000FFFFFFFFFFFFFFFFFFFFFFFFFFFFFFFFAF
:10214000FFFF777CF0000F01599DFFFFFEFFFFFFAF
:10215000FFFFFFFFFFFFFFFFFFFFFFFFFFFFFFFF8F
:10216000FFFFFFFFFFFFFFFF37D76875A97D887569
:10217000AB859CEFFFFFDEFFFFFF38D78875A97D99
:102180008875EC8DDEF7FFFFFFFFFFFFFFFFFFFF0E
:10219000FFFFFFFFFFFFFFFFFFFFFFFFFFFFFFFF4F
:1021A000FFFFFFFFDEF77AE7D4C60D9E887DA87596
:1021B000A97DAA75687592B6FFFFDFFFFFFFBFF725
:1021C000732A10017101F0009AA5FFFFFFFFFFFFC6
:1021D000FFFFFFFFFFFFFFFFFFFFFFFFFFFFFFFF0F
:1021E000143B100171011001DAB5FFFFFFFFFFFF83
:1021F000FFFFFFFFFFFFFFFFFFFFFFFFFFFFFFFFEF
:10220000FFFFFFFFFFFFFFFFFFFF7784EF000F01DE
:10221000599DFFFFDFFFFFFFFFFFFFFFFFFFFFFFF6
:10222000FFFFFFFFFFFFFFFFFFFFFFFFFFFFFFFFBE
:10223000DEF7EC8D8875A97D6875F4C6FFFFDEFFBB
:10224000FFFF70A68775AA7D6775B3BEFFFFDEFF2F
:10225000FFFFFFFFFFFFFFFFFFFFFFFFFFFFFFFF8E
:10226000FFFFFFFFFFFFFFFFDFFFFEFFFFFFFFFF9F
:10227000FFFFFEF716CFCA858975A97D8875CB85C6
:10228000BDF7FFFFFFFFBFF7732A10017101F000D8
:102290009AA5FFFFFFFFFFFFFFFFFFFFFFFFFFFF0D
:1022A000FFFFFFFFFFFFFFFF143B10017101100153
:1022B000DAB5FFFFFFFFFFFFFFFFFFFFFFFFFFFF9D
:1022C000FFFFFFFFFFFFFFFFFFFFFFFFFFFFFFFF1E
:1022D000FFFF7784EF0010017AA5FFFFDEFFFFFF0D
:1022E000FFFFFFFFFFFFFFFFFFFFFFFFFFFFFFFFFE
:1022F000FFFFFFFFFFFFFFFFFFFFD3BE8775A97D35
:1023000088750D96DEFFFFFF9BE7AA7DA975A9756D
:10231000AA7D9BEFFFFFDEFFFFFFFFFFFFFFFFFF39
:10232000FFFFFFFFFFFFFFFFFFFFFFFFFFFFFFFFBD
:10233000FFFFFFFFFFFFFFFFFEFFDEFFFFFF58DF96
:10234000A97D897DA97D897D59DFFFFFFFFFBFF74B
:10235000732A10017101F0009AA5FFFFFFFFFFFF34
:10236000FFFFFFFFFFFFFFFFFFFFFFFFFFFFFFFF7D
:10237000143B100171011001DAB5FFFFFFFFFFFFF1
:10238000FFFFFFFFFFFFFFFFFFFFFFFFFFFFFFFF5D
:10239000FFFFFFFFFFFFFFFFFFFF9784EF0010012C
:1023A0007AA5FFFFDFFFFFFFFFFFFFFFFFFFFFFF3C
:1023B000FFFFFFFFFFFFFFFFFFFFFFFFFFFFFFFF2D
:1023C000FFFF7AEFA97D8975A975697D58D7FFFF51
:1023D000B4BE8775A98568756FA6FFFFFFFFDFFF95
:1023E000FFFFDDF79BEFDEF7FFFFDEFFDFFFDEFF26
:1023F000FFFFFFFFFFFFFFFFFFFFFFFFFFFFFFFFED
:10240000FFFFDEFFDEFFFFFF0C968875898589756B
:1024100058D7FFFFFFFFBFF7732A10017101F000CB
:102420009AA5FFFFFFFFFFFFFFFFFFFFFFFFFFFF7B
:10243000FFFFFFFFFFFFFFFF143B100171011001C1
:10244000DAB5FFFFFFFFFFFFFFFFFFFFFFFFFFFF0B
:10245000FFFFFFFFFFFFFFFFFFFFFFFFFFFFFFFF8C
:10246000FFFF9884F00010017AA5FFFFDFFFFFFF58
:10247000FFFFFFFFFFFFFFFFFFFFFFFFFFFFFFFF6C
:10248000FFFFFFFFFFFFFFFFFFFFFFFF4F9E67758F
:10249000AA7D676D92AEFFFFEC958875AA7D897560
:1024A00017CFFFFFDFFFFFFFF6C6CB8D897D0E96AE
:1024B0007ADFFFFFFFFFFFFFFFFFFFFFFFFFFFFFD1
:1024C000FFFFFFFFFFFFFFFFFFFFFFFFFFFF7AE7B9
:1024D000AA858975A97DCA7D9BE7FFFFFFFFBFF72E
:1024E000732A10017001F0009AA5FFFFDFFFFFFFC4
:1024F000FFFFFFFFFFFFFFFFFFFFFFFFFFFFFFFFEC
:10250000143BF00071011001DAB5FFFFDFFFFFFFA0
:10251000FFFFFFFFFFFFFFFFFFFFFFFFFFFFFFFFCB
:10252000FFFFFFFFFFFFFFFFFFFF9784EF0010019A
:102530007AA5FFFFDFFFFFFFFFFFFFFFFFFFFFFFAA
:10254000FFFFFFFFFFFFFFFFFFFFFFFFFFFFFFFF9B
:10255000FFFFFFFF17CF8875AA7D8875EC8DD5C664
:10256000AA7D897DA875EC8DDEF7DFFFFFFFF6C63B
:10257000676DAA7D2D968775A98517CF59DF58D726
:1025800058D758D759D759D759D758D759D758D7CF
:1025900058D77ADFF5C6EB8D8875A97D88750D96BD
:1025A000DEFFFFFFFFFFBEF7732A10017101EF008E
:1025B0007AA5FFFFFFFFFFFFFFFFFFFFFFFFFFFF0A
:1025C000FFFFFFFFFFFFFFFF143B10017101100130
:1025D000DAB5FFFFDFFFFFFFFFFFFFFFFFFFFFFF9A
:1025E000FFFFFFFFFFFFFFFFFFFFFFFFFFFFFFFFFB
:1025F000FFFF9884F00010017AA5FFFFDFFFFFFFC7
:10260000FFFFFFFFFFFFFFFFFFFFFFFFFFFFFFFFDA
:10261000FFFFFFFFFFFFFFFFFFFFFFFFBDEFCB85CA
:102620008875E985C985C87DA97D897D6775B3B63B
:10263000FFFFFFFFDEF7CB8DA97D7ADFFFFF37D7E6
:10264000AA7D877588758875887588758875887579
:102650008875887588758875887D887D68758875A2
:10266000A97DA97D676D16C7FFFFFEFFFFFFDEF79F
:10267000933210017001F000BAADFFFFDFFFFFFFE2
:10268000FFFFFFFFFFFFFFFFFFFFFFFFFFFFFFFF5A
:102690003443EF0071011001DAB5FFFFFFFFFFFFC8
:1026A000FFFFFFFFFFFFFFFFFFFFFFFFFFFFFFFF3A
:1026B000FFFFFFFFFFFFFFFFFFFF9884F000100107
:1026C0009AA5FFFFFFFFFFFFFFFFFFFFFFFFFFFFD9
:1026D000FFFFFFFFFFFFFFFFFFFFFFFFFFFFFFFF0A
:1026E000DEFFDEF7DFFFD2BEA7754A6DEA642A6D12
:1026F000C97D0886897D7BDFFFFFFFFF7AE767756D
:1027000070A6FFFFDEF7FFFF50A66775AA7DA97DC3
:10271000A97DA97DA97DA97DA97DA97DA97DA97D89
:10272000A97DA97DA97DAA758875676D71AEDEFF4B
:10273000DFFFDEF7FFFF1CD7D21151019101F0003E
:10274000B884FFFFDEFFDEFFFFFFFFFFFFFFFFFF9D
:10275000DFFFDEF7DEFFBEF7B43230019109100172
:10276000BAADFFFFBEF7FEFFFFFFFFFFFFFFFFFF5A
:10277000FFFFFFFFFFFFFFFFFFFFFFFFFFFFFFFF69
:10278000FFFF9884EF0010019AA5FFFFDFFFFFFF16
:10279000FFFFFFFFFFFFFFFFFFFFFFFFFFFFFFFF49
:1027A000FFFFFFFFFFFFFFFFDEF79EFFFFFF59B6B2
:1027B0004E1A5001510170090F1ACB436FA6DFFF6B
:1027C000DFFFFFFF9CEFA97DEB8D9BEFFFFF9AE7FB
:1027D000CA85686D687567756775677567756775AC
:1027E0006775677567756875686D68758875A97DA3
:1027F0000D8EF6CEFFFFDFFFBEFFDFFF3DDF1222B3
:1028000030011001EF0050012F0179A5FFFFDEFF1D
:10281000FFFFFFFFFFFFFFFFDFFFDEFFBEF7344BD1
:10282000EF00F000F0001001532A3DE7FFFFDEFF4C
:10283000FFFFFFFFFFFFFFFFFFFFFFFFFFFFFFFFA8
:10284000FFFFFFFFFFFFFFFFFFFF9784F000100176
:102850009AA5FFFFDFFFFFFFFFFFFFFFFFFFFFFF67
:10286000FFFFFFFFFFFFFFFFFFFFFFFFFFFFFFFF78
:10287000BEF7FFFFBCCE9219F10031011101310109
:102880003101B1009553DEF7DFFFDEFFFFFF92B6A7
:102890002665CB8570A6CA85476D71AEF4C6D4BED9
:1028A000D4BED4BED4BED4BED4BED4BED4BED4BE98
:1028B000D4BED4C617D77AE7DEF7FFFFDEFFFFF7F7
:1028C000DFFFFEFFB55BD000500175533774B111C7
:1028D000F000111A7DE7FFFFFFFFFFFFFFFFFFFF83
:1028E000BFF7FFFFD88CAF001222599DB9A5B33AAC
:1028F0008F00B65BFFFFDFFFFFFFFFFFFFFFFFFF64
:10290000FFFFFFFFFFFFFFFFFFFFFFFFFFFFFFFFD7
:10291000FFFF9884EF001001BBADFFFFDFFFFFFF5B
:10292000FFFFFFFFFFFFFFFFFFFFFFFFFFFFFFFFB7
:10293000FFFFFFFFFFFFFFFFFFFF9EEF532A0F0187
:1029400030010F01AE092E01EF009101CF00778415
:10295000FFFFDFFFDFFFDEF791B6CA7D6875A97D57
:10296000B3B6FFFFFFFFFFFFFFFFFFFFFFFFFFFF0C
:10297000FFFFFFFFFFFFFFFFFFFFFFFFFFFFFFFF67
:10298000FFFFFEFFFFFFDFFFFEFF7DEF3222CF00E4
:10299000965BFFFFFFFFB9AD10011001D9ADFFFF3E
:1029A000FFFFFFFFFFFFFFFFDEFFFEFFF442AF0070
:1029B000DAADFFFFFFFFDDD67109F2119DEFFEFFDB
:1029C000FFFFFFFFFFFFFFFFFFFFFFFFFFFFFFFF17
:1029D000FFFFFFFFFFFFFFFFFFFF9884EF00EF0007
:1029E00059A5FFFFDFFFDFFFFFFFFFFFFFFFFFFF37
:1029F000FFFFFFFFFFFFFFFFFFFFFFFFFFFFFFFFE7
:102A0000BCCE312A10011001F221F8A5B2B6339ED6
:102A100014431001500191091DDFFFFFDEFFFFFF8E
:102A2000FFFF9CEF9BEFBDEFFFFFFFFFFFFFFFFFEF
:102A3000FFFFFFFFFFFFFFFFFFFFFFFFFFFFFFFFA6
:102A4000FFFFFFFFFFFFFFFFFFFFFFFFFFFFFFFF96
:102A5000FEFF3DE7F111CF00777CFFFFFFFFBCCE0B
:102A60005001EF0099A5FFFFDFFFFFFFFFFFFFFF12
:102A7000DEFFDEF7B332EF009CCEFFFFFEFF7DEFFF
:102A8000D111D2113DE7FFFFFFFFFFFFFFFFFFFF67
:102A9000FFFFFFFFFFFFFFFFFFFFFFFFFFFFFFFF46
:102AA000FFFF9884EF005001F221D663965B5553E7
:102AB000555355535553555355535553755BF663FD
:102AC000F663B663755B7553D119F000510150116F
:102AD0007CC6FFFFFFFFFFFF9EEF733A100110015E
:102AE000599DFFFFDEFFFFFFDFFFFFFFFFFFFFFF3F
:102AF000FFFFFFFFFFFFFFFFFFFFFFFFFFFFFFFFE6
:102B0000FFFFFFFFFFFFFFFFFFFFFFFFFFFFFFFFD5
:102B1000FFFFFFFFFFFFFFFFDEFFDFFFD442F000FC
:102B2000F111BAB5BCCE143B30017001BCCEFFFF31
:102B3000FFFFFFFFFFFFFFFFBEF7FFFFD6638E0023
:102B4000955B5EE79EEF977CD000B33AFEFFDFFF18
:102B5000FFFFFFFFFFFFFFFFFFFFFFFFFFFFFFFF85
:102B6000FFFFFFFFFFFFFFFFFFFFB8840F01B10969
:102B700051010F010F011001F00010011001F000D0
:102B80001001F000CF00EF00F000EF00CF00EF00E9
:102B900051019101CF00D442FEFFBEF7DEF7BEF730
:102BA000FFFFB784CF003001777CFFFFDEFFFFFF20
:102BB000FEFFFFFFFFFFFFFFFFFFFFFFFFFFFFFF26
:102BC000FFFFFFFFFFFFFFFFFFFFFFFFFFFFFFFF15
:102BD000FFFFFFFFFFFFFFFFFFFFFFFFFFFFFFFF05
:102BE000DFF7FFFFFAB5F0002F0130014F0131018F
:102BF000AF00D663FFFFDEFFFFFFFFFFFFFFFFFF1A
:102C0000DEFFFFFFDCD6B211AF00F111131AF000A6
:102C10001001FBB5FFFFDEFFFFFFFFFFFFFFFFFF20
:102C2000FFFFFFFFFFFFFFFFFFFFFFFFFFFFFFFFB4
:102C3000FFFF577C4E00D000CF00EF00EF00F00008
:102C4000EF00EF00EF00EF00CF00100191097109D4
:102C50009111B11991111001EF0070011001F221D1
:102C60007DEFFFFF9EF7BEF7FFFFB65BF000300180
:102C70001995FFFFDFFFDFFFFFFFFFFFFFFFFFFFF4
:102C8000FFFFFFFFFFFFFFFFFFFFFFFFFFFFFFFF54
:102C9000FFFFFFFFFFFFFFFFFFFFFFFFFFFFFFFF44
:102CA000FFFFFFFFFFFFFFFFDFFFDEF7FFFF799D65
:102CB000F1110F01F0009009D65B9EEFDEFFFEFFE1
:102CC000FFFFFFFFFFFFFFFFDFFFDFFFFFFF9BC6F1
:102CD000F442920970099332FAADFFFFDEFFFFFF65
:102CE000FFFFFFFFFFFFFFFFFFFFFFFFFFFFFFFFF4
:102CF000FFFFFFFFFFFFFFFFFFFF7CCED894399D52
:102D00001895199518951995189518951895399538
:102D1000189599A59CCE9CCEDCD61DDFBCCE9AA57D
:102D200055530F015001EF00955BDEF7FFFFFFFFEA
:102D300079A5500950015001BCCEFFFFDFFFFFFF16
:102D4000FFFFFFFFFFFFFFFFFFFFFFFFFFFFFFFF93
:102D5000FFFFFFFFFFFFFFFFFFFFFFFFFFFFFFFF83
:102D6000FFFFFFFFFFFFFFFFFFFFFFFFFFFFFFFF73
:102D7000FFFFFFFFFFFFFFFF5DE7DAAD99A5BCD6C0
:102D8000FFFFFFFFFFFFFFFFFFFFFFFFFFFFFFFF53
:102D9000FFFFFFFFFFFFFFFFFFFF1DDFFCDEFFFF69
:102DA000FFFFFFFFFFFFFFFFFFFFFFFFFFFFFFFF33
:102DB000FFFFFFFFFFFFFFFFFFFFFFFFFFFFFFFF23
:102DC000DFFFFFFFFFFFFFFFFFFFFFFFFFFFFFFF33
:102DD000FFFFFFFFFFFFFFFFFFFFFFFFFFFFFFFF03
:102DE000FFFFFFFFFFFFFFFFFFFF3995300151019C
:102DF0000F01B33AD88CD66351017001D0007553DE
:102E0000DFFFFEFFFFFFFFFFFFFFFFFFFFFFFFFFF3
:102E1000FFFFFFFFFFFFFFFFFFFFFFFFFFFFFFFFC2
:102E2000FFFFFFFFFFFFFFFFFFFFFFFFFFFFFFFFB2
:102E3000FFFFFFFFFFFFFFFFFFFFFFFFFFFFDFFFC2
:102E4000FFFFFFFFFFFFFFFFDFFFFFFFFFFFFFFFB2
:102E5000FFFFFFFFFFFFFFFFFFFFFFFFFFFFDFFFA2
:102E6000DFFFFFFFFFFFDFFFFFFFFFFFFFFFFFFFB2
:102E7000FFFFFFFFFFFFFFFFFFFFFFFFFFFFFFFF62
:102E8000FFFFFFFFFFFFFFFFFFFFDFF7BFF7DEF7EB
:102E9000DFF7DFFFDFFFDFFFDFFFDFFFDFF7DFFF52
:102EA000DFFFDFFFFFFFDFFFDFFFDFFFFFFFDEFFF3
:102EB000BEFFFFFFF994AF0070011001EF000F019A
:102EC0005001CF0053323EE7FFFFDFFFFFFFFFFF60
:102ED000FFFFFFFFFFFFFFFFFFFFFFFFFFFFFFFF02
:102EE000FFFFFFFFFFFFFFFFFFFFFFFFFFFFFFFFF2
:102EF000FFFFFFFFFFFFFFFFFFFFFFFFFFFFFFFFE2
:102F0000FFFFFFFFFFFFFFFFDEFFBEF7BEF7DFFFA4
:102F1000FFFFFFFFFFFFFFFFFFFFFFFFFFFFFFFFC1
:102F2000FFFFFFFFFFFFFFFFFFFFDFFFDEF7DEFF1B
:102F3000FFFFFFFFFFFFFFFFFFFFFFFFFFFFFFFFA1
:102F4000FFFFFFFFFFFFFFFFFFFFFFFFFFFFFFFF91
:102F5000FFFFFEFFFFFFDFFFFFFFFFFFFFFFFFFFA2
:102F6000FFFFFFFFFFFFFFFFFFFFFFFFFFFFFFFF71
:102F7000FFFFFFFFFFFFFFFFDFF7DFFFFFFFB7846C
:102F80005009300130011001500975535DE7FFFF12
:102F9000FEFFFFFFFFFFFFFFFFFFFFFFFFFFFFFF42
:102FA000FFFFFFFFFFFFFFFFFFFFFFFFFFFFFFFF31
:102FB000FFFFFFFFFFFFFFFFFFFFFFFFFFFFFFFF21
:102FC000FFFFFFFFFFFFFFFFFFFFFFFFFFFFFFFF11
:102FD000DFFFDEF7FFFFFFFFFFFFFFFFFFFFFFFF4A
:102FE000FFFFFFFFFFFFFFFFFFFFFFFFFFFFFFFFF1
:102FF000FFFFFFFFFFFFFFFFFFFFFFFFFFFFFFFFE1
:10300000FFFFFFFFFFFFFFFFFFFFFFFFFFFFFFFFD0
:10301000FFFFFFFFFFFFFFFFDFFFDFFFDFFFDFFF40
:10302000FFFFFFFFFFFFFFFFFFFFFFFFFFFFFFFFB0
:10303000FFFFFFFFFFFFFFFFFFFFFFFFFFFFFFFFA0
:10304000FFFFDFFFFFFFFFFF9CC6977CD65BB87CCE
:103050003CBEFFFFFFFFDFFFFFFFFFFFFFFFFFFFA4
:10306000FFFFFFFFFFFFFFFFFFFFFFFFFFFFFFFF70
:10307000FFFFFFFFFFFFFFFFFFFFFFFFFFFFFFFF60
:10308000FFFFFFFFFFFFFFFFFFFFFFFFFFFFFFFF50
:10309000FFFFFFFFFFFFFFFFFFFFFFFFFFFFFFFF40
:1030A000FFFFFFFFFFFFFFFFFFFFFFFFFFFFFFFF30
:1030B000FFFFFFFFFFFFFFFFFFFFFFFFFFFFFFFF20
:1030C000FFFFFFFFFFFFFFFFFFFFFFFFFFFFFFFF10
:1030D000FFFFFFFFFFFFFFFFFFFFFFFFFFFFFFFF00
:1030E000DFFFDFFFFFFFDFFFFFFFFFFFFFFFFFFF50
:1030F000FFFFFFFFFFFFFFFFFFFFFFFFFFFFFFFFE0
:10310000FFFFFFFFFFFFFFFFFFFFFFFFFFFFDFFFEF
:10311000FFFFFFFFFFFFFFFFFFFFFEFFDFFFFFFFE0
:10312000FFFFFFFFFFFFFFFFFFFFFFFFFFFFFFFFAF
:10313000FFFFFFFFFFFFFFFFFFFFFFFFFFFFFFFF9F
:10314000FFFFFFFFFFFFFFFFFFFFFFFFFFFFFFFF8F
:10315000FFFFFFFFFFFFFFFFFFFFFFFFFFFFFFFF7F
:10316000FFFFFFFFFFFFFFFFFFFFFFFFFFFFFFFF6F
:10317000FFFFFFFFFFFFFFFFFFFFFFFFFFFFFFFF5F
:10318000FFFFFFFFFFFFFFFFFFFFFFFFFFFFFFFF4F
:10319000FFFFFFFFFFFFFFFFFFFFFFFFFFFFFFFF3F
:1031A000FFFFFFFFFFFFFFFFFFFFFFFFFFFFFFFF2F
:1031B000FFFFFFFFFFFFFFFFFFFFFFFFFFFFFFFF1F
:1031C000FFFFFFFFFFFFFFFFFFFFFFFFFFFFFFFF0F
:1031D000FFFFFFFFFFFFFFFFDFFFFFFFFFFFFFFF1F
:1031E000FFFFFFFFFFFFFFFFFFFFFFFFFFFFFFFFEF
:1031F000FFFFFFFFFFFFFFFFFFFFFFFFFFFFFFFFDF
:10320000FFFFFFFFFFFFFFFFFFFFFFFFFFFFFFFFCE
:10321000FFFFFFFFFFFFFFFFFFFFFFFFFFFFFFFFBE
:10322000FFFFFFFFFFFFFFFFFFFFFFFFFFFFFFFFAE
:10323000FFFFFFFFFFFFFFFFFFFFFFFFFFFFFFFF9E
:10324000FFFFFFFFFFFFFFFFFFFFFFFFFFFFFFFF8E
:10325000FFFFFFFFFFFFFFFFFFFFFFFFFFFFFFFF7E
:10326000FFFFFFFFFFFFFFFFFFFFFFFFFFFFFFFF6E
:10327000FFFFFFFFFFFFFFFFFFFFFFFFFFFFFFFF5E
:10328000FFFFFFFFFFFFFFFFFFFFFFFFFFFFFFFF4E
:10329000FFFFFFFFFFFFFFFFFFFFFFFFFFFFFFFF3E
:1032A000FFFFFFFFFFFFFFFFFFFFFFFFFFFFFFFF2E
:1032B000FFFFFFFFFFFFFFFFFFFFFFFFFFFFFFFF1E
:1032C000FFFFFFFFFFFFFFFFFFFFFFFFFFFFFFFF0E
:1032D000FFFFFFFFFFFFFFFFFFFFFFFFFFFFFFFFFE
:1032E000FFFFFFFFFFFFFFFFFFFFFFFFFFFFFFFFEE
:1032F000FFFFFFFFFFFFFFFFFFFFFFFFFFFFFFFFDE
:10330000FFFFFFFFFFFFFFFFFFFFFFFFFFFFFFFFCD
:10331000FFFFFFFFFFFFFFFFFFFFFFFFFFFFFFFFBD
:10332000FFFFFFFFFFFFFFFF0000000000000000A5
:10333000000000000000000000000010101010103D
:10334000101000001010000000122424480000009B
:1033500000000000000000000000001212127E2495
:1033600024247E24242400000000083C4A4A4838D3
:103370000C0A0A4A4A3C080800000044A4A8A8B065
:10338000541A2A2A4A440000000000304848485095
:103390006EA4949889760000006020204000000010
:1033A00000000000000000000002040808101010D7
:1033B000101010080804020000402010100808082F
:1033C0000808081010204000000000001010D63837
:1033D00038D61010000000000000000000080808A7
:1033E0007F08080800000000000000000000000046
:1033F00000000000602020400000000000000000ED
:103400007E0000000000000000000000000000003E
:1034100000000000606000000000020404040808CE
:1034200010101020204040000000001824424242AA
:1034300042424242241800000000000838080808F0
:1034400008080808083E00000000003C4242420212
:1034500004081020427E00000000003C42420204AA
:1034600018040242423C0000000000040C0C14242A
:1034700024447F04041F00000000007E4040407888
:103480004402024244380000000000182440405C1E
:1034900062424242221C00000000007E42040408F6
:1034A00008101010101000000000003C424242249E
:1034B00018244242423C000000000038444242428C
:1034C000463A02022418000000000000000018180C
:1034D00000000000181800000000000000000010AC
:1034E000000000000010101000000002040810206E
:1034F00040201008040200000000000000007E00D0
:10350000007E0000000000000000004020100804C1
:1035100002040810204000000000003C4242620407
:10352000080808001818000000000038445AAAAA29
:10353000AAAAAA5C423C000000000010101828282B
:10354000243C444242E70000000000F84444447830
:103550004442424244F800000000003E4242808063
:103560008080804244380000000000F8444242421B
:103570004242424244F80000000000FC42484878C1
:103580004848404242FC0000000000FC42484878A5
:103590004848404040E000000000003C4444808037
:1035A000808E844444380000000000E742424242DA
:1035B0007E42424242E700000000007C10101010E2
:1035C00010101010107C00000000003E08080808D1
:1035D00008080808080888F0000000EE4448507009
:1035E0005048484444EE0000000000E040404040A5
:1035F0004040404042FE0000000000EE6C6C6C6CED
:103600006C54545454D60000000000C762625252F9
:103610004A4A4A4646E2000000000038448282825C
:103620008282828244380000000000FC4242424212
:103630007C40404040E0000000000038448282822C
:10364000828282B24C380600000000FC4242427C7A
:103650004848444442E300000000003E424240200B
:1036600018040242427C0000000000FE921010107C
:103670001010101010380000000000E742424242D3
:1036800042424242423C0000000000E742424424E1
:103690002428281810100000000000D65454545458
:1036A000546C282828280000000000E74224241831
:1036B0001818242442E70000000000EE44442828A3
:1036C00010101010103800000000007E840408085C
:1036D0001020204242FC0000001E1010101010109C
:1036E0001010101010101E0000004020202010109C
:1036F00010080804040402020078080808080808F2
:1037000008080808080878000018240000000000D5
:1037100000000000000000000000000000000000A9
:1037200000000000000000FF00601000000000002A
:103730000000000000000000000000000000003851
:10374000440C34444C36000000000000C040405897
:103750006442424264580000000000000000001C67
:1037600022404040221C0000000000000602023EF1
:1037700042424242463B0000000000000000003C84
:1037800042427E40423C0000000000000C12107CCF
:1037900010101010107C0000000000000000003E1F
:1037A000444438403C42423C00000000C040405C81
:1037B0006242424242E700000000003030000070E8
:1037C00010101010107C00000000000C0C00001CF9
:1037D000040404040404447800000000C040404E87
:1037E0004850704844EE00000000001070101010A7
:1037F00010101010107C000000000000000000FEFF
:103800004949494949ED000000000000000000DC82
:103810006242424242E70000000000000000003C1B
:1038200042424242423C000000000000000000D83A
:1038300064424242645840E0000000000000001A68
:1038400026424242261A020700000000000000EE55
:103850003220202020F80000000000000000003E80
:1038600042403C02427C0000000000000010107C3E
:1038700010101010120C000000000000000000C624
:1038800042424242463B000000000000000000EEC1
:10389000444428281010000000000000000000DB55
:1038A000894A5A54242400000000000000000076D9
:1038B00024181818246E000000000000000000E723
:1038C0004224241818101060000000000000007E40
:1038D00044081010227E00000003040404040404C1
:1038E0000804040404040300080808080808080879
:1038F000080808080808080800C020202020202008
:10390000102020202020C000205A040000000000C9
:1039100000000000000000000000000000001FE0A8
:1039200000003FF000003FF000001FE000018006B3
:103930000003C00F0003C00F0003C00F0003C00F3F
:103940000003C00F0003C00F0003C00F0003C00F2F
:103950000003000300000000000000000000000061
:10396000000300030003C00F0003C00F0003C00FDB
:103970000003C00F0003C00F0003C00F0003C00FFF
:103980000003C00F0001800600001FE000003FF0B0
:1039900000003FF000001FE00000000000000000F9
:1039A000000000800000018000000380000007800C
:1039B00000000780000007800000078000000780EB
:1039C00000000780000007800000078000000780DB
:1039D0000000018000000000000000000000000066
:1039E00000000180000007800000078000000780C1
:1039F00000000780000007800000078000000780AB
:103A000000000780000007800000038000000180A4
:103A100000000080000000000000000000001FE027
:103A200000003FF00000FFF00001FFE00000000692
:103A30000000000F0000000F0000000F0000000F4A
:103A40000000000F0000000F0000000F0000000F3A
:103A500000001FE300007FF800007FF800001FE077
:103A6000000300000003C0000003C0000003C0000A
:103A70000003C0000003C0000003C0000003C0003A
:103A80000003C0000001800000001FF000003FF8AC
:103A900000003FFC00001FFE000000000003FF804C
:103AA0000001FFC00000FFC000007F800000001880
:103AB0000000003C0000003C0000003C0000003C16
:103AC0000000003C0000003C0000003C0000003C06
:103AD00000007F8C0001FFE00001FFF000007F800C
:103AE0000000000C0000003C0000003C0000003C16
:103AF0000000003C0000003C0000003C0000003CD6
:103B00000000003C0000001800007F800000FFC0A3
:103B10000001FFC00003FF80000000000000000063
:103B20000002000100030003000380070003C00F30
:103B30000003C00F0003C00F0003C00F0003C00F3D
:103B40000003C00F0003C00F0003C00F0003C00F2D
:103B500000031FE300007FF800007FFC00001FE06F
:103B6000000000030000000F0000000F0000000F25
:103B70000000000F0000000F0000000F0000000F09
:103B80000000000F0000000F00000007000000030D
:103B900000000001000000000000000000001FFC09
:103BA00000003FF800003FF000001FE0000180002F
:103BB0000003C0000003C0000003C0000003C000F9
:103BC0000003C0000003C0000003C0000003C000E9
:103BD00000031FE000007FF800007FF800001FE0F6
:103BE000000000030000000F0000000F0000000FA5
:103BF0000000000F0000000F0000000F0000000F89
:103C00000000000F0000000600003FE000007FF011
:103C10000000FFF00001FFE00000000000001FFCBA
:103C200000003FF800003FF000001FE000018000AE
:103C30000003C0000003C0000003C0000003C00078
:103C40000003C0000003C0000003C0000003C00068
:103C500000031FE000007FF800007FFC00001FE071
:103C6000000300030003C00F0003C00F0003C00FD8
:103C70000003C00F0003C00F0003C00F0003C00FFC
:103C80000003C00F0001800600001FE000003FF0AD
:103C900000003FF000001FE0000000000007FFE010
:103CA0000003FFC00001FF880000FF18000000387B
:103CB0000000007800000078000000780000007824
:103CC0000000007800000078000000780000007814
:103CD00000000018000000000000000000000000CC
:103CE0000000001800000078000000780000007854
:103CF00000000078000000780000007800000078E4
:103D00000000007800000078000000380000001873
:103D100000000008000000000000000000001FE09C
:103D200000003FF000003FF000001FE000018006AF
:103D30000003C00F0003C00F0003C00F0003C00F3B
:103D40000003C00F0003C00F0003C00F0003C00F2B
:103D500000031FE300007FF800007FFC00001FE06D
:103D6000000300030003C00F0003C00F0003C00FD7
:103D70000003C00F0003C00F0003C00F0003C00FFB
:103D80000003C00F0001800600001FE000003FF0AC
:103D900000003FF000001FE00000000000001FE0F6
:103DA00000003FF000003FF000001FE0000180062F
:103DB0000003C00F0003C00F0003C00F0003C00FBB
:103DC0000003C00F0003C00F0003C00F0003C00FAB
:103DD00000031FE300007FF800007FFC00001FE0ED
:103DE000000000030000000F0000000F0000000FA3
:103DF0000000000F0000000F0000000F0000000F87
:103E00000000000F0000000600001FE000003FF06F
:103E100000007FF00000FFE0000000000000000054
:103E20000000000000000000000000000000000092
:103E30000000000000000000000000000000000082
:103E40000000000000000000000000000000000072
:103E50000000000000000000000000000000000062
:103E600000000000000000000000000000007800DA
:103E70000000780000007800000078000000780062
:103E800000007800000000000000000000000000BA
:103E90000000000000000000000000000000000022
:103EA0000000000000000000000000000000000012
:103EB00000000000000000000000070000000F806C
:103EC00000000F8000000F800000070000000000CD
:103ED00000000000000000000000000000000000E2
:103EE000000000000000070000000F8000000F80AD
:103EF00000000F800000070000000000000000002C
:103F000000000000000000000000000000000000B1
:103F100000000000000000000000000000000000A1
:103F200000000000000000000007C006000FE006CF
:103F30000000000C0030181800301818003018303D
:103F40000030183000301860003008C00007C0C0D2
:103F5000000FE080000000000000000FE0000607F6
:103F6000C000063018000C3018000C301800183053
:103F70001800303018003030180060000000C00F0A
:103F8000E000C007C00000000000000000000000CA
:103F90000000000000000000000000000000000021
:103FA0000000000000000000000000000000000011
:103FB000000700E0000887FC00088E030008980155
:103FC0008007180080003000000030000000700002
:103FD0000000600000006000000060000000600061
:103FE00000006000000070000000300000003000A1
:103FF000000038000000180100000C03000007FC5E
:10400000000001F0000000000000000000000000BF
:1040100000000000000000000000000000000000A0
:104020000000000000000000000000000000000090
:104030000000000000000000000000000000000080
:104040000000000000000000000000000000000070
:104050000000000000003FF000007FF000007FE063
:104060000000FFC000000000000000000000000091
:104070000000000000000000000000000000000040
:104080000000000000000000000000000000000030
:1040900000000000000000000000D1D5100008FE64
:1040A0007F102220147C7F4444544854525444547A
:1040B000485451544228442488423082C9AB0800F5
:1040C00008001FE020204040BFF8210821082108F7
:1040D0003FF820002002200220021FFE0000CCEE4C
:1040E0002040204027FC204023F8FA0823F822082B
:1040F00023F8220823F83A08EFFE411002080404CE
:10410000B3E402000100FFFE0400040008201010C8
:104110003FF8044804400440044008440844104464
:10412000603CC2CC100011F82008200849F8F808BB
:10413000100823FE4020FA22417400A81924E2222C
:1041400040A00040C9EE000027FC140414A4811014
:1041500042084040104017FC2040E0E02150224837
:104160002C4620400040C6EC2100110011FE020048
:10417000FC8821FC20883CF8248824F824882488A2
:1041800027FE445054888904BDA2100021FC7D0400
:104190004504652455245524FD2445246554545074
:1041A00054504490449255128A0EB5EA01000080A2
:1041B0003FFE20802080208020FC2080208027F867
:1041C000240824084408440887F80408D7DB104072
:1041D000102023FE22024800F9FC1000200043FEBC
:1041E000F820412801241A22E42240A00040BACF3E
:1041F000010001000280044008203018CFE60000D2
:1042000000001FF010101010101010101FF01010F0
:10421000B2E2000427C41444145485544554455450
:10422000155415542554E5542104228422442414A1
:104230000808CAD4002820241024102007FE0020DB
:10424000F02017E0112011101110151019CA170ACB
:1042500002060002B0E51008101C11E01100FD007C
:1042600011FC31443944554455289128111011103E
:10427000122812441482CFD400001FF01010101026
:104280001FF0101010101FF0044044442444144840
:1042900014500440FFFE0000CABE00003FF80000BA
:1042A000000000000000FFFE0100010011101108D5
:1042B00021044102810205000200D6D00100010064
:1042C000010001003FF821082108210821082108E8
:1042D0003FF821080100010001000100D3A20820DD
:1042E0000820FFFE0820010001001FF0111011102E
:1042F0001110FFFE0280044008203018C006CEC412
:10430000020001000100FFFE10101010082008201C
:104310000440028001000280044008203018C006DA
:10432000CAFD082049202A20083EFF442A44494467
:1043300088A41028FE28221042106428182834442B
:10434000C282D7D6020001007FFE400280041FE037
:10435000004000800100FFFE01000100010001009B
:1043600005000200CDBC00007FFC4204420447E48B
:104370004C445284410446C4783C4304408446047F
:1043800041847FFC4004C6AC004010401040104007
:1043900010401FFC1000100010001FE01020102023
:1043A0001020202020204020C2EB000001F8FC0853
:1043B0001008108820883C8864FE6402A40224024D
:1043C00025FA3C02240220140008B9DC20403F7E7C
:1043D0004890850801007FFE40029FE410201FE006
:1043E00010001FF0101010101FF01010000000003F
:1043F00000000000000000000000000000000000BD
:104400000000000000000000000000000000B4BF39
:10441000000000000000020100063FC00C3FE01851
:1044200003001002003336603726203E66301C64DD
:104430003018642031FEE03F1FC01C0C00000C004F
:104440000704003E07F00001C0000000000000006B
:104450000000000000000000C9AB000000000000E8
:1044600001FE0003E3000703000C03001C3F003BB8
:10447000FFC03F30600C30200C30200C10200C109E
:10448000600FFFC0083F000800000800600E3FE01A
:1044900007FC000000000000000000000000000019
:1044A0000000CCEE00000000000000030000FFE070
:1044B0000C07F00C06000CFF803FF0E01FC0600C02
:1044C000FE300CCC3004F83004FF2004C0201FFE66
:1044D000603EC06001FFF001FFF00060600040003E
:1044E000000000000000000000000000B3E4000035
:1044F0000000000000200000300007FFF03FFFE058
:104500000300000601800C01800801C01807E00FBD
:10451000FE7007E000020600060400040400040424
:10452000000C06700C07E000000000000000000016
:10453000000000000000B2E20000000000000000E7
:104540003039FC301FCC300706B00F06F01907B029
:104550003137B03136F01F27F00167F001E5F00187
:10456000E1F00041F00CF8B03CD830008C30008015
:10457000300000000000000000000000000000000B
:10458000CAD40000000000000803600C03700C0394
:1045900030003FE0003F800801003C0180047F8044
:1045A000047D800C00800C10C00C10C00C18400C56
:1045B0001C600F7E600670300000300000000000BC
:1045C00000000000000000000000CEC40000000059
:1045D000C00000E00000700001FFE01FFFC01801F4
:1045E00000000300000600000E00001C000E180072
:1045F00007300001E00000F00000FC00018F000324
:1046000003C00201E0000000000000000000000004
:1046100000000000D7D600000000000000200000CD
:104620003F0031FFE03FC02038003030FE2033C66D
:1046300060100200000C00001800001800000C00C0
:1046400007FFE03FFFE0000400000C00000C00004A
:104650000000000000000000000000000000CFD4B7
:1046600000000000000007FF000F03C00C00401F07
:10467000F8601800600800400E01C007FF0000004D
:10468000000184000184001987800F8CE0078C20D2
:1046900000CC0003FFE01FFFC0000000000000008E
:1046A0000000000000000000CABE00000000000082
:1046B0000E00001FFFC0007FE000000000000000AF
:1046C0000000000000003FC03FFFE000300000306D
:1046D000000030000613000C13C00C18F01818006E
:1046E000181800000000000000000000000000009A
:1046F0000000CDBC00000000000007FF000F038099
:104700001CC0C019FC6011C66033062033E6303689
:10471000FF30301FF030703030FC30339F303600C7
:104720002010E060187C400E01C003FF000038003C
:10473000000000000000000000000000C6AC000007
:1047400000000000081800180800180800180800E9
:10475000180C201FFFF01FF80018000010000010B8
:10476000F8001FFE001E03001003001003001003DA
:10477000001003001802000000000000000000000C
:10478000000000000000CFD400000000000007FF80
:10479000000F03C00C00401FF860180060080040C4
:1047A0000E01C007FF000000000184000184001911
:1047B00087800F8CE0078C2000CC0003FFE01FFFF8
:1047C000C000000000000000000000000000000029
:1047D000CABE0000000000000E00001FFFC0007FE6
:1047E000E0000000000000000000000000003FC0EA
:1047F0003FFFE00030000030000030000613000CE6
:1048000013C00C18F0181800181800000000000061
:1048100000000000000000000000B4A5000000003F
:1048200000000601800FC1801E6180304FC020CF84
:10483000E0078D303FC9303379303379303FFB307A
:1048400037FF203267E03FE3803FE3C032636032EE
:1048500067F0304FB00000000000000000000000D2
:1048600000000000C3FE0000000000000030C00097
:10487000FFF00C79C00C1F800C7FE03FE0600CC0A3
:10488000300CFC3004C03007C0301E60603C3FC0BC
:10489000041C00047FE000FFE00030C00060600006
:1048A0000000000000000000000000000000CAE45A
:1048B0000000000000000C03800C0FC0081C703FBB
:1048C00070001F9FC0101FC0100000367C3017E61C
:1048D000301FE3B0067FB00277F007E3F03F7FF0D0
:1048E0001336F003263003263000000000000000DD
:1048F0000000000000000000C8EB00000000000005
:1049000006000003800001C00000E000007000000D
:10491000780000CC0000C60001830003018007007E
:10492000C00600E00C0070180030180000300000D5
:104930000000000000000000000000000000000077
:104940000000000000000000000000000000000067
:104950000000000000000000000000000000000057
:104960000000000000000000000000000000000047
:104970000000000000000000000000000000000037
:10498000000000000000000000000000AC4900082A
:104990000000002018000000A00A0008C449000818
:1049A0001800002000040000B00A000800A24A0419
:1049B00000000000000000000102030406070809CF
:0449C00000000000F3
:0400000508000145A9
:00000001FF
