:020000040800F2
:10000000A80400209D0100084F10000813100008EC
:100010004D100008A9020008951500080000000016
:100020000000000000000000000000005310000865
:10003000AB02000800000000511000085510000835
:10004000B7010008B7010008B7010008B7010008B0
:10005000B7010008B7010008B7010008B7010008A0
:10006000B7010008B7010008B7010008B701000890
:10007000B7010008B7010008B7010008B701000880
:10008000B7010008B7010008B7010008B701000870
:10009000B7010008B7010008B7010008B701000860
:1000A000B7010008B7010008B7010008B701000850
:1000B000B7010008B7010008B7010008B701000840
:1000C000B7010008B7010008B7010008B701000830
:1000D000B701000889150008B7010008B70100083A
:1000E000B7010008B7010008B7010008B701000810
:1000F000B7010008B7010008B7010008B701000800
:10010000B7010008B70100082D110008B701000869
:10011000B7010008B7010008B7010008B7010008DF
:10012000B7010008B7010008B7010008B7010008CF
:10013000B7010008B7010008B7010008B7010008BF
:10014000B7010008B7010008B7010008B7010008AF
:10015000B7010008B7010008B7010008B70100089F
:10016000B7010008B7010008B7010008B70100088F
:10017000B7010008B7010008B7010008000000003F
:10018000B7010008B7010008DFF80CD000F07AF8DA
:100190000048004721160008A804002006488047B0
:1001A00006480047FEE7FEE7FEE7FEE7FEE7FEE75C
:1001B000FEE7FEE7FEE7FEE7D91000088901000828
:1001C0002DE9F05F0546002092469B46884606468C
:1001D000814640241BE0284641464746224600F01F
:1001E00041F853465A46C01A914110D31146184659
:1001F000224600F028F82D1A67EB01084F462246E8
:100200000120002100F01FF817EB00094E41201ECD
:10021000A4F10104DFDC484631462A464346BDE8E6
:10022000F09FD2B201E000F8012B491EFBD27047CB
:100230000022F6E710B513460A4604461946FFF7B2
:10024000F0FF204610BD202A04DB203A00FA02F11C
:10025000002070479140C2F1200320FA03F31943B4
:1002600090407047202A04DB203A21FA02F0002156
:10027000704721FA02F3D040C2F1200291400843B6
:1002800019467047064C074D06E0E06840F0010350
:1002900094E8070098471034AC42F6D3FFF778FF94
:1002A0006416000884160008FEE77047704790F84F
:1002B0003510022903D080214165012070470521B6
:1002C00080F835100068016821F00101016000200C
:1002D0007047000070B5044600F0E6F80546601C63
:1002E00002D004480078044400F0DEF8401BA0422D
:1002F000FAD370BD040000202DE9F84FDFF87CB17F
:1003000000224FF001084FF0030A4FF00F090BF1E4
:10031000040E00BF0B6808FA02F42340A3426ED11A
:100320004D68022D01D0122D0ED1D50800EB850CA1
:10033000DCF820505607F70E09FA07F6B5430E69A8
:10034000BE402E43CCF82060066855000F790AFAAB
:1003500005FC07F0030726EA0C06AF4037430760A9
:100360004E68012E05D0022E03D0112E01D0122E80
:100370000ED18668CF6826EA0C06AF403743876007
:100380004668A6430C79C4F3001494403443446097
:10039000C6688C6826EA0C06AC403443C4604C68DE
:1003A000E40065D5364C256845F480452560246811
:1003B00022F0030504F480440094324C2E19D6F840
:1003C000084895072F0F09FA07F5AC432E4DA842B0
:1003D00001D1002524E02D4DA84201D101251FE0C7
:1003E0002B4DA84201D102251AE02A4DA84201D185
:1003F000032515E0284DA84202D1042510E037E07E
:10040000264DA84201D105250AE0254DA84201D17B
:10041000062505E0234DA84201D1072500E0082567
:10042000BD402543C6F80858DBF800405D464E68DD
:100430009C43F60300D51C432C60DEF80040754653
:100440004E689C43B60300D51C432C600B4D083509
:100450002C684E689C43F60200D51C432C60074D67
:100460000C352C684E689C43B60200D51C432C60AA
:10047000521C102AFFF44EAFBDE8F88F003C01403B
:1004800044380240003001400000024000040240B5
:1004900000080240000C024000100240001402401C
:1004A00000180240001C02400148806870470000AC
:1004B000040000200248816802781144816070477E
:1004C000040000200B4810B5016841F40071016080
:1004D000016841F480610160016841F4807101604C
:1004E000032000F06FF8002000F006F800F024F878
:1004F000002010BD003C024070B50D4D04464FF485
:100500007A712878B1FBF0F00A490968B1FBF0F084
:1005100000F0E2FA48B9102C07D200222146501E02
:1005200000F030F800206C6070BD012070BD00004C
:1005300004000020100000200A4808B5016841F4BA
:1005400080410160006800F4804000900548001F71
:10055000016841F080510160006800F08050009017
:1005600008BD000044380240002809DB00F01F02EB
:10057000012191404009800000F1E020C0F8001105
:1005800070470000F0B40E4B1B680C46C3F3022307
:10059000C3F10705042D00D90425191D072901D22F
:1005A000002300E0DB1E012606FA05F1491E21406A
:1005B00099409E40761E16403143F0BC00F0F4BFD7
:1005C0000CED00E0064900F0070208684FF6FF0353
:1005D000184040EA0220034A1043086070470000B8
:1005E0000CED00E00000FA052DE9F0470E4605008D
:1005F00065D0DFF81481D8F80000F7B200F00F00E2
:10060000B04207D288F80070D8F8000000F00F0060
:10061000B04254D128683D4C810712D5400703D51C
:10062000206840F4E05020602878000703D5206857
:1006300040F4604020602068A96820F0F000084382
:1006400020602878C0072DD0304968680839012813
:1006500012D0022813D0032811D009688907002975
:100660002DDA216821F0030101432160FFF71CFF0F
:10067000814641F2883A0EE009688903EFE709688C
:100680008901ECE7FFF710FFA0EB0901514502D902
:100690000320BDE8F0872068696800F00C00B0EB2B
:1006A000810FEFD1D8F80010404601F00F01B142A0
:1006B00007D90770006800F00F00B04201D0012098
:1006C000E7E72878400705D52068E96820F4E0507E
:1006D000084320602878000706D52068296920F49F
:1006E000604040EAC100206000F036F82168084A06
:1006F000C1F30311515CC840064908600020FFF7B0
:10070000FBFE0020C5E70000003C02400838024024
:100710004C160008100000200448054900680968CC
:10072000044AC1F38221515CC84070471000002088
:10073000083802405C16000804480549006809684A
:10074000044AC1F34231515CC84070471000002098
:10075000083802405C160008154810B5006810F013
:100760000C02144813D01449042A0FD0082A0ED1C1
:100770000F4C241F2268236802F03F025B0207D55A
:100780002068C0F38810A0FB010106E0084610BDF8
:100790002168C1F38811A1FB00010023FFF710FDC0
:1007A0002168C1F30141491C4900B0FBF1F010BDC3
:1007B000083802400024F40080BA8C012DE9F84F7B
:1007C000050076D02878DFF8F8B2BE4CC00749D0D3
:1007D000DBF800105846C1F38101012908D00068F8
:1007E000C0F3810002280AD1201D0068400206D50E
:1007F0002068800336D568680028E2D032E0686857
:10080000B0F5803F10D0B0F5A02F206810D020F4B4
:1008100080302060206820F4802020606868A0B1CB
:10082000FFF742FE06460CE0206840F48030F4E713
:1008300040F480202060F7E7FFF736FE801B642835
:1008400073D820688003F7D50CE0FFF72DFE06462D
:1008500005E000BFFFF728FE801B6428F0D8206861
:100860008003F7D42878DFF8608280074FF0000912
:100870003ED5DBF80010584611F00C0F09D0006887
:10088000C0F3810002280BD18D48001F0068400290
:1008900006D42068800715D5E868012809D111E041
:1008A000E868B8B10120C8F80000FFF7FDFD064672
:1008B00005E002E1FFF7F8FD801B0228C0D82068A0
:1008C0008007F7D52068296920F0F80040EAC100C8
:1008D00020600DE0C8F80090FFF7E6FD064604E052
:1008E000FFF7E2FD801B02281FD820688007F7D49D
:1008F0002878000722D5724E744869696C3671B148
:1009000001210160FFF7D0FD074604E0FFF7CCFDB1
:10091000C01B022809D830688007F7D50EE0C0F860
:100920000090FFF7C1FD074605E083E0FFF7BCFD3F
:10093000C01B02287ED830688007F7D4287840078B
:1009400068D5DFF87CA100270AF1380ADAF8000040
:10095000C0000BD4DAF8001041F08051CAF8001042
:10096000DAF80000012700F080500090584E3068FF
:10097000C00510D4306840F480703060FFF794FDFB
:10098000009005E0FFF790FD0099401A022851D829
:100990003068C005F6D54A4EA868683601280FD0E1
:1009A0000528306810D020F001003060306820F059
:1009B00004003060A868B8B1FFF776FD00900FE042
:1009C000306840F00100F4E740F004003060F7E7E1
:1009D000FFF76AFD0099411A41F28830814264D8DC
:1009E00030688007F4D50EE0FFF75EFD009007E069
:1009F000FFF75AFD0099411A41F28830814254D8DC
:100A000030688007F4D42FB1DAF8001021F080515B
:100A1000CAF80010A869C0B3DBF80010C1F3810167
:100A200002294AD00228484607D0C8F86000FFF7DC
:100A30003BFD00E039E005463AE04746C8F8600073
:100A4000FFF732FD064604E0FFF72EFD801B02286B
:100A50002BD820688001F7D4D5E907010843A96A9B
:100A60001C4A490802EB01416A6A41EA82110843C3
:100A700095F82C1040EA01611148001F0160012027
:100A80003866FFF711FD054605E014E0FFF70CFDA1
:100A9000401B022809D820688001F7D50BE000BF71
:100AA000FFF702FD401B022802D90320BDE8F88FA2
:100AB00020688001F4D40020F8E70120F6E7000068
:100AC000083802400038024000004742800E47428A
:100AD000007000400000FFFF10B5401EB0F1807FA5
:100AE00001D3012010BD4FF0E02460610F21601799
:100AF00000F05AFD0020A06107202061002010BDF9
:100B00007047704770B500681449884212D1144C80
:100B1000144D207801280ED002280BD10021124854
:100B200000F009F9686000210F4800F01FF82078F4
:100B3000401C207070BD00210B4800F0FCF82860BC
:100B4000094801680A6A4FF6F5731A400A6200689C
:100B5000016A41F002010162E9E70000000C004077
:100B600000000020180000202400002010B50268BA
:100B7000044631B1042908D008291ED00C2908D117
:100B80001FE0D06820F0020002E0D06820F00400EE
:100B9000D0600022206800F0CFFA2068016A41F29C
:100BA0001112114207D1016A9210114203D101685A
:100BB00021F001010160002010BDD06820F0080084
:100BC000E6E7D06820F01000E2E770B50446006860
:100BD00001694FF00005C943890715D4C168C943AD
:100BE000890711D4E91E01610120207720688069FE
:100BF0008007204602D0FFF785FF04E000F098F858
:100C0000204600F096F8257720680169C943490716
:100C100017D4C168C943490713D46FF004010161B7
:100C2000022020772068806910F4407F204602D09F
:100C3000FFF768FF04E000F07BF8204600F079F849
:100C4000257720680169C943090716D4C168C943DB
:100C5000090712D46FF00801016104202077206891
:100C6000C0698007204602D0FFF74CFF04E000F087
:100C70005FF8204600F05DF8257720680169C943D8
:100C8000C90617D4C168C943C90613D46FF010014F
:100C90000161082020772068C06910F4407F204659
:100CA00002D0FFF72FFF04E000F042F8204600F0EA
:100CB00040F8257720680169C943C90708D1C16890
:100CC000C943C90704D1891E0161204600F032F8EA
:100CD00020680169C943090609D4C168C9430906E6
:100CE00005D46FF0800101612046FFF709FF2068FD
:100CF0000169C943490609D4C168C943490605D4F5
:100D00006FF040010161204600F02AF82068016977
:100D1000C94389060BD4C168C943890607D46FF05B
:100D2000200101612046BDE87040FFF7EABE70BDBA
:100D30007047704770470246002041B1042909D02E
:100D400008290AD00C2901D11068006C704710687E
:100D5000406B70471068806B70471068C06B7047BD
:100D60007047704770B5026804461068D1685369CF
:100D700010F00F0F50D003F0010501F490763543C9
:100D80005DD0C20705D0CA0503D5E26B42F001026F
:100D9000E263420705D5DA0703D0E26B42F00202B4
:100DA000E263820705D5DA0703D0E26B42F0040262
:100DB000E263020705D5DA0703D0E26B42F00802CE
:100DC000E263E26B002A33D0800604D5880602D5A0
:100DD000204600F0D4F920684069E16BC0F3801030
:100DE000090700D428B3204600F0BBF92068416908
:100DF00049061AD5416921F040014161606BA0B1FB
:100E00001B490165606BFFF752FA002810D0606B38
:100E1000016DBDE870400847830610D58B060ED5DE
:100E20002046BDE8704000F0AAB92046FFF799FFC0
:100E300070BD2046FFF795FF0020E06370BD0306FC
:100E400006D50B0604D52046BDE8704000F038BB3F
:100E50004006F3D54806F1D5D168204621F040017F
:100E6000D160202184F8391000F0D2F870BD000064
:100E70005311000870B5040004D094F8390000251F
:100E800010B106E0012070BD84F83850204600F013
:100E900023F8242084F839002068C16821F4005127
:100EA000C160204600F0B6F92068016921F4904144
:100EB00001612068416921F02A0141612068C1680F
:100EC00041F40051C160E563202084F8390084F8C2
:100ED0003A00002070BD000010B586B00446142111
:100EE0006846FFF7A5F918492068884229D11748B4
:100EF000016841F010010160006800F010000590E9
:100F000012481438016841F0010101600068694627
:100F100000F0010005904FF4C060009002200190A5
:100F20000120029003200390072004900848FFF757
:100F3000E3F9002201212520FFF724FB2520FFF7FC
:100F400013FB06B010BD0000001001404438024001
:100F50000000024070472DE9F843044690F839003C
:100F60001F4616460D46202850D1A5B19EB194F8D3
:100F7000380001284AD0012084F838004FF00008DA
:100F8000C4F83C80212084F83900FFF78DFAA6844C
:100F90008146E68426E00120BDE8F883E08C401E0F
:100FA000E084A0684B46B0F5805F4FF000024FF040
:100FB00080012046009703D000F0B3FAE8B90DE0B5
:100FC00000F0AFFAC8B928882168C0F3080048606B
:100FD000206908B16D1C05E0AD1C03E0216815F81F
:100FE000010B4860E08C0028D8D14B4600224021FC
:100FF0002046009700F095FA08B10320CCE72020A6
:1010000084F8390084F838800020C5E70220C3E75F
:101010007047FEE70C4810B50A4901604FF4E13112
:101020004160002181600C22C160C0E9041281612D
:10103000C161FFF71FFF002803D0BDE81040FFF794
:1010400035B910BD0010014064000020FEE7704774
:1010500070477047FFF72EBA30B593B0302168461D
:10106000FFF7E6F814210CA8FFF7E2F8184800256E
:10107000016841F080510160006800F080501190DB
:101080001448016841F4804101600068022400F4C2
:101090008040119001200090000401908001CDE972
:1010A00006400D2008904820CDE9090404200B904B
:1010B0006846FFF783FB0CA90F2081E83100E002AE
:1010C000CDE90F0502210CA8FFF78EFA13B030BD51
:1010D00040380240007000401048016841F470013F
:1010E00001600F48016841F0010101600C4A0021D4
:1010F0000832116002680B4B1A400260031D0A4A55
:101100001A60026822F48022026005480C300160F7
:1011100002495806803908607047000088ED00E0F9
:1011200000380240FFFFF6FE103000240148FFF7B0
:101130004CBD00002400002010B501F01F03012168
:10114000046A99408C430462016A9A401143016227
:1011500010BD10B5806B0021C185C184FFF701FE71
:1011600010BD0168CA6822F49072CA6001684A69B9
:1011700022F001024A61202180F83A10704710B530
:1011800090F83A10222901D0022010BD8168B1F5F3
:10119000805F11D00169002901681FD0496801F002
:1011A0007F03816A4A1C82620B70C18D491E09044B
:1011B000090CC18518D02BE00269816A002A0268F7
:1011C000526805D0D2B20A80816A491C8162ECE77C
:1011D000C2F308020A80816A891CF7E74A68816ABB
:1011E0004B1C83620A70E0E70168CA6822F02002A3
:1011F000CA600168CA6822F48072CA6001684A69DC
:1012000022F001024A61202180F83A10FFF7A2FE85
:10121000002010BD2DE9F041044600680169E26834
:1012200021F44051114301612169A068E26908433A
:101230006169114322680843D16849F20C639943FC
:101240000143D16020684169A26921F440711143D2
:101250004161E2696425B2F5004F974897492268D9
:101260004FF032083FD08A4201D082427CD1FFF752
:1012700063FA00EBC00101EB001061688900B0FB6C
:10128000F1F6FFF759FA00EBC00101EB00106168BD
:101290008900B0FBF1F0B0FBF5F06FF018014843A6
:1012A00006EB800108EB0110B0FBF5F000F0F00652
:1012B000FFF742FA00EBC00101EB00106168890002
:1012C000B0FBF1F0B0FBF5F006EB0016FFF734FAD7
:1012D00000EBC00101EB001061688900B0FBF1F781
:1012E000FFF72AFAD2E08A4201D082423DD1FFF7CD
:1012F00023FA00EBC00101EB001061684900B0FB6C
:10130000F1F0B0FBF5F00601FFF716FA00EBC001B3
:1013100001EB001061684900B0FBF1F7FFF70CFA30
:1013200000EBC00101EB001061684900B0FBF1F077
:10133000B0FBF5F06FF01801484307EB800108EBB4
:10134000C100B0FBF5F000F0F80006EB4006FFF737
:10135000F3F900EBC00101EB001061684900B0FB3C
:10136000F1F7FFF7E9F93CE055E0FFF7D5F900EBBD
:10137000C00101EB001061684900B0FBF1F0B0FB67
:10138000F5F00601FFF7C8F900EBC00101EB001012
:1013900061684900B0FBF1F7FFF7BEF900EBC0014F
:1013A00001EB001061684900B0FBF1F0B0FBF5F013
:1013B0006FF01801484307EB800108EBC100B0FB58
:1013C000F5F000F0F80006EB4006FFF7A5F900EB9A
:1013D000C00101EB001061684900B0FBF1F7FFF7B5
:1013E0009BF900EBC00101EB001061684900B0FB04
:1013F000F1F0B0FBF5F06FF01801484307EB800106
:1014000008EBC100B0FBF5F000F0070021683044A4
:101410008860BDE8F081FFF77FF900EBC00101EBC8
:10142000001061688900B0FBF1F6FFF775F900EB79
:10143000C00101EB001061688900B0FBF1F0B0FB66
:10144000F5F06FF01801484306EB800108EB01103E
:10145000B0FBF5F000F0F006FFF75EF900EBC0011D
:1014600001EB001061688900B0FBF1F0B0FBF5F012
:1014700006EB0016FFF750F900EBC00101EB00107E
:1014800061688900B0FBF1F7FFF746F900EBC00196
:1014900001EB001061688900B0FBF1F0B0FBF5F0E2
:1014A0006FF01801484307EB800108EB0110B0FB17
:1014B000F5F000F00F00A9E7001401400010014012
:1014C00090F83910212901D0022070478168B1F5C8
:1014D000805F016A0BD04A1C026202680978516081
:1014E000C18C491E0904090CC1840ED017E009887B
:1014F0000268C1F30801516001690029016A02D044
:10150000491C0162ECE7891CFBE70168CA6822F00C
:101510008002CA600068C16841F04001C1600020DB
:1015200070472DE9F041984617460E460446069D41
:101530001DE0681C1BD02DB1FEF7B6FFA0EB080024
:10154000A84214D92068C16821F4D071C160206814
:10155000416921F001014161202084F8390084F8BB
:101560003A00002084F838000320BDE8F0812068AC
:10157000006836EA000004D00020B842D9D000202C
:10158000F3E70120F9E700000148FFF7EBBB00009B
:1015900064000020FEE70000014A024900F023B881
:1015A00009160008140000200907090E002804DBB2
:1015B00000F1E02080F80014704700F00F0000F107
:1015C000E02080F8141D704702E008C8121F08C10F
:1015D000002AFAD170477047002001E001C1121FB4
:1015E000002AFBD170472DE9F04116460F4604460C
:1015F000002503E03946B047641C6D1C20780028A4
:10160000F8D12846BDE8F08113B54FF6FF730122EB
:1016100069460248FFF79FFC00981CBD640000204B
:10162000FEF750FFFFF718FDFFF7F4FC4FF47A7454
:1016300003A0FFF7B1FF2046FEF74CFEF8E70000DD
:101640005AD0A1D0FDB2E2CAD40A000000000000C6
:101650000000000001020304060708090000000062
:101660000102030484160008000000201800000096
:10167000C81500089C1600081800002090040000FF
:10168000D815000800000000010000001000000054
:0C169000000000000024F4000000000036
:040000050800018965
:00000001FF
