:020000040800F2
:10000000580700244103000857260008B5240008BB
:1000100055260008310700086D3000080000000078
:10002000000000000000000000000000212900087E
:1000300033070008000000005926000823290008A3
:100040005B0300085B0300085B0300085B03000818
:100050005B0300085B0300085B0300085B03000808
:100060005B0300085B0300085B0300085B030008F8
:100070005B0300085B0300085B0300085B030008E8
:100080005B0300085B0300085B0300085B030008D8
:100090005B0300085B0300085B0300085B030008C8
:1000A0005B0300085B0300085B0300085B030008B8
:1000B0005B0300085B0300085B0300085B030008A8
:1000C0005B0300085B0300085B0300085B03000898
:1000D0005B0300085B0300085B0300085B03000888
:1000E0005B0300085B030008000000005B030008DE
:1000F0005B0300085B0300085B0300085B03000868
:100100005B0300085B0300085B0300085B03000857
:100110005B0300085B0300085B0300085B03000847
:100120005B0300085B0300085B0300085B03000837
:100130005B0300085B0300085B0300085B03000827
:1001400000000000000000000000000000000000AF
:100150005B0300085B0300085B0300085B03000807
:100160005B0300085B0300085B0300085B030008F7
:100170005B0300085B0300085B030008000000004D
:100180005B0300085B0300085B0300085B030008D7
:100190005B0300085B0300085B0300085B030008C7
:1001A0005B0300085B0300085B0300085B030008B7
:1001B0005B0300085B0300085B0300085B030008A7
:1001C0005B0300085B0300085B0300085B03000897
:1001D0005B0300085B0300085B0300085B03000887
:1001E0005B0300085B0300085B0300085B03000877
:1001F0005B0300085B0300085B0300085B03000867
:100200005B0300085B0300085B0300085B03000856
:100210005B0300085B0300085B0300085B03000846
:100220005B0300085B0300085B030008000000009C
:100230005B0300085B030008000000005B0300088C
:100240005B0300085B0300085B0300085B03000816
:100250005B0300085B0300085B0300085B03000806
:100260005B0300085B0300085B0300085B030008F6
:100270005B0300085B0300085B030008000000004C
:100280005B0300085B0300085B030008000000003C
:10029000000000005B03000800F002F800F041F8E5
:1002A0000AA090E8000C82448344AAF10107DA45D1
:1002B00001D100F036F8AFF2090EBAE80F0013F0E2
:1002C000010F18BFFB1A43F0010318470C2F000061
:1002D0002C2F0000103A24BF78C878C1FAD85207F2
:1002E00024BF30C830C144BF04680C6070470000B0
:1002F0000023002400250026103A28BF78C1FBD82F
:10030000520728BF30C148BF0B607047642900F016
:10031000EF80002070471FB502F03CFF1FBD10B5F5
:1003200010BD00F0D3F91146FFF7F5FF02F0FCFE17
:1003300000F0F1F903B4FFF7F2FF03BC02F0A8FEEE
:100340000948804709480047FEE7FEE7FEE7FEE769
:10035000FEE7FEE7FEE7FEE7FEE7FEE704480549A5
:10036000054A064B70470000CD2900089902000895
:10037000580100245807002458030024580300247F
:1003800053EA020C00F069802DE9F04B4FF00006B3
:10039000002B1FBFB3FA83F503FA05F424FA05F620
:1003A0005E4012BF1643B2FA82F502FA05F4C5F1B7
:1003B00020051EBF22FA05FC44EA0C04203556EA4B
:1003C000044C4FEA144418BF641C4FF000084FF06F
:1003D0000009904271EB030C39D3002919BFB1FA1F
:1003E00081F701FA07F6B0FA80F700FA07F6C7F1CD
:1003F00020071EBF20FA07FC46EA0C062037B6FB92
:10040000F4FCA7EB0507103F07F01F0BCBF120060C
:100410000CFA0BFB2CFA06F644BFB3460026202F3D
:10042000A4BF5E464FF0000B5BEA060C08BF4FF01E
:10043000010B19EB0B09ABFB027C48EB0608C01B58
:1004400006FB02CC0BFB03CC71EB0C01C1E70B46A6
:10045000024641464846BDE8F08B13B54FF0000018
:100460004FF00001AFF30080BDE81C407047000072
:100470000FB4044910B503AA029800F0F9F810BCB3
:100480005DF814FB080000242DE9F0410E460446F7
:10049000002020622046E168884730B3252805D037
:1004A000D4E901219047206A401CF2E7E168204628
:1004B00000278847050018D0A5F14100192802D867
:1004C00020354FF400673246294620462760FFF763
:1004D0001DFF40B1012804D0F61D26F0070608369E
:1004E000D8E7361DD6E72846DAE7206ABDE8F0816E
:1004F0002DE9F0410646002410687529314616A5FD
:1005000010D0AFF30080002802DA404213A507E0C4
:1005100031688A0701D512A502E0490704D511A563
:10052000012401E0AFF3008000210A2206F1240734
:1005300009E0B0FBF2FCB0FBF2F302FB1C00303030
:1005400078541846491C0028F3D123462A463046E1
:10055000BDE8F04100F032B8000000002D000000BE
:100560002B000000200000004FF0000200B51346F1
:1005700094469646203922BFA0E80C50A0E80C50C3
:10058000B1F12001BFF4F7AF090728BFA0E80C5074
:1005900048BF0CC05DF804EB890028BF40F8042B6D
:1005A00008BF704748BF20F8022B11F0804F18BFDA
:1005B00000F8012B70477047704770472DE9F047EE
:1005C0000D4699469246044600F1240801688806C3
:1005D00004D5E06921F01001216000E00120A8426B
:1005E00001DD471B00E00027A1697A1902EB090031
:1005F000081AA0612078C00602D42046AFF300801C
:10060000002608E0D4E901211AF806009047206A84
:10061000401C761C20624E45F4DB2078C0060AD5CB
:100620002046AFF3008006E0D4E901213020904756
:10063000206A401C2062381EA7F10107F4DC07E0A5
:10064000D4E9012118F805009047206A401C206277
:10065000281EA5F10105F3DC2046AFF300802078C9
:10066000000602D50220BDE8F0870120FBE700006C
:10067000074B70B50D467B4400F011F80446284640
:1006800000F020F810B14FF0FF3070BD204670BD73
:100690001B2A000001694A1C02610878704700B5F6
:1006A0008FB0CDE901310021059105497944CDE9AB
:1006B000031011466846FFF7E7FE0FB000BD0000CB
:1006C000E5FFFFFF007B00F080007047754600F0FB
:1006D0002BF8AE4605006946534620F007008546D4
:1006E00018B020B5FFF73AFEBDE820404FF00006F5
:1006F0004FF000074FF000084FF0000B21F007010A
:10070000AC46ACE8C009ACE8C009ACE8C009ACE84C
:10071000C0098D46704710B50446AFF300802046EF
:10072000BDE81040FFF706BE00487047F400002403
:10073000FEE7704772B6FEE7F0B5D1E90843CD6930
:100740000A68C2B10268254322F4F84213431D43EC
:100750000560D1E90125D1E903364C692A43456892
:10076000334389691A43EB0B2243DB030A431A43E1
:1007700042600020F0BDD1E9012ED1E9036CD1E93E
:10078000057142EA0E0246EA0C0632433A430A4336
:1007900001682A4322431A436FF30E010A430260A1
:1007A000E7E7426943F6FE739A4342EA4101416139
:1007B0000020704770B591E81C00C9686FF01F05F4
:1007C00006691A4305EB441444EA41210A4306EA48
:1007D00045431A430261002070BD00002DE9F04F2F
:1007E0008B8A6FF00F05264C4FF07F4BD1F80C90A1
:1007F00004EB03536FF0FF044FEA042A1AB3866830
:100800004FEA09321F4FA2F580521A433E4032434D
:100810008260D1E900278E68521E05EB07150F8A0A
:100820002A43C56804EB06240E7E0AEB07432243E5
:100830001A430BEB06610A4305F070431A43C2608A
:100840000020BDE8F08F91E804110F4E521E0F8A70
:1008500005EB08152A4304EB0C2C06EB09350E7E3C
:1008600042EA0C022A4385680AEB074422431A43F2
:100870000BEB06610A4305F070431A438260DFE721
:100880000000F0FFFF0F0FFF00F0FFFF70B5044600
:1008900000F0A0F90546601C02D00448007804442A
:1008A00000F098F9401BA042FAD370BD0C00002460
:1008B000F0B5B5B014212FA8FFF756FE2C480168FB
:1008C000002952D101210160BC216846FFF74CFE8E
:1008D0004FF08070009000246846119400F096FB61
:1008E00008B1FFF727FF2348016841F480510160F8
:1008F0000068022531AA00F4805034904FF63F0082
:10090000CDE92F0503261C480C2782E8D0002FA92B
:1009100000F03CF80D2031AACDE92F0517482FA98A
:1009200082E8D00000F032F831AA48F23710CDE961
:100930002F0513482FA982E8D00000F027F831AA2C
:100940004FF68370CDE92F050E482FA982E8D0001D
:1009500000F01CF831AA4CF20370CDE92F050A48CB
:100960002FA982E8D00000F011F835B0F0BD0000EA
:1009700000000024D4440258001402580008025811
:100980000018025800100258000C02582DE9FC4FC4
:1009900001257E4C00234FF0030A4FF0B04E4FF07C
:1009A0000F0BEBE005FA03F637403A0077D04F68BB
:1009B000012F05D0022F03D0112F01D0122F1AD1F1
:1009C00087684FEA4308D1F80CC00AFA08F927EA09
:1009D00009070CFA08FC4CEA070CC0F808C0476885
:1009E00091F804C0B743CCF3001C0CFA03FC4CEAAA
:1009F000070CC0F804C0C6684FEA430CD1F8088061
:100A0000E1460AFA0CF7BE43019708FA09F848EAEA
:100A10000608C0F80C804E68022E01D0122E12D1AA
:100A2000DE084FEA437C00EB860600960F69366AC3
:100A30004FEADC6C0BFA0CF807FA0CF726EA08060A
:100A40003743009E37620E790768DDF804C006F070
:100A5000030606FA09F627EA0C073E4306604E68CD
:100A6000F6001CD54A4E376847F0020737603668F3
:100A70009F0706F00206009623F0030606F1B04633
:100A8000B1463F0FD6F80864DFF808810BFA07FC7F
:100A9000404526EA0C0603D14FF0000C41E06CE023
:100AA000DFF8F4C0604502D14FF0010C39E0DFF807
:100AB000ECC0604502D14FF0020C32E0DFF8E0C03C
:100AC000604502D14FF0030C2BE0DFF8D8C0604541
:100AD00002D14FF0040C24E0DFF8CCC0604502D115
:100AE0004FF0050C1DE0DFF8C4C0604502D14FF0A7
:100AF000060C16E0DFF8B8C0604502D14FF0070CD5
:100B00000FE0DFF8B0C0604502D14FF0080C08E0FC
:100B1000DFF8A4C0604502D14FF0090C01E04FF0AE
:100B20000A0C0CFA07FC4CEA060CC9F808C4266843
:100B30004F6826EA0206FF0300D516432660666862
:100B40004F6826EA0206BF0300D516436660D1F857
:100B500004C07646DEF800705FEACC2C27EA020774
:100B600000D517433760D1F804C077685FEA8C2C52
:100B700027EA020700D5174377605B1C0A6817460F
:100B8000DA407FF40FAFBDE8FC8F00008000005812
:100B9000F4440258000002580004025800080258A9
:100BA000000C025800100258001402580018025895
:100BB000001C025800200258002402580AB181612A
:100BC00070470904FBE7000001480068000C70470B
:100BD0000010005C01488068704700000C00002491
:100BE0000248816802781144816070470C0000243B
:100BF000032010B500F078F800F0E6FF0F4A104926
:100C000014681368C4F3032203F00F038A5CC95C01
:100C100002F01F0201F01F01D0400A4A20FA01F140
:100C20001160094908600F2000F010F808B1012098
:100C300010BD00F02BF8002010BD00001844025831
:100C4000C63100081C0000241800002470B50D4DAA
:100C500004462878A0B14FF47A71B1FBF0F00A494C
:100C60000968B1FBF0F001F02FFB48B9102C07D256
:100C700000222146501E00F017F800206C6070BD65
:100C8000012070BD0C00002418000024054808B5A0
:100C9000016841F002010160006800F0020000906C
:100CA00008BD0000F44402580E4BF0B41B680D461A
:100CB000C3F30223C3F10706042E00D90426191D2D
:100CC000072901D2002300E0DB1E012404FA06F10B
:100CD0009C40491E2940641E994014402143F0BCA9
:100CE00002F0C5B90CED00E0064900F0070210B5AE
:100CF0004FF6FF040868044B204040EA02201843E6
:100D0000086010BD0CED00E00000FA05134970B555
:100D10000A68D243520705D5096801F007018142EC
:100D200013D118E00A6822F0070202430A60FFF7B5
:100D300051FF0A4D4FF47A760446083D07E000BFA4
:100D4000FFF748FF001BB04201D9012070BD2868A1
:100D5000C0438004F4D4002070BD00000C48025849
:100D600010B500F0EBFE05490968054AC1F3021110
:100D7000515C01F01F01C84010BD00002044025822
:100D8000C6310008494930B5484C0B1D0A68143477
:100D900009681D68246802F00303C5F30012C1F35B
:100DA0000531C4F3CC04002914FB02F200EE102A32
:100DB000F8EE400A75D03F4A9FED3D1AB7EE000AA3
:100DC0006BB1DFED3D1A012B01D0022B64D002EE96
:100DD000101A1168F8EE422A81EEA22A21E0334C63
:100DE000283C23689B0612D5344B246801EE901AE8
:100DF0001168C4F3C104F8EE612AE34001EE903AB1
:100E0000C1F30801F8EE611A81EEA22A0BE001EEAF
:100E1000901ADFED2B2A00BFF8EE611A116882EEFE
:100E2000A12AC1F3080101EE901A1168F8EE611AC7
:100E300040EE811A71EE800A62EE200AC1F346216B
:100E400001EE101AB8EE411A31EE001AC0EE811A06
:100E5000BCEEE11A80ED001A1168C1F3064101EE03
:100E6000101AB8EE411A31EE001AC0EE811ABCEE2B
:100E7000E11A80ED011A1168C1F3066101EE101A42
:100E8000B8EE411A31EE000A80EE801ABCEEC10ABB
:100E900080ED020A30BD04E001EE901ADFED092A70
:100EA000BAE70021016041608160F3E728440258FD
:100EB00000000039384402580024744A0090D003DE
:100EC0000024744C20BCBE4B494930B5484C0B1D26
:100ED0000A681C3409681D68246802F00303C5F31E
:100EE0000022C1F30551C4F3CC04002914FB02F223
:100EF00000EE102AF8EE400A75D03F4A9FED3D1AE9
:100F0000B7EE000A6BB1DFED3D1A012B01D0022BC9
:100F100064D002EE101A1168F8EE422A81EEA22A7D
:100F200021E0334C283C23689B0612D5344B2468BF
:100F300001EE901A1168C4F3C104F8EE612AE3408F
:100F400001EE903AC1F30801F8EE611A81EEA22A8F
:100F50000BE001EE901ADFED2B2A00BFF8EE611ACC
:100F6000116882EEA12AC1F3080101EE901A1168FE
:100F7000F8EE611A40EE811A71EE800A62EE200AE4
:100F8000C1F3462101EE101AB8EE411A31EE001AF3
:100F9000C0EE811ABCEEE11A80ED001A1168C1F3AF
:100FA000064101EE101AB8EE411A31EE001AC0EEF9
:100FB000811ABCEEE11A80ED011A1168C1F30661D5
:100FC00001EE101AB8EE411A31EE000A80EE801AD6
:100FD000BCEEC10A80ED020A30BD04E001EE901AB9
:100FE000DFED092ABAE70021016041608160F3E783
:100FF0002844025800000039404402580024744A32
:101000000090D0030024744C20BCBE4B2DE9FC5F43
:10101000044650F8241B002500902E460801FE4F80
:10102000DFF8F8831DD5606E50B1B0F5801F0CD08D
:10103000B0F5001F0ED0B0F5401F1DD001250FE008
:10104000386840F40030386016E00221201D01F0BD
:1010500005FB03E00098022101F090FB05000BD096
:101060002E462088C00523D5606D05281ED2DFE8F6
:1010700000F00C11161B1B00626ED8F8001021F452
:1010800040111143C8F80010EBE7386840F4003015
:10109000386009E00021201D01F0E0FA03E000982B
:1010A000002101F06BFB05466DB100E001252E46E5
:1010B0002088800528D5A06D80281ED00CDC90B13A
:1010C00040280ED114E0626DD8F8001021F007011D
:1010D0001143C8F80010EBE7C02813D0B0F5807FAB
:1010E00010D001250FE0386840F40030386009E086
:1010F0000021201D01F0B2FA03E00098002101F068
:101100003DFB054695B12E462088DFF8109340053B
:1011100009F108092CD5D4F8A400B0F5800F20D02F
:101120000DDCA0B1B0F5001F0FD115E0A26DD8F80D
:10113000001021F4E0711143C8F80010E4E7B0F5A5
:10114000C00F13D0B0F5000F10D001250FE03868A4
:1011500040F40030386009E00021201D01F07EFAE3
:1011600003E00098002101F009FB054675B12E4609
:10117000208800052DD5D4F8A800B0F1007F21D03B
:101180000EDCA8B1B0F1807F10D116E0D4F8A42015
:10119000D9F8001021F460011143C9F80010E7E705
:1011A000B0F1407F13D0B0F1806F10D001250FE077
:1011B000386840F40030386009E00021201D01F05B
:1011C0004DFA03E00098002101F0D8FA05466DB110
:1011D0002E46206880011FD5A06CD8B110280FD0F2
:1011E000202812D0302815D0012514E0D4F8A820EA
:1011F000D9F8001021F0E0611143C9F80010E8E7C8
:10120000386840F40030386004E00221201D01F00D
:1012100025FA05466DB12E462088C0042BD5E06D19
:10122000B0F5005F20D00DDCA0B1B0F5805F0FD12C
:1012300015E07A48A26C001F016821F030011143CB
:101240000160E9E7B0F5405F13D0B0F5804F10D0F2
:1012500001250FE0386840F40030386009E00021D3
:10126000201D01F0FBF903E00098002101F086FA4F
:10127000054685B12E462088800429D5206EB0F51C
:10128000403F23D010DC08B3B0F5803F14D0B0F558
:10129000003F0FD115E0E26DD8F8001021F4E041D5
:1012A0001143C8F80010E6E7B0F5802F0ED0B0F576
:1012B000A02F0BD001250AE00121201D01F0CEF95D
:1012C00003E00098012101F059FA05468DB12E4640
:1012D000208840042AD5D4F8AC00B0F1405F23D078
:1012E00010DC08B3B0F1805F14D0B0F1005F0FD113
:1012F00015E0226ED8F8001021F4E0211143C8F85F
:101300000010E5E7B0F1804F0ED0B0F1A04F0BD048
:1013100001250AE00121201D01F0A0F903E0009859
:10132000012101F02BFA05466DB12E4620880004FC
:101330001FD5E06ED8B1B0F1805F0ED0B0F1005F84
:1013400010D0012514E0D4F8AC20D9F8001021F019
:10135000E0411143C9F80010E8E7386840F4003074
:10136000386004E00121201D01F078F905466DB1D7
:101370002E462068C0011ED5606CD0B101280ED069
:10138000022811D0032814D0012513E0E26ED8F80A
:10139000001021F040511143C8F80010E9E7386807
:1013A00040F40030386004E00221201D01F056F9BD
:1013B000054685B12E462068DFF85CB04002ABF1EF
:1013C0001C0B57D51648016841F480710160FFF786
:1013D00001FC82460EE01148626C001F016821F09A
:1013E000030111430160E6E7FFF7F4FBA0EB0A00FD
:1013F00064283DD80A480068C005F5D57DBBDFF8F4
:101400001CA0B4F8B0200AF1200ADAF8001002F4A7
:10141000407001F4407105E02C44025850440258D9
:1014200000480258814211D0DAF80010DAF80020A2
:1014300021F4407142F48032CAF80020DAF800202A
:1014400022F48032CAF80020CAF80010D4F8B000A4
:10145000B0F5807F21D1FFF7BDFB019019E008E0D6
:10146000FFF7B8FB0199411A41F28830814210D947
:1014700003252E462078DFF844A4C0073DD0A06F96
:10148000182838D026DC80B3082829D0102825D188
:101490002CE0DAF800008007E2D5D4F8B010C1F3F0
:1014A0000120032858460DD0016821F47C510160C9
:1014B000B4F8B020DAF80010C2F30B021143CAF8F6
:1014C0000010D7E7FE4A036802EA111223F47C51A8
:1014D0001143ECE720280ED028280CD001250BE082
:1014E0000121201D01F0BAF804E004E00098012178
:1014F00001F044F905465DB12E46207880071ED5DF
:10150000606F062819D2DFE800F0160C11161616C7
:10151000A26FDAF8001021F038011143CAF8001068
:10152000EBE70121201D01F099F803E0009801216B
:1015300001F024F9054675B100E001252E4620781A
:1015400040071FD5D4F89000062819D2DFE800F034
:10155000160C11161616626FDAF8001021F007014A
:101560001143CAF80010EAE70121201D01F076F8C6
:1015700003E00098012101F001F905469DB100E06A
:1015800001252E46207880062BD5D4F88C00B0F1AA
:10159000405F24D011DC10B3B0F1805F15D0B0F102
:1015A000005F10D116E0D4F89020D9F8001021F097
:1015B00007011143C9F80010E4E7B0F1804F0ED0E5
:1015C000B0F1A04F0BD001250AE00021201D01F051
:1015D00045F803E00098022101F0D0F805468DB1EE
:1015E0002E46207840062BD5D4F89800B0F5406FF1
:1015F00024D011DC10B3B0F5806F15D0B0F5006FBA
:1016000010D116E0D4F88C20DAF8001021F0E04177
:101610001143CAF80010E4E7B0F5805F0ED0B0F5D2
:10162000A05F0BD001250AE00021201D01F016F873
:1016300003E00098022101F0A1F805468DB12E4685
:10164000207800062BD5D4F89C00B0F5C04F24D0EC
:1016500011DC10B3B0F5005F15D0B0F5804F10D19C
:1016600016E0D4F89820D9F8001021F4E051114385
:10167000C9F80010E4E7B0F5004F0ED0B0F5204FE8
:101680000BD001250AE00021201D00F0E7FF03E058
:101690000098022101F072F805464DB12E462078DF
:1016A00000071ED5D4F88000B0F5805F0AD00FE0A7
:1016B000D4F89C20D9F8001021F460411143C9F8F6
:1016C0000010ECE70098022101F058F800B1012663
:1016D000D4F88020DAF8001021F440511143CAF800
:1016E00000102078C00613D5D4F89400B0F5807FA0
:1016F00005D10098022101F041F800B10126D4F88B
:101700009420D9F8001021F440711143C9F8001059
:101710002068000316D5D4F8A00038B1B0F5803F9A
:1017200009D0B0F5003F0BD001250AE00021201DB3
:1017300000F094FF03E00098022101F01FF8054635
:1017400085B12E462068400322D5D4F88400B0F538
:10175000801F11D0B0F5001F13D0B0F5401F15D079
:10176000012514E0D4F8A020D9F8001021F440316C
:101770001143C9F80010E5E7386840F400303860DC
:1017800004E00098012100F0F9FF054655B12E460E
:101790002068C0031CD5E06C70B1B0F5803F10D05C
:1017A000012514E0D4F88420DAF8001021F4401167
:1017B0001143CAF80010EBE7386840F40030386095
:1017C00004E00221201D00F049FF0546CDB12E4660
:1017D0002068800005D50098022100F0CFFF00B1FD
:1017E0000126206880031BD5E06FB8B1B0F5807F7B
:1017F00010D0B0F5007F11D0B0F5407F0ED001259C
:101800000DE02E48E26C0838016821F48031114364
:101810000160DDE7386840F400303860F5B32E46EB
:101820002068C00207D5226FD8F8001021F00041CF
:101830001143C8F800102068C00008D5D4F8B420BF
:10184000DBF8001021F480411143CBF80010206830
:10185000800207D5A26ED8F8001021F080711143E4
:10186000C8F80010206840000CD5DBF8001021F407
:101870000041CBF80010DBF80010D4F8B820114379
:10188000CBF800102068002807DA0C48226D0838D1
:10189000016821F040511143016000E014E020682C
:1018A000000208D5D4F88820DAF8001021F44001AD
:1018B0001143CAF8001086B1012003E054440258D5
:1018C000CFFFFF00BDE8FC9FE26FDAF8001021F4C3
:1018D00040711143CAF80010A2E70020EDE70000B4
:1018E0002DE9F05F04000F467ED0DFF83882D8F88B
:1018F000000000F00F00B8420CD2D8F8001021F020
:101900000F013943C8F80010D8F8000000F00F00AC
:10191000B84269D12078844D40070AD520692968EA
:1019200001F07001884204D9296821F07001014357
:10193000296020787C4E361D00070AD56069316821
:1019400001F07001884204D9316821F0700101432F
:1019500031602078C0060AD5A069316801F4E061E1
:10196000884204D9316821F4E06101433160207874
:10197000DFF8B4B180060BF1080B0CD5E1695846CD
:10198000DBF8002002F07002914204D9026822F0D4
:1019900070020A430260207880070AD5E06829684F
:1019A00001F00F01884204D9296821F00F01014399
:1019B00029602078C0073ED05B49A26828681839A2
:1019C00020F47060104328606068022818D0032853
:1019D00019D00968012819D0490700294ADADFF827
:1019E00048A1AAF1080A00E044E0DAF8002022F059
:1019F00007020243CAF80020FFF7ECF8814612E024
:101A000009688903E9E709688901E6E7C905E4E7A8
:101A1000FFF7E0F8A0EB090141F28830814202D9DA
:101A20000320BDE8F09F6168DAF8000000F038009C
:101A3000B0EBC10FECD1207880070AD5E0682968A7
:101A400001F00F01884204D2296821F00F010143FF
:101A50002960D8F80010404601F00F01B9420BD9B7
:101A6000016821F00F0139430160006800F00F00A8
:101A7000B84201D00120D4E7207840070AD5206978
:101A8000296801F07001884204D2296821F07001B0
:101A900001432960207800070AD56069316801F0A8
:101AA0007001884204D2316821F070010143316035
:101AB0002078C0060AD5A069316801F4E061884247
:101AC00004D2316821F4E06101433160207880065E
:101AD0000CD5E1695846DBF8002002F07002914213
:101AE00004D2026822F070020A43026000F06CF82F
:101AF0000E492A682B68C2F3032203F00F038A5CA5
:101B0000C95C02F01F0201F01F01D040084A20FA10
:101B100001F111600749086007480068BDE8F05FFF
:101B2000FFF794B80020005218440258C63100084C
:101B30001C000024180000241000002430B500F020
:101B400043F80B4A0B490C4B15681468C5F3032284
:101B500004F00F048A5C095D02F01F0201F01F010E
:101B6000D040064A20FA01F119601060084630BDE5
:101B700018440258C63100081C0000241800002434
:101B800000B5FFF7DBFF05490968054AC1F30211FB
:101B9000515C01F01F01C84000BD00001C44025808
:101BA000C631000800B5FFF7C9FF05490968054AB5
:101BB000C1F30221515C01F01F01C84000BD0000CB
:101BC0001C440258C6310008454970B545480968AB
:101BD000434B103B11F0380208D00111082A03D002
:101BE000102A0BD0182A0BD0084670BD1968890638
:101BF000FBD51968C1F3C101C84070BD3A4870BD3A
:101C00003749374D18310C1D24350A680968266894
:101C10002D6802F0030406F00102C1F30511C5F3BB
:101C2000CC0515FB02F200EE102AB8EE400AE9B32B
:101C30002F4ADFED2E0AB7EE001A6CB1DFED2D1A38
:101C4000012C01D0022C43D002EE101A1068F8EEDD
:101C5000422A81EEA22A1EE01C68A40611D51B6848
:101C600001EE901A1168C3F3C103F8EE612AD8405F
:101C700001EE900AC1F30800F8EE611A81EEA22A83
:101C80000BE001EE901ADFED1C2A00BFF8EE611A9E
:101C9000106882EEA12AC0F3080001EE900AF8EE67
:101CA000611A40EE201A31EE810A00E015E022EEC2
:101CB000000A1068C0F34620401C00EE900AF8EEBF
:101CC000600A80EE201ABCEEC10A10EE100A70BD48
:101CD00001EE901ADFED092AD8E7002070BD000060
:101CE000104402580090D00340787D010000003974
:101CF000304402580024744A0024744C20BCBE4B6B
:101D00002DE9F05F04007CD0FF4F2078FE4D18379E
:101D1000DFF8F493103DC00748D0D9F800003968C7
:101D200000F03800102815D0182803D101F0030066
:101D300002280FD06068B0F5803F12D010B1B0F526
:101D4000A02F18D0286820F480302860286820F45C
:101D5000802009E02868800328D560680028D2D058
:101D600024E0286840F480302860606888B1FEF77D
:101D700031FF064609E0286840F480202860F0E73B
:101D8000FEF728FF801B64287ED828688003F7D5DB
:101D90000CE0FEF71FFF064605E000BFFEF71AFF46
:101DA000801B6428F0D828688003F7D4207841F29B
:101DB0000308D54E0C3E800753D5D9F8000039688A
:101DC00010F038000ED0182801D188070AD0E0683A
:101DD000A8B3296821F0190101432960FEF7FAFE32
:101DE00082461BE02868400702D5E06800288AD0B8
:101DF000FEF7EAFE40451BD82069402812D0316822
:101E000000E0CCE021F47C3141EA0030306028E091
:101E1000FEF7E0FEA0EB0A000228B5D828684007CC
:101E2000F6D5E5E7306820F47C3040F40030EDE78B
:101E3000207C316821F0FE4141EA0060E6E7FFE7DF
:101E4000286820F001002860FEF7C4FE824605E005
:101E5000FEF7C0FEA0EB0A00022895D828684007CC
:101E6000F6D42078C0065FD5D9F80000DFF898B224
:101E7000396800F03800ABF1040B082812D018289C
:101E800005D101F0030000E0EAE001280AD0E06992
:101E90000028286838D040F080002860FEF79AFEBD
:101EA000824623E02868C00523D5E069802876D1E2
:101EB0001FE0206A202821D0316821F0F84141EA52
:101EC0008060306030E000BF94F82010DBF8002024
:101ED00022F07C5242EA0161CBF8001024E000BFFE
:101EE000FEF778FEA0EB0A00022896D82868C00505
:101EF000F6D5FEF769FE4045E6D8DAE7306820F00F
:101F0000F84040F08040DCE720F080002860FEF7D9
:101F100061FE064605E000BFFEF75CFE801B02285E
:101F20009BD82868C005F7D42078000729D57648C3
:101F30006169643000298046016811D041F00101D7
:101F40000160FEF747FE064605E000BFFEF742FED1
:101F5000801B0228C9D8D8F800008007F6D510E009
:101F600021F001010160FEF735FE064605E000BFE5
:101F7000FEF730FE801B022872D8D8F800008007D8
:101F8000F6D42078800623D5A0690028286810D0D0
:101F900040F480502860FEF71DFE064605E02CE167
:101FA000FEF718FE801B02285AD828688004F7D54F
:101FB0000EE020F480502860FEF70CFE064604E098
:101FC000FEF708FE801B02284AD828688004F7D450
:101FD000207840074FD5DFF83481D8F8001041F45D
:101FE0008071C8F80010FEF7F5FD064605E000BF59
:101FF000FEF7F0FD801B642832D8D8F80000C00539
:10200000F6D5414EA068603601280AD008B10528EF
:1020100013D0306820F001003060306820F00400F8
:1020200002E0306840F001003060A06841F2883A78
:1020300090B1FEF7CFFD80460AE0306840F0040022
:102040003060EEE7FEF7C6FDA0EB0801514507D86A
:1020500030688007F6D50EE0FEF7BCFD804607E04D
:1020600084E000BFFEF7B6FDA0EB080151457DD826
:1020700030688007F6D4606AF0B3DFF88C80D9F856
:10208000001008F12008C1F3C20103296FD0022813
:10209000286820F08070286003D0FEF79BFD04467E
:1020A00080E0FEF797FD064605E000BFFEF792FDD3
:1020B000801B022873D828688001F7D4E26A40F2B6
:1020C000F331386854F8283F884340EA0210184337
:1020D0003860217B4FF4FE0C22894FF0FE47208AA6
:1020E0004902267D521E401EA1F5007189B20CEAFC
:1020F0000040C2F3080200E081E01143761E014374
:10210000014807EA066203E01044025800480258FA
:102110001C3011433B4AC8F80010016821F001014E
:10212000016011684FF6F876236AB14341EAC301B2
:1021300011600168A26921F00C011143016001687E
:10214000E26921F0020111430160016841F480312C
:102150000160016841F400310160016841F48021AF
:102160000160016841F00101016001E017E01DE03C
:10217000286840F080702860FEF72CFD044604E0DB
:10218000FEF728FD001B022809D828688001F7D532
:1021900035E000BFFEF71EFD001B022802D9032018
:1021A000BDE8F09F28688001F4D428E03968012850
:1021B000D8F8000021D0A26A01F0030393421CD199
:1021C000E26AC1F305118A4217D1216BC0F30802FC
:1021D000491E8A4211D1616BC0F34622491E9142C9
:1021E0000BD1A16BC0F30642491E914205D1E16BB0
:1021F000C0F30660491E814201D00120D0E70020D3
:10220000CEE700003444025870B504000D4603D0F8
:1022100094F82C0010B107E0012070BD002084F874
:102220002D00204600F018F8022084F82C002068C9
:10223000211DFEF781FAD4E900022946FEF7CEFA05
:1022400004480121026842F00042026084F82C1028
:10225000002070BD00400052FEF72ABB10B50446B6
:1022600090F82C00022804D094F82C00012801D00A
:10227000012010BD022084F82C002068FEF791FA9E
:10228000012084F82C00002010BD000070B5044629
:1022900090F82C000D46022804D0012803D0052810
:1022A00001D0012070BD022084F82C002068FEF7C8
:1022B00081FA2868022805D05FF0010084F82C001C
:1022C000002070BD0520F9E7401EB0F1807F10B5F9
:1022D00001D3012010BD4FF0E02460610F21601791
:1022E00000F0C5FE0020A0610721216110BD30B5BE
:1022F00090F88010012918D0012280F88020242134
:10230000C0F884100022202450F8641B0B680D686C
:1023100023F0005325F001050D60026050F8641CA5
:102320000B6004620277104630BD022030BD70B5EC
:10233000044690F8800001281DD0012284F88020F6
:102340002420C4F8840020680568026822F0010295
:1023500002602068826822F060620A438260204640
:1023600000F0A6FB2268202100201560C4F884102C
:1023700084F8800070BD022070BD70B5044690F8EE
:10238000800001281DD0012284F880202420C4F878
:10239000840020680568026822F00102026020685B
:1023A000826822F060420A438260204600F080FB8F
:1023B0002268202100201560C4F8841084F8800071
:1023C00070BD022070BD10B5040003D0D4F88400A5
:1023D00010B107E0012010BD002084F880002046E5
:1023E00000F026F82420C4F884002068016821F059
:1023F00001010160204600F011FC0128EBD0A06A29
:1024000010B1204600F076FB2068416821F490412D
:1024100041602068816821F02A018160206801689C
:1024200041F0010101602046BDE8104000F0C6BB4C
:1024300010B5B6B0044614212FA8FEF795F8BC21BC
:102440006846FEF791F818492068884229D100248F
:102450001E94012000906846FEF7D8FD08B1FEF7F3
:1024600069F91248016841F010010160006800F04C
:10247000100034900D481038016841F001010160EE
:1024800000682FAB022100F0010034904FF4C060CF
:10249000072283E8130006482FA9CDE93242FEF750
:1024A00075FA36B010BD000000100140F04402582B
:1024B00000000258FEE70000104810B586B0016821
:1024C00041F002010160006801210D4C00F00200A2
:1024D00005900320CDE90001CDE9021069462046B0
:1024E000FEF754FA012220461146FEF767FB01224F
:1024F00020460221FEF762FB06B010BDE044025800
:1025000000040258F0B587B01C216846FEF72CF88D
:10251000164800250822144F01264FF0400E0221D4
:10252000C0E90075C0E90262102404610C03C0F820
:1025300014E04FF4807CC0E906C58F020762CE022A
:102540000623C0E909648DE80E0004250393CDE954
:10255000045106916946FFF757FE08B1FEF7EAF805
:1025600000F09CF907B0F0BD40410052300000245B
:102570001D4808B5016841F020010160016801F0C3
:1025800020010091016841F080010160016801F0C3
:1025900080010091016841F004010160016801F0CF
:1025A00004010091016841F040010160016801F0FF
:1025B00040010091016841F010010160016801F0E3
:1025C00010010091016841F008010160016801F00B
:1025D00008010091016841F001010160006800F00C
:1025E0000100009008BD0000E04402581848002196
:1025F00010B5164C0C224FF4E1330460C0E90131F0
:10260000C160C0E904128161C161016241628162FD
:10261000FFF7D9FE08B1FEF78DF80D480021FFF74E
:10262000ACFE08B1FEF786F809480021FFF77FFEEF
:1026300008B1FEF77FF80648FFF759FE002803D0DF
:10264000BDE81040FEF776B810BD00000010014054
:1026500064000024FEE7FEE7704700002DE9F04724
:10266000454D044689464FF0000A2868C04380075C
:102670000AD0414E283E306820F080603060FEF77E
:10268000A9FA0746B04608E00120BDE8F08700BF80
:10269000FEF7A0FAC01B022867D8D8F80000000196
:1026A000F6D4206829684FF4FE0721F47C313E02FD
:1026B00041EA00302860207AA389B4F804C04002BF
:1026C0002D4D2D495B1E227CACF1010C1035091DEE
:1026D000A0F5007080B2521ECCF3080C07EA034349
:1026E00040EA0C00184306EA0262104328600868BA
:1026F000626920F0C000104308600A68A06922F0F7
:10270000200202430A60281D0A6822F010020A60B3
:1027100002684FF6F873E4699A4342EAC402026021
:102720000868B9F1000F40F010020A6011D0086883
:10273000B9F1010F11D040F400100860D8F8000082
:10274000444640F08060C8F80000FEF743FA0546B2
:102750000DE0086840F40020EFE740F48010ECE75B
:10276000FEF738FA401B022801D903208DE72068C4
:102770000001F5D5504688E7284402582DE9F04776
:10278000454D044689464FF0000A2868C04380073B
:102790000AD0414E283E306820F080503060FEF76D
:1027A00019FA0746B04608E00120BDE8F08700BFEF
:1027B000FEF710FAC01B022867D8D8F80000800086
:1027C000F6D4208829684FF4FE0721F07C713E0280
:1027D00041EA00502860207AA389B4F804C040027E
:1027E0002D4D2D495B1E227CACF1010C1835091DC5
:1027F000A0F5007080B2521ECCF3080C07EA034328
:1028000040EA0C00184306EA026210432860086898
:10281000626920F44060104308600A68A06922F4ED
:10282000007202430A60281D0A6822F480720A605E
:1028300002684FF6F873E4699A4342EAC402026000
:102840000868B9F1000F40F480720A6011D008687E
:10285000B9F1010F11D040F080700860D8F8000085
:10286000444640F08050C8F80000FEF7B3F9054632
:102870000DE0086840F48000EFE740F40000ECE76A
:10288000FEF7A8F9401B022801D903208DE7206834
:102890008000F5D5504688E7284402582DE9F047D6
:1028A0001E4C102600274FF6FF790125214601F125
:1028B00010004A46C4E90056C4E90257FFF7E6FC97
:1028C0000120FDF7E3FF02202146C4E90006C4E928
:1028D000025701F110004A46FFF7D8FC03214FF0E0
:1028E0000408E7604A4684E84201214601F11000ED
:1028F000FFF7CCFC4FF408714A46C4E90251214667
:10290000C4E9008601F11000FFF7C0FC04F11000DB
:1029100040F2F921BDE8F047FFF7A0BC20000024F9
:102920007047FEF75DB9000030B59DB04C21684698
:10293000FDF71AFE202113A8FDF716FE0220FEF770
:10294000E5F92049002520480A6822F001020A60C2
:102950000968016841F440410160016801F44041A7
:102960001B9101688904FCD50220099040240121B3
:102970000091C20301920A900FABCDE90B040C2128
:102980000D900E9083E8230068461295FFF7B8F982
:1029900008B172B6FEE708221A94CDE91624D301D5
:1029A00013AA3F200321CDE9184382E82300022126
:1029B00013A8FEF795FF002801D072B6FEE71DB000
:1029C00030BD00002C040058184802582E48F0B5BD
:1029D0002E4A016841F470010160106800F00F0098
:1029E000072804D2106820F00F00C01D106028498D
:1029F0000020274C10340B68264D43F001030B6078
:102A000020600B682B400B60136803F00F03072B4B
:102A100004D9136823F00F03DB1D13601C4C1E4AFE
:102A200018341E4B261D371D2060194C1C4D2834B0
:102A30003060261D3860371D23603B1D35601C1D2E
:102A40003A60251D2E1D1860331D226028603260FB
:102A500018600A680E4B134C22F4802260330A601F
:102A6000186020686FF30F00B0F1005F03D20E49C9
:102A70000120C1F8080143F2D2000C49024B4A037D
:102A8000803B08601A60F0BD88ED00E00020005235
:102A9000004402587FEDF6EA8002010100020202C2
:102AA0000000FF010010005C008000510040005257
:102AB00030B5416EB9B101680D4B03F108048A6865
:102AC0008968C2F34262490F5D5C615C2D01B5FB10
:102AD000F1F1A0F86A10995CA25C0901B1FBF2F176
:102AE000A0F8681030BD0121A0F86A10F8E70000D6
:102AF000B631000890F82810C90706D00168C36AEB
:102B00004A6822F400321A434A6090F82810890774
:102B100006D50168036B4A6822F480321A434A6082
:102B200090F82810490706D50168436B4A6822F4DB
:102B300080221A434A6090F82810090706D50168D8
:102B4000836B4A6822F400421A434A6090F82810C6
:102B5000C90606D50168C36B8A6822F480521A43FD
:102B60008A6090F82810890606D50168036C8A6887
:102B700022F400521A438A6090F82810490611D5B1
:102B80000168436C4A6822F480121A434A60416C1F
:102B9000B1F5801F06D10168836C4A6822F4C00237
:102BA0001A434A6090F82810090606D50168C26CDD
:102BB000486820F40020104348607047F8B50026AC
:102BC0000446C0F88C60FEF705F8054620686FF0F3
:102BD0007E470068000708D500222B464FF40011FD
:102BE0002046009700F0F0F960B9206800684007BF
:102BF0000AD500222B464FF480012046009700F0B2
:102C0000E3F908B10320F8BD2020C4F88400C4F81B
:102C10008800E666002084F88060F8BD2DE9F04366
:102C200004468068D84E87B0D84B2168D4E9042781
:102C3000D4F81CC010430A68002547EA0C07384343
:102C4000324002430A602068E268416821F4405142
:102C5000114341602268A1699A4201D0206A014370
:102C60009668DFF82CC3CB4FCB4806EA0C060E4320
:102C700096602168666ACA6A22F00F023243CA620D
:102C80002268BA420ED1006800F03800182873D0CC
:102C900047DCB8B3082879D010286FD178E028280D
:102CA0007ED17BE0BD498A4209D1006800F007006F
:102CB000062875D2DFE800F0546A6C6E7072B8496D
:102CC0008A4209D1006800F00700062868D2DFE8D0
:102CD00000F0475D5F616365B2498A4209D10068CF
:102CE00000F0070006285BD2DFE800F03A505254AB
:102CF0005658AD498A420BD1006800F007000628FB
:102D00004ED200E010E0DFE800F02B414345474998
:102D1000A6498A420AD1006800F03800182839D044
:102D2000B7DD2028BBD13CE001203AE0A0498A422F
:102D300009D1006800F00700062831D2DFE800F072
:102D40001026282A2C2E9B498A420BD1006800F0BD
:102D50000700062824D2DFE800F003191B1D1F21FD
:102D600000201EE09A421BD18B48001D006800F035
:102D70000700062814D202E00CE007E010E0DFE8CC
:102D800000F0030507090B0D02200AE0042008E00B
:102D9000082006E0102004E0202002E0402000E0AF
:102DA00080208549DFF814829A42854A4FF4004317
:102DB0004FEA21174FF000064DD110281AD006DC3B
:102DC000022809D004280BD008287CD10DE0202847
:102DD0003DD0402877D13CE0FDF7C2FF014610E02E
:102DE0006846FDF7CFFF01990BE003A8FEF76CF8EA
:102DF000049906E01068800604D51068C0F3C1008D
:102E0000C140B9B3606A676838F8102007EB470320
:102E1000B1FBF2F0834256D8B0EB073F53D8002302
:102E200008461946FDF7ACFA02467808130E12025E
:102E300043EA012110183A4671410023FDF7A0FA38
:102E4000604AA0F5407191423DD821684CE0394676
:102E5000D8E71946D6E7D4F81CC04FF6EF799C4561
:102E600052D108281AD006DC60B101280DD0042800
:102E700029D10EE039E0102815D0202840D0402874
:102E80007CD13FE0FEF77CFE01E0FEF78BFE0146C1
:102E900010E06846FDF776FF01990BE003A8FEF706
:102EA00013F8049906E01068800604D51068C0F392
:102EB000C100C140C9B1636A606838F81330B1FB22
:102EC000F3F1490000E059E001EB5001B1FBF0F0F3
:102ED00080B2A0F11001494550D84FF6F073216837
:102EE000C0F3420218401043C8600120A4F86A00F1
:102EF000A4F8680028462667666707B0BDE8F08337
:102F00003946D8E71946D6E7082819D005DC58B164
:102F100001280CD0042831D10DE0102815D020282C
:102F20002ED040282AD12DE0FEF72AFE01E0FEF740
:102F300039FE014610E06846FDF724FF01990BE0D9
:102F400003A8FDF7C1FF049906E01068800605D5C7
:102F50001068C0F3C100C1400029C6D0636A606830
:102F600038F81330B1FBF3F101EB5001B1FBF0F095
:102F700080B2A0F1100149457FF667AF0125B4E7A3
:102F80003946EBE71946E9E7F369FFCF000C005833
:102F9000FFF4FF1100100140544402580044004067
:102FA00000480040004C0040005000400014014028
:102FB00000780040007C00400090D0039E31000863
:102FC00000440258FFFC0F002DE9F0479A461746CF
:102FD0000E460446089D4FF000094FF0200839E0E6
:102FE000681C37D0FDF7F6FDA0EB0A00A84222D8F6
:102FF0000DB32068016849072CD5C069C04300059E
:1030000028D423684FF40061196221680B6823F407
:10301000D0730B6021688B6823F001038B60C4F8C8
:103020008480C4F88880C4F88C8000BF032084F8B2
:103030008090BDE8F08721680B6823F4D0730B60A3
:1030400021688B6823F001038B60C4F88480C4F886
:103050008880EBE72068C06936EA000004D00020D1
:10306000B842BDD00020E4E70120F9E7FEE70907F8
:1030700000284FEA116104DB00F1E02080F8001421
:10308000704700F00F0000F1E02080F8141D704739
:10309000704700000349CA695206FCD5C2B28A6271
:1030A00070470000001001403EB5002002904FF034
:1030B0000074009001900299009AA1F180410A6089
:1030C0000099491C0091029901F580410291A142A9
:1030D000F1D30290A0F1804000680090029898B16E
:1030E000DDE9000188420ED9DDE90001401A401CEB
:1030F0000004010B06A0FDF7BBF9029800F5804023
:103100000290A042E6D33EBD00980190ECE700009B
:10311000534452414D2043617061636974793A258B
:10312000644B420D0A000000FDF762FDFFF7FCFB57
:10313000FFF71EFAFFF7E6F9FFF758FAFFF7BCF9B9
:1031400011490020114A00BF21F81000401C904294
:10315000FAD34FF4FA660E4CB5103046FDF796FBE5
:10316000FFF7A2FF012220461146FDF727FD284662
:10317000FDF78CFB002220460121FDF71FFD2846AC
:10318000FDF784FBE9E70000000000C090D00300D9
:10319000000402584FF04070E1EE100A7047010041
:1031A00002000400060008000A000C0010002000C5
:1031B0004000800000010101010307010000080434
:1031C00002040801010100000000010203040102E1
:1031D0000304060708090000F83100080000002475
:1031E00020000000D402000818320008200000244B
:1031F00038070000F0020008000000000000000096
:1032000000000000010000001000000000000000AD
:083210000090D0030090D003F0
:040000050800029954
:00000001FF
