:020000040800F2
:10000000B806002045010008AB150008C714000819
:10001000A9150008650500087D180008000000000B
:10002000000000000000000000000000BF160008F3
:100030006705000800000000AD150008C1160008A3
:100040005F0100085F0100085F0100085F01000810
:100050005F0100085F0100085F0100085F01000800
:100060005F0100085F0100085F0100085F010008F0
:100070005F0100085F0100085F0100085F010008E0
:100080005F0100085F0100085F0100085F010008D0
:100090005F0100085F0100085F0100085F010008C0
:1000A0005F0100085F0100085F0100085F010008B0
:1000B0005F0100085F0100085F0100085F010008A0
:1000C0005F0100085F0100085F0100085F01000890
:1000D0005F0100085F0100085F0100085F01000880
:1000E0005F0100085F0100085F0100085F01000870
:1000F0005F0100085F0100085F0100085F01000860
:100100005F0100085F0100085F0100085F0100084F
:100110005F0100085F0100085F0100085F0100083F
:100120005F0100085F0100085F0100085F0100082F
:10013000DFF80CD000F078F8004800475D1D00089B
:10014000B80600200648804706480047FEE7FEE75D
:10015000FEE7FEE7FEE7FEE7FEE7FEE7FEE7FEE777
:100160001917000831010008202A04DB203A21FA7F
:1001700002F00021704721FA02F3D040C2F12002C0
:100180009140084319467047D2B201E000F8012BB4
:10019000491EFBD270470022F6E710B513460A4607
:1001A00004461946FFF7F0FF204610BD30B504465F
:1001B0000020034600E05B1C934203D2E05CCD5C70
:1001C000401BF8D030BD2DE9F05F05460020924677
:1001D0009B4688460646814640241BE02846414609
:1001E00047462246FFF7C0FF53465A46C01A914180
:1001F00010D311461846224600F028F82D1A67EB56
:1002000001084F4622460120002100F01FF817EB9D
:1002100000094E41201EA4F10104DFDC48463146AE
:100220002A464346BDE8F09F064C074D06E0E068CD
:1002300040F0010394E8070098471034AC42F6D32D
:10024000FFF77AFF101F0008301F0008202A04DB88
:10025000203A00FA02F1002070479140C2F12003D9
:1002600020FA03F31943904070470000F8B50446A4
:1002700000F07EFA054620208DF80000200C8DF855
:100280000100200A8DF802008DF8034000F03AF9D1
:10029000114E4FF4805400222146304600F062FA9D
:1002A0004FF47A73042269460C4800F093FE012251
:1002B0002146304600F056FA00F012F80228FBD032
:1002C00000F056FA401B40F6B831884201D90320AD
:1002D000F8BD0020F8BD0000000C01401C02002009
:1002E0007CB512A0124D00684FF48054009000229B
:1002F0002146284600F036FA4FF47A76334601223A
:1003000069460C4800F066FE3346012201A90948FF
:1003100000F0B8FD01222146284600F023FA9DF89E
:100320000400C00700D002207CBD000005000000D2
:10033000000C01401C02002038B50DA00D4D0068D6
:100340004FF48054009000222146284600F00AFA1B
:100350004FF47A7302226946074800F03BFE0122FF
:100360002146284600F0FEF9BDE83840FFF7B8BF47
:1003700066990000000C01401C0200202DE9F843A2
:10038000054603208DF80000080C8DF80100080ACE
:100390008DF80200DFF8488014468DF803104FF402
:1003A000805700223946404600F0DCF94FF47A7657
:1003B0003346042269460B4800F00CFEA2B23346D5
:1003C0002946084800F05EFD10B10120BDE8F88321
:1003D00001223946404600F0C5F90020F6E700004A
:1003E000000C01401C020020F8B504460FA0104E7E
:1003F00000684FF48055009000222946304600F0F6
:10040000B1F94FF47A773B4604226946094800F077
:10041000E1FD3B4602222146064800F033FD012261
:100420002946304600F09EF9F8BD0000900000001B
:10043000000C01401C0200202DE9F74F82B0164647
:100440000C4600F095F98346002001E000F580702D
:10045000A042FBD9051BB54200D9354604EB060A7C
:10046000DFF898804FF002094FF480574FF47A7606
:100470008DF80090200C8DF80100200A8DF8020004
:100480008DF8034000F03EF800223946404600F067
:1004900069F9334604226946194800F09BFD30B9DA
:1004A000AAB233461648029900F094FD18B1012013
:1004B00005B0BDE8F08F01223946404600F052F900
:1004C000FFF70EFF0228FBD000F052F9A0EB0B0063
:1004D000B04201D90320EBE702982C442844029053
:1004E00004F58070504502D9AAEB040501E04FF4F1
:1004F00080755445BCD30020DAE70000000C0140B1
:100500001C020020F8B514A00068009000F030F93B
:10051000124E04464FF4805500222946304600F022
:1005200021F94FF47A773B46012269460C4800F0E6
:1005300051FD01222946304600F014F9FFF7D0FEA4
:100540000228FBD000F014F9001BB84201D90320A7
:10055000F8BD0020F8BD000006000000000C0140BE
:100560001C020020FEE77047704700002DE9F84F9D
:10057000DFF8C891002409F1040A0AF1040B2346AC
:100580000F270BF1040ED1E00125A54006EA050274
:10059000AA4276D1DFF8A8C14E68A6EB0C086645E2
:1005A0002BD00DDC032E34D005DC36B3012E19D050
:1005B000022E2FD11BE0112E16D0122E2AD119E0B7
:1005C000B8F5881F19D006DCB8F5803F15D0B8F50E
:1005D000801F1FD111E0B8F5001F0ED0B8F5041F21
:1005E00018D10AE0CB6815E0CB681B1D12E0CB6880
:1005F00008330FE0CB680C330CE08B682BB1012B78
:100600004FF0080303D0456104E0042302E00561D4
:1006100000E00023FF2A01D8064601E000F10406AD
:100620004FEA840501D9A5F12005D6F8008007FA24
:1006300005FC28EA0C0803FA05F548EA0508C6F89F
:1006400000804D68ED0070D53E4DAE6946F0010664
:10065000AE61AD6924F0030605F0010500953A4D41
:1006600006EB050CDCF80850A607360F07FA06F86B
:1006700025EA0805DFF8D480404503D14FF0000893
:1006800025E052E0DFF8C880404502D14FF0010874
:100690001DE0DFF8C080404502D14FF0020816E0AF
:1006A000DFF8B480404502D14FF003080FE0DFF8D7
:1006B000AC80404502D14FF0040808E0DFF8A0808C
:1006C000404502D14FF0050801E04FF0060808FA56
:1006D00006F848EA0508CCF808804D68D9F80060AB
:1006E000ED034D4601D5164300E096432E604D685C
:1006F000DAF80060AD03554601D5164300E0964395
:100700002E604D68DBF80060ED025D4601D51643B2
:1007100000E096432E604D68DEF80060AD0275463D
:1007200001D5164300E096432E60641C0A68164605
:10073000E2407FF429AFBDE8F88F000000040140DB
:1007400000001110001002400000014000080140AC
:10075000000C01400010014000140140001801404D
:10076000001C01400AB1016170470904FBE7000069
:100770000148806870470000080000200248816836
:10078000027811448160704708000020074810B5C6
:10079000016841F010010160032000F067F80020BB
:1007A00000F006F800F024F8002010BD0020024000
:1007B00070B50D4D04464FF47A712878B1FBF0F016
:1007C0000A490968B1FBF0F000F0A3FD48B9102C0C
:1007D00007D200222146501E00F028F800206C604D
:1007E00070BD012070BD0000080000201400002032
:1007F0000C4808B5816941F001018161816901F00E
:1008000001010091C16941F08051C161C06900F0EE
:10081000805000900448416821F0E06141F080611F
:10082000416008BD0010024000000140F0B40E4BD2
:100830001B680C46C3F30223C3F10705042D00D93E
:100840000425191D072901D2002300E0DB1E012623
:1008500006FA05F1491E214099409E40761E164039
:100860003143F0BC01F01CB80CED00E0064900F08B
:10087000070208684FF6FF03184040EA0220034AC7
:1008800010430860704700000CED00E00000FA051E
:100890002DE9F0470F46050061D0434E306800F067
:1008A0000700B84209D2306820F0070038433060B2
:1008B000306800F00700B84251D128683B4C8107EE
:1008C00012D5400703D5606840F4E0606060287886
:1008D000000703D5606840F4605060606068A968F4
:1008E00020F0F000084360602878C00728D06868CE
:1008F000012810D02168022810D0890700292EDA9B
:10090000616821F0030101436160FFF731FF804618
:1009100041F288390DE021688903EFE78901EDE7AD
:10092000FFF726FFA0EB0801494502D90320BDE8E7
:10093000F0876068696800F00C00B0EB810FEFD1C0
:10094000306800F00700B8420BD9306820F007008B
:1009500038433060306800F00700B84201D0012011
:10096000E5E72878400705D56068E96820F4E0608D
:10097000084360602878000706D56068296920F47C
:10098000605040EAC100606000F03EF86168084ACB
:10099000C1F30311515CC84006490860064800686D
:1009A000FFF706FF0020C2E70020024000100240CF
:1009B000F81E0008140000200C000020014901204E
:1009C000C86470470000424204480549006849680D
:1009D000044AC1F30221515CC84070471400002052
:1009E00000100240081F00080448054900684968D3
:1009F000044AC1F3C221515CC84070471400002072
:100A000000100240081F000812A185B00FC98DE830
:100A10000F0014A0144A006804905168134801F0B4
:100A20000C03042B10D0082B0ED1C1F38343C90350
:100A30001DF803000AD5516804AAC1F34041515C76
:100A40000A4A5043B0FBF1F005B0704708494843EB
:100A5000FAE7000002030405060708090A0B0C0D5B
:100A60000E0F1010010200000010024000127A0068
:100A700000093D002DE9F84F040070D02078C04DEA
:100A8000C00749D06868C0F38100012807D06868B2
:100A9000C0F38100022809D16868C00306D5286820
:100AA000800339D560680028E7D035E06068B0F58C
:100AB000803F0BD010B1B0F5A02F11D0286820F4E2
:100AC00080302860286820F4802002E0286840F404
:100AD00080302860606890B1FFF74AFE06460AE061
:100AE000286840F480202860F0E700BFFFF740FE50
:100AF000801B642873D828688003F7D50CE0FFF7C3
:100B000037FE064605E000BFFFF732FE801B642873
:100B1000F0D828688003F7D420789A4E80074FF0E9
:100B200001094FF0000839D5686810F00C0F07D0A4
:100B30006868C0F38100022809D16868C00306D440
:100B40002868800714D52069012808D110E02069A1
:100B5000B0B1C6F80090FFF70BFE074605E00AE1CA
:100B6000FFF706FEC01B0228C4D828688007F7D507
:100B70002868616920F0F80040EAC10028600DE0B3
:100B8000C6F80080FFF7F4FD074604E0FFF7F0FD2C
:100B9000C01B022823D828688007F7D420780007D4
:100BA0002CD57948A169D9B1C0F80090FFF7E0FDD4
:100BB000074604E0FFF7DCFDC01B02280FD8686A77
:100BC0008007F7D571484FF4FA510068B0FBF1F097
:100BD000009000BF0098411E0091FAD20EE080E024
:100BE000C0F80080FFF7C4FD074604E0FFF7C0FD32
:100BF000C01B022875D8686A8007F7D420784007A0
:100C000060D5E8690027C00008D4E86940F080504A
:100C1000E861E869012700F0805000905C480168B5
:100C2000C90513D40168834641F480710160FFF760
:100C30009FFD824606E000BFFFF79AFDA0EB0A0089
:100C400064284ED8DBF80000C005F5D5E06801281F
:100C50000AD008B1052813D0286A20F001002862C4
:100C6000286A20F0040002E0286A40F001002862AF
:100C7000E06841F2883B98B1FFF77AFD82460BE0CD
:100C8000286A40F004002862EEE700BFFFF770FD1D
:100C9000A0EB0A0159455AD8286A8007F6D50CE01E
:100CA000FFF766FD824605E0FFF762FDA0EB0A0153
:100CB00059454CD8286A8007F6D41FB1E86920F05E
:100CC0008050E861E06988B36968C1F38101022955
:100CD00044D00228C6F8608004D0FFF749FD0446DE
:100CE00038E034E0FFF744FD074604E0FFF740FD3D
:100CF000C01B02282BD828688001F7D4206AB0F5E1
:100D0000803F05D16868A16820F40030084368601E
:100D1000D4E908010843696821F474110843686044
:100D2000C6F86090FFF724FD044606E025E000BF0A
:100D3000FFF71EFD001B022809D828688001F7D59F
:100D40001BE000BFFFF714FD001B022802D903209F
:100D5000BDE8F88F28688001F4D40EE00128F7D0B0
:100D60006868226A00F48031914204D1616A00F41B
:100D70007010884201D00120EAE70020E8E7000077
:100D80000010024000004242800442421400002051
:100D90000070004070B5040005D00025A56294F8ED
:100DA000510010B106E0012070BD84F8505020467B
:100DB00000F02EF8022084F851002068016821F02C
:100DC00040010160D4E901010843D4E90312114351
:100DD000084361690843218B01F400710843E1690C
:100DE0000843216A0843A16A084321680860A06992
:100DF000042101EA1040216848602068C16921F49B
:100E00000061C1616565012084F85100002070BD5A
:100E100030B585B0002400940194029403940068D6
:100E20001549884225D11548C16941F48041C16105
:100E3000C16901F480410491816941F00801816137
:100E400080690F4D00F0080004904FF4204000909E
:100E5000022001900320039069462846FFF786FB95
:100E60004FF48040CDE90004694628460294FFF71C
:100E70007DFB05B030BD000000380040001002408E
:100E8000000C01402DE9F84F0446406800259846C3
:100E900016460F464FF0040BB0F5827F01D1A068D3
:100EA00088B194F85000012818D0012084F850002F
:100EB000FFF75EFC814694F851004FF0000A0128CC
:100EC0000ED002257DE084F851B013460A46204634
:100ED000CDF8008000F02CF9BDE8F88F0220FBE788
:100EE000002F6DD0002E6BD084F851B0C4F854A000
:100EF000A763A687E687C4F830A0A4F834A0A4F8B6
:100F000036A0C4F840A0C4F844A0A068B0F5004FD3
:100F100004D12068016821F48041016020680168E3
:100F2000490603D4016841F040010160E068D8B18E
:100F300039E020688168C90709D0007BA16B08707F
:100F4000A06B401CA063E08F401EE0870CE0FFF721
:100F50000FFCA0EB0901414503D3B8F1FF3F03D0DB
:100F600036E0B8F1000F33D0E08F0028E1D11DE06A
:100F700020688168C90709D0C068A16B0880A06B90
:100F8000801CA063E08F401EE0870CE0FFF7F0FBC1
:100F9000A0EB0901414503D3B8F1FF3F03D017E0AF
:100FA000B8F1000F14D0E08F0028E1D14A46414645
:100FB000204600F0FCFA08B120206065606D00B1A9
:100FC0000125012084F8510084F850A0284683E7C9
:100FD0000325F6E72DE9F84F044690F85000002766
:100FE0001D461646894601280DD04FF0010B84F8A6
:100FF00050B0FFF7BDFB804694F85100BA46012877
:1010000004D002278EE00220BDE8F88FB9F1000F6E
:101010007DD0002E7BD0032084F85100C4F854A06A
:10102000C4F83090A686E686C4F838A0A4F83CA0A0
:10103000A4F83EA0C4F844A0C4F840A0A068B0F54D
:10104000004F04D12068016841F4804101602068AC
:101050000168490603D4016841F040010160E0687D
:10106000B0F5006F606803D030B3012E24D040E0AB
:1010700008B1012E1CD1206B21680088C86006E0F1
:1010800020688168890709D5216B0988C160206BB8
:10109000801C2063E08E401EE08609E0FFF768FBBD
:1010A000A0EB0800A84202D3681C01D031E07DB358
:1010B000E08E0028E4D11FE0206B216800780873DF
:1010C00006E020688168890709D5216B09780173DA
:1010D000206B401C2063E08E401EE08609E0FFF795
:1010E00047FBA0EB0800A84202D3681C01D010E027
:1010F00075B1E08E0028E4D142462946204600F032
:1011000084FA08B120206065A06820B107E008E0FB
:10111000FFE7032706E02068C16880680090606DE3
:1011200000B1012784F851B084F850A038466BE72D
:101130002DE9F84F044690F8500000270A9E1D46FE
:1011400092468B464FF0010901280ED0012084F809
:101150005000FFF70DFB804694F8510061680128AC
:101160000CD0B1F5827F07D102E00220BDE8F88FF4
:10117000A16809B9042801D00227C2E0BBF1000F21
:1011800027D0BAF1000F24D01DB394F851000428E1
:1011900002D0052084F8510000206065C4F838A012
:1011A000E587A587C4F830B0E586A586206460642D
:1011B00020680168490603D4016841F040010160DC
:1011C000E068B0F5006F606805D0E8B3012D46D047
:1011D0007FE0012795E008B1012D39D1206B21680E
:1011E0000088C860206B801C2063E08E401EE08673
:1011F0002EE02068816889070FD5E18E69B1B9F1C9
:10120000010F0AD1216B0988C160206B801C20630B
:10121000E08E401EE0864FF0000920688168C90713
:101220000CD0E18F51B1C068A16B0880A06B801C0D
:10123000A063E08F401EE0874FF00109FFF798FAA6
:10124000A0EB0800B04200E009E001D3701C50D1CF
:10125000E08E0028CDD1E08F0028CAD13FE0206B7E
:10126000216800780873206B401C2063E08E401ECC
:10127000E0862EE02068816889070FD5E18E69B18C
:10128000B9F1010F0AD1216B09780173206B401C61
:101290002063E08E401EE0864FF0000920688168E0
:1012A000C9070CD0E18F51B1C068A16B0870A06B69
:1012B000401CA063E08F401EE0874FF00109FFF75C
:1012C00057FAA0EB0800B04202D3701C01D010E026
:1012D0007EB1E08E0028CDD1E08F0028CAD14246F1
:1012E0003146204600F091F928B1012720206065A1
:1012F00007E0032705E0A06818B92068C168806886
:101300000090012084F85100002084F850003846F5
:101310002CE710B5401EB0F1807F01D3012010BD35
:101320004FF0E02460610F21601700F0B9FA00204F
:10133000A06107202061002010BD70B5040004D01A
:1013400094F83900002510B106E0012070BD84F842
:101350003850204600F022F8242084F83900206814
:10136000C16821F40051C160204600F0F9F92068FD
:10137000016921F4904101612068416921F02A014D
:1013800041612068C16841F40051C160E5632020DB
:1013900084F8390084F83A00002070BD30B585B07B
:1013A0000024009401940294039400681449884234
:1013B00024D11448816941F480418161816901F43B
:1013C00080410491816941F00401816180690E4D81
:1013D00000F0040004904FF400700090022001908F
:1013E0000320039069462846FFF7C0F82815CDE989
:1013F0000004694628460294FFF7B8F805B030BDEE
:101400000038014000100240000801402DE9F84377
:10141000044690F839001F4616460D46202850D144
:10142000A5B19EB194F8380001284AD0012084F873
:1014300038004FF00008C4F83C80212084F83900BF
:10144000FFF796F9A6848146E68426E00120BDE8F0
:10145000F883E08C401EE084A0684B46B0F5805FC6
:101460004FF000024FF080012046009703D000F0BB
:10147000D3F9E8B90DE000F0CFF9C8B928882168A0
:10148000C0F308004860206908B16D1C05E0AD1C80
:1014900003E0216815F8010B4860E08C0028D8D1E2
:1014A0004B46002240212046009700F0B5F908B1D4
:1014B0000320CCE7202084F8390084F8388000200D
:1014C000C5E70220C3E7FEE770B586B000241448E4
:1014D0000094019402940394816941F008018161B0
:1014E000816901F008010491816941F00401816181
:1014F00080690C4E00F004004FF4805504900022E7
:1015000029463046FFF72EF901200095CDE9010468
:101510000220039069463046FFF728F806B070BDF8
:1015200000100240000C0140104810B50E49016047
:101530004FF48271416000218160C1604FF40072FC
:101540000161C0E905122822C0E9072141628162D8
:101550000A21C162FFF71EFC002803D0BDE810403D
:10156000FFF702B810BD0000003800401C02002048
:101570000C4810B50A4901604FF4E1314160002187
:1015800081600C22C160C0E904128161C161FFF772
:10159000D4FE002803D0BDE81040FEF7E5BF10BD23
:1015A0000038014074020020FEE770477047F8B52C
:1015B000044640684FF48273984217D1A0684FF4F4
:1015C0008065B0F5004F01D0A8420FD120680668B1
:1015D00026F0400606606068984207D1A068A842DD
:1015E00004D100920B460022012103E000920B4639
:1015F00000228021204600F018F8002804D0606DF9
:1016000040F0200060650320F8BD38B50B4600921D
:1016100004460022802100F008F8002804D0606D04
:1016200040F020006065032038BD2DE9F0411D46E3
:1016300017460E460446DDF8188008E0681C06D000
:10164000FFF796F8A0EB0800A8420BD255B120682E
:10165000806836EA000030D00020B842EED1002089
:10166000BDE8F0812068416821F0E00141606068D8
:10167000B0F5827F0BD1A068B0F5004F02D0B0F575
:10168000806F04D12068016821F040010160A06AE8
:10169000B0F5005F09D12068016821F400510160B4
:1016A0002068016841F400510160012084F8510074
:1016B000002084F850000320D2E70120CDE77047D6
:1016C000FFF75CB830B58FB028216846FEF763FDA0
:1016D00014210AA8FEF75FFD01210804CDE90010DE
:1016E0000024029402250491CDE907504FF4E01044
:1016F00009906846FFF7BEF90F20CDE90A05680298
:10170000CDE90C4002210AA80E94FFF7C1F8FFF7BB
:1017100055F90FB030BD00000D48016841F00101DE
:10172000016041680B4A1140416001680A4A11405A
:101730000160016821F480210160416821F4FE010B
:1017400041604FF41F0181600449C0030860704785
:10175000001002400000FFF8FFFFF6FE08ED00E079
:101760002DE9F041044600680169E26821F4405126
:10177000114301612169A068084361690843216838
:10178000CA6841F20C639A430243CA602068416907
:10179000A26921F44071114341611E49206864250A
:1017A0003226884202D1FFF71FF901E0FFF70CF95A
:1017B00000EBC00101EB001160686FF018078000BA
:1017C000B1FBF0F2B2FBF5F2B1FBF0F37A4303EBBD
:1017D0008202B1FBF0F306EB0212B2FBF5F2B3FBAF
:1017E000F5F302F0F00202EB0312B1FBF0F3B1FBF0
:1017F000F0F0B0FBF5F0784303EB800006EB00104F
:10180000B0FBF5F0216800F00F0010448860BDE8DF
:10181000F0810000003801402DE9F041984617465C
:101820000E460446069D1DE0681C1BD02DB1FEF738
:101830009FFFA0EB0800A84214D92068C16821F4DA
:10184000D071C1602068416921F00101416120200F
:1018500084F8390084F83A00002084F83800032026
:10186000BDE8F0812068006836EA000004D000205E
:10187000B842D9D00020F3E70120F9E7FEE70000E5
:101880000FB4054B10B503A9044A029800F028F8DC
:1018900010BC5DF814FB0000451D00081800002076
:1018A0000907090E002804DB00F1E02080F800148D
:1018B000704700F00F0000F1E02080F8141D704721
:1018C00002E008C8121F08C1002AFAD17047704709
:1018D000002001E001C1121F002AFBD17047000067
:1018E0002DE9FF4F8DB00F460546002606E025285E
:1018F0000BD0DDE90F1290476D1C761C287800286C
:10190000F5D111B03046BDE8F08F0024A246A146C3
:101910000122EC4900E0044315F8013F203B02FAA4
:1019200003F00842F7D128782A2810D06FF02F0250
:101930002878A0F13001092914D80AEB8A0102EBBA
:10194000410144F0020400EB010A6D1CF0E701CFF5
:101950005FEA000A03D544F40054CAF1000A44F0D7
:1019600002046D1C28782E2817D115F8010F44F0B9
:1019700004042A280ED06FF02F022878A0F130013D
:1019800009290AD809EB890102EB410100EB0109A1
:101990006D1CF2E757F8049B6D1C28786C280FD05B
:1019A00006DC4C2817D068280DD06A2814D104E032
:1019B000742810D07A280FD10DE044F400140AE006
:1019C00044F4801401E044F440146978814202D167
:1019D00004F580146D1C6D1C2A786E2A1FD00CDC57
:1019E000632A31D004DC002A8BD0582A11D1A3E01D
:1019F000642A68D0692A0CD165E0732A2ED004DCF1
:101A00006F2A73D0702A04D19BE0752A6FD0782A90
:101A10006ED01046DDE90F129047761C50E1C4F3FA
:101A20000250022806D0032809D0042801CF09D08B
:101A3000066045E101CFF117C0E9006140E101CF47
:101A400006803DE106703BE117F8040B8DF80000BD
:101A500000208DF80100EB46012003E057F804BB9D
:101A60004FF0FF3061074FF0000102D40DE008F1A4
:101A70000101884649450FDA8045F8DB1BF808105C
:101A80000029F4D108E008F1010188468142FADB1F
:101A90001BF808100029F6D1DDE90F23AAEB080096
:101AA0008146214600F036F9304400EB080604E098
:101AB000DDE90F121BF8010B9047B8F10108F7D2CE
:101AC00021464846F7E00A21C4F302534FF0000BC9
:101AD0000891022B04D001CFC117032B09D00AE0D3
:101AE000FF1D27F00707F7E8020108E032E01FE0DA
:101AF00020E000B2C117042B01D140B2C117031E70
:101B000071F1000307DA4FF0000CD0EB0C006CEB26
:101B100001012D2302E0230504D52B238DF8243069
:101B2000012303E0E30701D02023F7E7984658E0BC
:101B30000A2110E010210EE010204FF0000B089059
:101B40000CE010214FF0000B44F004044FF00809A2
:101B5000089103E008214FF0000B0891C4F30253F1
:101B6000022B04D001CF0021032B06D006E0FF1D7D
:101B700027F00707F7E8020103E080B2042B00D149
:101B8000C0B24FF0000823072BD5702A07D0DDF82C
:101B900020C08CF0100C5CEA0B0C05D00EE040234A
:101BA0008DF82430012308E050EA010306D03023E9
:101BB0008DF824308DF8252002239846DDF820C0CA
:101BC0008CF0080C5CEA0B0C0BD150EA010301D13C
:101BD000630706D530238DF824304FF00108A9F1B2
:101BE0000109582A04D038A20B9208AA0A920BE0E5
:101BF0003AA2F9E75B46089AFEF7E5FA0B9B9B5C75
:101C00000A9A521E0A92137050EA0102F2D10A98FF
:101C1000ADEB000000F1200B600702D524F4803406
:101C200001E04FF00109D94502DDA9EB0B0000E00E
:101C3000002000EB0B0141440890AAEB010AE003ED
:101C400006D4DDE90F232146504600F063F8064430
:101C50004FF0000908E009A911F80900DDE90F12A9
:101C6000904709F10109761CC145F4DBE0030CD56E
:101C7000DDE90F232146504600F04CF8064404E00D
:101C8000DDE90F1230209047761C0899481E089015
:101C90000029F5DC08E00A980A990078491C0A91A5
:101CA000DDE90F129047761CBBF10001ABF1010B8F
:101CB000F1DC21465046DDE90F2300F019F8064417
:101CC0006D1C1BE6092801003031323334353637BC
:101CD0003839616263646566000000003031323378
:101CE0003435363738394142434445460000000018
:101CF0002DE9F041044600251E461746880404D409
:101D000005E039462020B0476D1C641EF9D52846F1
:101D1000BDE8F0812DE9F041044600251E469046BD
:101D2000C80301D5302700E02027880404D505E04A
:101D300041463846B0476D1C641EF9D52846BDE8BB
:101D4000F081000013B54FF6FF7301226946024887
:101D5000FFF75CFB00981CBD74020020FEF716FD27
:101D6000FFF7B0FCFFF7B0FBFFF7DEFBFFF700FC6F
:101D700029A0FFF785FDFEF7DFFA2E48FEF734FBBA
:101D80002C48427801782CA0FFF77AFD0020FEF75E
:101D90006DFA10B931A0FFF773FD264D00243548C8
:101DA000264600F580776C6004553E55641CFF2C78
:101DB000FAD96C604FF48074224600212D48FEF75A
:101DC0003BFB10B92CA0FFF75BFD224600212E48FB
:101DD000FEF7D4FA10B92DA0FFF752FD30A0FFF79F
:101DE0004FFD6E606868395C32A0FFF749FD686896
:101DF000401C6860FF28F5D927A0FFF741FD224667
:101E000021491C48FEF7D2F918B12DA0FFF738FD83
:101E1000FEE732A0FAE700000D0A205350492D5783
:101E2000323551787878204578616D706C65200D79
:101E30000A0D0A00000000202057323551787878CA
:101E4000204944206973203A2030782530325820C8
:101E5000307825303258200D0A0D0A0020535049A1
:101E600020457261736520426C6F636B206F6B0D50
:101E70000A0000001C0000202053504920577269BE
:101E80007465206F6B0D0A001C010020205350491F
:101E90002052656164206F6B0D0A0D0A000000007E
:101EA00053504920526561642044617461203A2096
:101EB0000D0A000030782530325820200000000044
:101EC000205732355131323846562053504920542C
:101ED0006573742046616C73650D0A0020573235B6
:101EE000513132384656205350492054657374207E
:101EF0004F4B0D0A00000000000000000000000031
:101F0000010203040607080900000000010203049F
:101F1000301F0008000000201C000000C01800084E
:101F20004C1F00081C0000209C060000D018000870
:101F30000000000000000000010000001000000090
:0C1F4000000000000024F400000000007D
:0400000508000131BD
:00000001FF
