:020000040800F2
:1000000088040020450100089B1B0008B31A000863
:10001000991B0008A10800086D1D000800000000E1
:100020000000000000000000000000009F1B00080E
:10003000A3080008000000009D1B0008A11B000889
:100040005F0100085F0100085F0100085F01000810
:100050005F0100085F0100085F0100085F01000800
:100060005F0100085F0100085F0100085F010008F0
:100070005F0100085F0100085F0100085F010008E0
:100080005F0100085F0100085F0100085F010008D0
:100090005F0100085F0100085F0100085F010008C0
:1000A0005F0100085F0100085F0100085F010008B0
:1000B0005F0100085F0100085F0100085F010008A0
:1000C0005F0100085F0100085F0100085F01000890
:1000D0005F0100085F0100085F0100085F01000880
:1000E0005F0100085F0100085F0100085F01000870
:1000F0005F0100085F0100085F0100085F01000860
:100100005F0100085F0100085F0100085F0100084F
:100110005F0100085F0100085F0100085F0100083F
:100120005F0100085F0100085F0100085F0100082F
:10013000DFF80CD000F0C6FA004800479D26000802
:10014000880400200648804706480047FEE7FEE78F
:10015000FEE7FEE7FEE7FEE7FEE7FEE7FEE7FEE777
:10016000091C000831010008202A04DB203A21FA8A
:1001700002F00021704721FA02F3D040C2F12002C0
:100180009140084319467047D2B201E000F8012BB4
:10019000491EFBD270470022F6E710B513460A4607
:1001A00004461946FFF7F0FF204610BD80EA010221
:1001B00010B502F00043400022D04A001FD0010ECB
:1001C00001EB1261C0F35600C2F3560240F4000086
:1001D00042F40002A0FB022000047F39140400D086
:1001E000401C50EA124001D44000491EC2B20C0625
:1001F00004EBD010401C4008802A02D003E000200D
:1002000010BD20F00100002900DA0020184310BDC5
:10021000420005D0C0F3C7525242914201DC002097
:10022000704700EBC150704796230022114600F042
:1002300063B800F0004230F000400AD0C10D01F573
:100240006071C0F3160042EA0151C2084007114331
:10025000704700200146704730B50B46014600202C
:100260002022012409E021FA02F59D4205D303FA78
:1002700002F5491B04FA02F52844151EA2F10102F9
:10028000F1DC30BD2DE9F05F0546002092469B462B
:1002900088460646814640241BE02846414647469C
:1002A0002246FFF761FF53465A46C01A914110D3C8
:1002B00011461846224600F017FA2D1A67EB01087E
:1002C0004F4622460120002100F00EFA17EB0009EC
:1002D0004E41201EA4F10104DFDC484631462A4687
:1002E0004346BDE8F09F0029A8BF7047401C490065
:1002F00008BF20F00100704710B4B0FA80FC00FA8B
:100300000CF050EA010404BF10BC704749B1CCF1B5
:10031000200421FA04F411FA0CF118BF0121214341
:100320000843A3EB0C01CB1D4FEA00614FEA1020FC
:1003300042BF002010BC704700EBC350104400299E
:10034000A4BF10BC7047401C490008BF20F001004A
:1003500010BC70472DE9FE4F804681EA0300C00FB4
:100360000C46009021F0004123F00045B8EB02005C
:10037000A94105D24046214690461C460B460246FE
:1003800023F00040104347D0270DC7F30A00C3F302
:100390000A510290401A019040286BDAC3F313000F
:1003A00040F4801B0098924620B10023D2EB030A50
:1003B00063EB0B0B01985946C0F14002504600F028
:1003C00093F906460D4650465946019A00F09BF9AE
:1003D00010EB08006141002487EA115284EAE773B8
:1003E0001A4340D0009A62B3019A012A4FEA075299
:1003F00015DC001B61EB02014FF0004202EA0752DC
:10040000CDE90042001C41F5801132462B4600F038
:100410009BF903B0BDE8F08F40462146F9E7001B89
:1004200061EB0201001C41F5801300185B412018AC
:10043000A2F5001747EB030140EAD570B6196D41EC
:1004400011E06D084FEA360645EAC0754FEA0752DB
:10045000001B61EB0201001C41F5801149084FEAC5
:1004600030000019514132462B4603B0BDE8F04F31
:1004700000F05BB90098012240000023D0EB02029B
:1004800063EBE073009821464FEAE074B8EB00009C
:1004900061EB0401E9E783F000435BE781F0004191
:1004A00058E72DE9FE4F81EA030404F0004421F0EF
:1004B000004100944FF0000B23F0004350EA010488
:1004C0005ED052EA03045BD0C3F30A54C1F30A5569
:1004D0002C44A4F2F3340194A0FB0254C1F31301A1
:1004E00041F48011C3F3130343F4801301FB02446E
:1004F00000FB034E840A970A44EA815447EA835773
:10050000A4FB076802958D0A05FB07854FEA932C2B
:1005100004FB0C542705029D4FEA065847EA16379C
:10052000B5EB08056EEB070C870E920E47EA8117B4
:1005300042EA8312A7FB0201B6EB0B0164EB000455
:100540002B0D43EA0C335E1844EB1C50DA4651463F
:10055000E7FB0201C5F313044FEA0B3343EA1453DC
:100560004FEA0432019C43EA0603A4F10C0402940E
:10057000009CCDE900B400F0E7F803B0BDE8F08FCF
:1005800000200146F9E72DE9F04D81EA030404F06B
:10059000004B21F0004514464FF0000A23F00041C3
:1005A00050EA050220D054EA01021DD0C5F30A57D3
:1005B0000246C5F31303C1F31300C1F30A5640F416
:1005C000801543F48013A7EB0608101BD64608F2EB
:1005D000FD3873EB050002D308F1010801E0921821
:1005E0005B41B8F1000F03DA00200146BDE8F08D51
:1005F00000204FF48011064684460EE0171B73EB73
:10060000050705D3121B63EB050306434CEA010CF7
:1006100049084FEA300092185B4150EA0107EDD1DA
:1006200052EA030012D082EA040083EA050108437B
:1006300005D0101BAB4106D20122002306E00022A8
:100640004FF0004302E06FF0010253101AEB060076
:100650004CEB085110EB0A0041EB0B01BDE8F04DEB
:1006600000F063B8C1F30A52C1F3130140F2FF3343
:1006700041F480119A4202DA00200146704740F2AC
:1006800033439A42A2F2334202DC5242FFF76CBD7E
:1006900000F02AB830B5041E71F1000404DB4FF0FD
:1006A0000044404264EB0101141E73F1000405DBB9
:1006B0001C464FF00043524263EB0403994208BFCB
:1006C000904230BD064C074D06E0E06840F0010363
:1006D00094E8070098471034AC42F6D3FFF72CFD9E
:1006E0007027000890270008202A04DB203A00FA2F
:1006F00002F1002070479140C2F1200320FA03F379
:10070000194390407047202A06DBCB17203A41FA64
:1007100002F043EAE07306E041FA02F3D040C2F18E
:100720002002914008431946704710B5141E73F11A
:10073000000408DA401C41F1000192185B411A43A1
:1007400001D120F0010010BD2DE9F04D92469B46ED
:1007500011B1B1FA81F202E0B0FA80F22032904693
:10076000FFF7C2FF04460F4640EA0A0041EA0B01C8
:1007700053465A46084313D0114653EA010019D094
:10078000C8F140025046FFF7EFFC05460E465046C2
:1007900059464246FFF7A8FF084305D0012004E070
:1007A00020463946BDE8F08D0020054346EAE07654
:1007B0002C4337430A986305E40AA0EB08000022A3
:1007C000FD0A44EA47540A3002D500200146E9E711
:1007D000010510196941DDE9084500196941BDE8C5
:1007E000F04DA2E770B5044600688168C943C907A7
:1007F0001CD1816821F00101816000F093FC054665
:100800000FE000BF00F08EFC401B022809D9A06A4F
:1008100040F01000A062E06A40F00100E0620120B8
:1008200070BD20688068C043C007EBD0002070BD59
:10083000F8B500260446009600688168C943C907D8
:1008400028D0816841F00101816013481349006894
:10085000B0FBF1F000E0401E00900028FBD100F05A
:1008600061FC054611E000BF00F05CFC401B022863
:100870000BD9A06A40F01000A062E06A40F00100CD
:10088000E06284F824600120F8BD20688068C043DD
:10089000C007E9D10020F8BD1000002040420F0041
:1008A000FEE7704770470000F8B50022009290F80C
:1008B000244083681546012C1CD0012480F8244074
:1008C000D3B14E680B691F249E4226D81F059B1B7F
:1008D000C3F103030E6803EB83039E40A7F5801763
:1008E00037439C40036844F440169C6BB443274351
:1008F0009F631EE00220F8BD4B68012B05D0826A81
:1009000042F020028262012213E003689C6B0E68B1
:100910006FF3150444EAC6340AE09B1BC3F10303DA
:1009200003EB83039C40036844F440169C6BB44380
:100930009C6303689C68E443E4070ED09E6847F21A
:100940000104A643504CA3428C6904D1B4F5C04FB6
:1009500001D14FF4804426439E604B7D012B08D18A
:100960008B69B3F5E04F08D0826A42F020028262C0
:1009700001220B7D012B06D00CE003685C6844F477
:1009800080645C60F5E74B7DA3B1826A42F020028F
:10099000826201220B68072406680A2B10D3F768CD
:1009A0000A3B03EB43039C40A7438C689C402743CE
:1009B000F7600EE003685C6844F480545C60E9E72B
:1009C000376903EB43039C40A7438C689C40274353
:1009D00037610B68102B01D0112B04D103689C6880
:1009E00044F400049C604B68012B10D0022B16D0FD
:1009F000032B03681BD01C6ACE686FF30B043443CF
:100A00001C620B68102B19D0112B17D037E003682C
:100A10005C69CE686FF30B0434435C61F1E70368F3
:100A20009C69CE686FF30B0434439C61E9E7DC6991
:100A3000CE686FF30B043443DC61E2E7134C0368C8
:100A4000A34217D19C68240219D49C6844F4000482
:100A50009C600968102912D10D490E4B0968B1FB41
:100A6000F3F101EB8101490000E0491E00910029EA
:100A7000FBD104E0816A41F020018162012280F80B
:100A800024501046F8BD0000003C01400024014005
:100A90001000002040420F00F8B50024009490F8A8
:100AA00024202546012A12D0012280F824204A68F9
:100AB0001F23072A0DD20668776B521E02EB8202B3
:100AC00093409F430B6893401F43776319E00220D4
:100AD000F8BD06680D2A0AD2376BD21F02EB8202DC
:100AE00093409F430B6893401F43376309E0F76AC5
:100AF0000D3A02EB820293409F430B6893401F43E1
:100B0000F7620A68072306680A2A0AD3F7680A3ACE
:100B100002EB420293409F438B6893401F43F76070
:100B200008E0376902EB420293409F438B68934091
:100B30001F4337610A68102A01D0112A20D1124BB5
:100B400002689A4217D193681B0219D4936843F440
:100B5000000393600968102912D10C490C4A0968F6
:100B6000B1FBF2F101EB8101490000E0491E009167
:100B70000029FBD104E0816A41F020018162012457
:100B800080F824502046F8BD0024014010000020C9
:100B900040420F00806A70470068C06C70470000D8
:100BA0002DE9F04104004FF000057FD0A06A002637
:100BB00028B9E66284F82460204600F081F82046D7
:100BC000FFF710FEA16AC90600D420B1A06A40F068
:100BD0001000A0626AE0A16A21F4885141F002018C
:100BE000A162334923688B42E16904D1B1F5402FFA
:100BF00001D14FF40021277B4FF4807C41EA47026A
:100C000061680A43A168614508D0012906D0002126
:100C100094F814E0BEF1010F02D00AE06146F7E754
:100C2000C7B1A76A47F02007A762E76A47F0010744
:100C3000E7625F6827F469470F435F60236899683C
:100C40001C4F394011439960A16861450BD00129BF
:100C500009D00CE0DFF860E0A7690EEB47370F43DF
:100C600047F40061E5E7218A0D05A5F580152168A7
:100C7000CB6A23F470032B43CB62216889680F4B46
:100C80001940914208D1E662A16A21F0020141F0C7
:100C90000101A162BDE8F081A06A20F0020040F0ED
:100CA0001000A062E06A40F00100E0620120F1E77C
:100CB000003C0140FDF7E1FF00E0FFFFFE0E1FFFDB
:100CC00000B585B000210091019102910391006867
:100CD0000E49884218D10E48816941F40071816142
:100CE000816901F400710491816941F0040181611D
:100CF0008069694600F004000490082000900320F9
:100D00000190044800F012F905B000BD0024014034
:100D100000100240000801402DE9F84300260D466E
:100D20000446009600F0FEF9804620688168C905F7
:100D300008D5A06A40F02000A06284F82460012059
:100D4000BDE8F8834168C90503D4C06A10F4700F88
:100D500026D0022000F076FA38490968B1FBF0F796
:100D60002068036936490B424FEA61014FEAA1123C
:100D70001BD1C3684FEA611C13EA0C0F15D103693C
:100D80000B4221D1C06810421ED114201FE0681C04
:100D900006D045B300F0C6F9A0EB0800A84222D85F
:100DA000206800688007F2D52AE003690B4202D16F
:100DB000C168114206D0026922490A4206D1C068C0
:100DC000084203D1542002E0292000E0FC204743E0
:100DD000009813E0681C0ED02DB100F0A3F9A0EB31
:100DE0000800A84207D9A06A40F00400A06284F875
:100DF00024600320A4E70098401C0090B842E9D387
:100E000021686FF012000860A06A40F40070A062D0
:100E100020688068C0F3424007280CD1207B50B97D
:100E2000A06A20F48070A062A06AC00403D4A06A03
:100E300040F00100A062002082E7000010000020C6
:100E4000244992244992240070B5044690F8240065
:100E500001280DD0012084F824002046FFF7E8FC8B
:100E600002004FF0000005D084F82400104670BD49
:100E7000022070BDA16A40F20123994341F48071C0
:100E8000A1621F4D23681F49AB4218D10E6816F4AA
:100E9000702F14D0A66A46F48016A6620E687605F6
:100EA00005D5A66A26F4005646F48056A662A66AC0
:100EB000F6040AD5E66A26F00606E66206E0A66AA9
:100EC00026F48016A6625E68E9E7E06284F82400F2
:100ED0006FF00200186020688368C3F34243072B59
:100EE00005D1A84208D1096811F4702F04D0816897
:100EF00041F480118160B9E7816841F4A001F9E70C
:100F0000002801400424014070B5044600F00AF9AD
:100F10000546601C02D004480078044400F002F941
:100F2000401BA042FAD370BD040000202DE9F84F09
:100F3000DFF8C891002409F1040A0AF1040B2346E2
:100F40000F270BF1040ED1E00125A54006EA0502AA
:100F5000AA4276D1DFF8A8C14E68A6EB0C08664518
:100F60002BD00DDC032E34D005DC36B3012E19D086
:100F7000022E2FD11BE0112E16D0122E2AD119E0ED
:100F8000B8F5881F19D006DCB8F5803F15D0B8F544
:100F9000801F1FD111E0B8F5001F0ED0B8F5041F57
:100FA00018D10AE0CB6815E0CB681B1D12E0CB68B6
:100FB00008330FE0CB680C330CE08B682BB1012BAE
:100FC0004FF0080303D0456104E0042302E005610B
:100FD00000E00023FF2A01D8064601E000F10406E4
:100FE0004FEA840501D9A5F12005D6F8008007FA5B
:100FF00005FC28EA0C0803FA05F548EA0508C6F8D6
:1010000000804D68ED0070D53E4DAE6946F001069A
:10101000AE61AD6924F0030605F0010500953A4D77
:1010200006EB050CDCF80850A607360F07FA06F8A1
:1010300025EA0805DFF8D480404503D14FF00008C9
:1010400025E052E0DFF8C880404502D14FF00108AA
:101050001DE0DFF8C080404502D14FF0020816E0E5
:10106000DFF8B480404502D14FF003080FE0DFF80D
:10107000AC80404502D14FF0040808E0DFF8A080C2
:10108000404502D14FF0050801E04FF0060808FA8C
:1010900006F848EA0508CCF808804D68D9F80060E1
:1010A000ED034D4601D5164300E096432E604D6892
:1010B000DAF80060AD03554601D5164300E09643CB
:1010C0002E604D68DBF80060ED025D4601D51643E9
:1010D00000E096432E604D68DEF80060AD02754674
:1010E00001D5164300E096432E60641C0A6816463C
:1010F000E2407FF429AFBDE8F88F00000004014012
:1011000000001110001002400000014000080140E2
:10111000000C014000100140001401400018014083
:10112000001C014001488068704700000400002056
:1011300002488168027811448160704704000020F1
:10114000074810B5016841F010010160032000F06C
:1011500067F8002000F006F800F024F8002010BD29
:101160000020024070B50D4D04464FF47A71287886
:10117000B1FBF0F00A490968B1FBF0F000F0BEFBEA
:1011800048B9102C07D200222146501E00F028F842
:1011900000206C6070BD012070BD000004000020C4
:1011A000100000200C4808B5816941F001018161FF
:1011B000816901F001010091C16941F08051C16173
:1011C000C06900F0805000900448416821F0E0615F
:1011D00041F08061416008BD001002400000014004
:1011E000F0B40E4B1B680C46C3F30223C3F1070592
:1011F000042D00D90425191D072901D2002300E080
:10120000DB1E012606FA05F1491E214099409E4049
:10121000761E16403143F0BC00F0BABD0CED00E084
:10122000064900F0070208684FF6FF03184040EA3D
:101230000220034A10430860704700000CED00E0F4
:101240000000FA0510B52CA401461DCC86B08DE82F
:101250001D002DA02D4C00680490002004292FD0E3
:101260000BDC01292FD0022928D100F071F9616827
:10127000C1F38131491C49001EE0082920D0102902
:101280001CD161682268D20118D5C1F38342C90319
:101290001DF8020009D5616804AAC1F34041515C00
:1012A0001B4AB2FBF1F1484301E01A494843616827
:1012B000490203D440000321B0FBF1F006B010BD99
:1012C00000F056F9FAE7226AC2F30121012903D19D
:1012D000920701D5C803F1E7022905D1626A920796
:1012E00002D549F64040E9E70329E7D1216889039F
:1012F000E4D54FF22440E1E702030405060708099C
:101300000A0B0C0D0E0F101001020000001002401D
:1013100000127A0000093D002DE9F84305460078E7
:10132000354CC00754D0E0690026C00008D4E069FD
:1013300040F08050E061E069012600F080500090AC
:101340002E480168C90512D40168804641F48071B5
:101350000160FFF7E7FE074605E000BFFFF7E2FE8A
:10136000C01B642823D8D8F80000C005F6D5206A31
:1013700010F4407021D0A98801F4407181421CD042
:10138000206A1F49012220F440700A6000220A608E
:101390002062C00711D0FFF7C5FE074641F288382A
:1013A00008E000BFFFF7BEFEC11B414502D9032084
:1013B000BDE8F883206A8007F4D5206A696820F4C4
:1013C0004070084320621EB1E06920F08050E06167
:1013D0002878800705D56068A96820F44040084354
:1013E00060602878C00605D56068696920F48000CF
:1013F000084360600020DBE70010024000700040FE
:10140000400442422DE9F0470F46050061D0434EAB
:10141000306800F00700B84209D2306820F00700B9
:1014200038433060306800F00700B84251D1286876
:101430003B4C810712D5400703D5606840F4E0605B
:1014400060602878000703D5606840F460506060F1
:101450006068A96820F0F000084360602878C00741
:1014600028D06868012810D02168022810D0890788
:1014700000292EDA616821F0030101436160FFF762
:1014800051FE804641F288390DE021688903EFE77B
:101490008901EDE7FFF746FEA0EB0801494502D9B7
:1014A0000320BDE8F0876068696800F00C00B0EBCD
:1014B000810FEFD1306800F00700B8420BD93068D7
:1014C00020F0070038433060306800F00700B84271
:1014D00001D00120E5E72878400705D56068E96874
:1014E00020F4E060084360602878000706D5606853
:1014F000296920F4605040EAC100606000F038F8CB
:101500006168084AC1F30311515CC840064908608C
:1015100006480068FFF726FE0020C2E700200240D0
:10152000001002405827000810000020080000208A
:101530000448054900684968044AC1F30221515C26
:10154000C8407047100000200010024068270008C3
:101550000448054900684968044AC1F3C221515C46
:10156000C8407047100000200010024068270008A3
:1015700012A185B00FC98DE80F0014A0144A0068AD
:1015800004905168134801F00C03042B10D0082B71
:101590000ED1C1F38343C9031DF803000AD5516876
:1015A00004AAC1F34041515C0A4A5043B0FBF1F038
:1015B00005B0704708494843FAE7000002030405F4
:1015C000060708090A0B0C0D0E0F1010010200008F
:1015D0000010024000127A0000093D002DE9F84F8A
:1015E000040070D02078C04DC00749D06868C0F3AF
:1015F0008100012807D06868C0F38100022809D162
:101600006868C00306D52868800339D5606800285B
:10161000E7D035E06068B0F5803F0BD010B1B0F591
:10162000A02F11D0286820F480302860286820F48A
:10163000802002E0286840F480302860606890B123
:10164000FFF770FD06460AE0286840F48020286015
:10165000F0E700BFFFF766FD801B642873D8286899
:101660008003F7D50CE0FFF75DFD064605E000BFFF
:10167000FFF758FD801B6428F0D828688003F7D452
:1016800020789A4E80074FF001094FF0000839D5B5
:10169000686810F00C0F07D06868C0F3810002285A
:1016A00009D16868C00306D42868800714D520696A
:1016B000012808D110E02069B0B1C6F80090FFF70A
:1016C00031FD074605E00AE1FFF72CFDC01B0228AB
:1016D000C4D828688007F7D52868616920F0F80029
:1016E00040EAC10028600DE0C6F80080FFF71AFD4F
:1016F000074604E0FFF716FDC01B022823D8286820
:101700008007F7D4207800072CD57948A169D9B192
:10171000C0F80090FFF706FD074604E0FFF702FD62
:10172000C01B02280FD8686A8007F7D571484FF4AC
:10173000FA510068B0FBF1F0009000BF0098411E24
:101740000091FAD20EE080E0C0F80080FFF7EAFCDA
:10175000074604E0FFF7E6FCC01B022875D8686A5C
:101760008007F7D42078400760D5E8690027C000DB
:1017700008D4E86940F08050E861E869012700F08A
:10178000805000905C480168C90513D40168834605
:1017900041F480710160FFF7C5FC824606E000BF9E
:1017A000FFF7C0FCA0EB0A0064284ED8DBF800006D
:1017B000C005F5D5E06801280AD008B1052813D086
:1017C000286A20F001002862286A20F0040002E064
:1017D000286A40F001002862E06841F2883B98B135
:1017E000FFF7A0FC82460BE0286A40F00400286264
:1017F000EEE700BFFFF796FCA0EB0A0159455AD867
:10180000286A8007F6D50CE0FFF78CFC824605E0DD
:10181000FFF788FCA0EB0A0159454CD8286A8007DD
:10182000F6D41FB1E86920F08050E861E06988B320
:101830006968C1F38101022944D00228C6F860809A
:1018400004D0FFF76FFC044638E034E0FFF76AFC91
:10185000074604E0FFF766FCC01B02282BD8286867
:101860008001F7D4206AB0F5803F05D16868A1688F
:1018700020F4003008436860D4E90801084369682F
:1018800021F4741108436860C6F86090FFF74AFCC1
:10189000044606E025E000BFFFF744FC001B0228D9
:1018A00009D828688001F7D51BE000BFFFF73AFC94
:1018B000001B022802D90320BDE8F88F28688001A8
:1018C000F4D40EE00128F7D06868226A00F4803171
:1018D000914204D1616A00F47010884201D0012065
:1018E000EAE70020E8E70000001002400000424262
:1018F00080044242100000200070004010B5401EDD
:10190000B0F1807F01D3012010BD4FF0E024606171
:101910000F21601700F03CFA0020A0610720206131
:10192000002010BD70B5040004D094F839000025E3
:1019300010B106E0012070BD84F83850204600F058
:1019400023F8242084F839002068C16821F400516C
:10195000C160204600F07CF92068016921F49041C3
:1019600001612068416921F02A0141612068C16854
:1019700041F40051C160E563202084F8390084F807
:101980003A00002070BD000030B585B000240094FE
:1019900001940294039400681449884224D11448A5
:1019A000816941F480418161816901F48041049140
:1019B000816941F00401816180690E4D00F00400ED
:1019C00004904FF4007000900220019003200390D7
:1019D00069462846FFF7AAFA2815CDE900046946AA
:1019E00028460294FFF7A2FA05B030BD0038014046
:1019F00000100240000801402DE9F843044690F829
:101A000039001F4616460D46202850D1A5B19EB17B
:101A100094F8380001284AD0012084F838004FF0AB
:101A20000008C4F83C80212084F83900FFF77AFBD5
:101A3000A6848146E68426E00120BDE8F883E08C98
:101A4000401EE084A0684B46B0F5805F4FF0000276
:101A50004FF080012046009703D000F055F9E8B917
:101A60000DE000F051F9C8B928882168C0F30800DA
:101A70004860206908B16D1C05E0AD1C03E02168D9
:101A800015F8010B4860E08C0028D8D14B460022A5
:101A900040212046009700F037F908B10320CCE739
:101AA000202084F8390084F838800020C5E702201F
:101AB000C3E7FEE770B58AB00024079408941C21A0
:101AC00068460994FEF767FB1948184901258460A8
:101AD00001600573047505614FF460214460C161C4
:101AE000FFF75EF808B1FEF7DDFECDE908540326E6
:101AF00007A90F480796FEF7CFFF08B1FEF7D2FE01
:101B0000CDE900654FF4E04006908DF8154004954E
:101B100002948DF81440694605480394FEF7C4FE0C
:101B2000002801D0FEF7BEFE0AB070BD00240140BF
:101B300018000020094808B5816941F02001816141
:101B4000816901F020010091816941F00401816106
:101B5000806900F00400009008BD00000010024001
:101B60000C4810B50A4901604FF4E1314160002191
:101B700081600C22C160C0E904128161C161FFF77C
:101B8000D1FE002803D0BDE81040FEF78BBE10BD8B
:101B90000038014048000020FEE77047704770475A
:101BA000FFF7C6BA30B595B028216846FEF7F3FABC
:101BB00014210AA8FEF7EFFA18210FA8FEF7EBFA96
:101BC00001210804CDE900100024029402250491AB
:101BD000CDE907504FF4E01009906846FFF7FEFC8E
:101BE0000F20CDE90A056802CDE90C4002210AA8C0
:101BF0000E94FFF707FCA80311900F950FA8FFF7AD
:101C00008BFB15B030BD00000D48016841F00101AB
:101C1000016041680B4A1140416001680A4A114065
:101C20000160016821F480210160416821F4FE0116
:101C300041604FF41F0181600449C0030860704790
:101C4000001002400000FFF8FFFFF6FE08ED00E084
:101C50002DE9F041044600680169E26821F4405131
:101C6000114301612169A068084361690843216843
:101C7000CA6841F20C639A430243CA602068416912
:101C8000A26921F44071114341611E492068642515
:101C90003226884202D1FFF75BFC01E0FFF748FCE7
:101CA00000EBC00101EB001160686FF018078000C5
:101CB000B1FBF0F2B2FBF5F2B1FBF0F37A4303EBC8
:101CC0008202B1FBF0F306EB0212B2FBF5F2B3FBBA
:101CD000F5F302F0F00202EB0312B1FBF0F3B1FBFB
:101CE000F0F0B0FBF5F0784303EB800006EB00105A
:101CF000B0FBF5F0216800F00F0010448860BDE8EB
:101D0000F0810000003801402DE9F0419846174667
:101D10000E460446069D1DE0681C1BD02DB1FFF742
:101D200001FAA0EB0800A84214D92068C16821F488
:101D3000D071C1602068416921F00101416120201A
:101D400084F8390084F83A00002084F83800032031
:101D5000BDE8F0812068006836EA000004D0002069
:101D6000B842D9D00020F3E70120F9E7FEE70000F0
:101D70000FB4054B10B503A9044A029800F0EAF825
:101D800010BC5DF814FB000085260008140000203C
:101D90000907090E002804DB00F1E02080F8001498
:101DA000704700F00F0000F1E02080F8141D70472C
:101DB00002E008C8121F08C1002AFAD17047704714
:101DC000002001E001C1121F002AFBD17047000072
:101DD0002DE9FF5F82B00021DDE90430020DDDF85E
:101DE00040B0034318D044F61050A2F2FF324243F1
:101DF0001514119801281FD0A5EB0B00401C5FEAB9
:101E0000000A4FF000064E4FDFF83891B0465046BA
:101E100015D5CAF1000413E0119801244AA3012842
:101E200001D16FEA0B010298119AC0E90031C0E9B3
:101E3000024206B0BDE8F09FCBF10000DFE70446A8
:101E40000021404A491842EB0450CDE9001012E04D
:101E5000E00707D032463B4640464946FEF721FBA5
:101E60008046894632463B4610461946FEF719FB26
:101E700006460F466410002CEAD1DDE90401DDE9D5
:101E80000023BAF1000F06DAFEF70BFB42464B4681
:101E9000FEF707FB05E0FEF776FB42464B46FEF7F2
:101EA00072FB04460E460022284BFEF7F3FB03D8D4
:101EB0004FF0FF30014607E00022254B2046314617
:101EC000FEF748FAFEF7CEFB102409E0002C0ADBEF
:101ED0000A220023FEF7D6F9039B30321A55641EFE
:101EE00050EA0102F2D1641C039AC4F111031444B4
:101EF000119A012A03D0012208430DD10AE00843B8
:101F000004D000204FF0110B119072E7A3EB0B05EA
:101F10006D1E0DE05B4504DD4FF0000205F101058B
:101F200004E003DA4FF00002A5F10105002AECD02D
:101F300002981199C0E90231C0E9004579E7000033
:101F4000000014400000F03F300000000000F043AB
:101F50000000E03F2DE9FF4F95B09B4689460646BD
:101F600000250FE2252877D100242746F84A0121D1
:101F7000059400E0044316F8013F203B01FA03F00A
:101F80001042F7D130782A2811D06FF02F03307823
:101F9000A0F13002092A16D8059A44F0020402EB97
:101FA000820203EB42021044761C0590EFE759F8D9
:101FB000042B0592002A03DA504244F400540590A1
:101FC00044F00204761C30782E2816D116F8010F42
:101FD00044F004042A280DD06FF02F023078A0F1CD
:101FE0003003092B09D807EB870302EB4303C7181B
:101FF000761CF3E759F8047B761C30786C280FD0F8
:1020000006DC4C2817D068280DD06A2814D104E0CB
:10201000742810D07A280FD10DE044F400140AE09F
:1020200044F4801401E044F440147278824202D1F6
:1020300004F58014761C761C307866280BD013DCEF
:10204000582877D009DC002875D04528F6D04628D6
:10205000F4D047281AD19DE118E0632835D06428D0
:1020600079D0652812D195E1702873D008DC6728F3
:10207000F1D069286FD06E280DD06F2806D1B5E059
:1020800073282CD0752875D0782874D05A461799A3
:1020900090476D1C75E1C4F30250022809D0032853
:1020A0000DD0D9F8001004280DD00D6009F10409F5
:1020B00067E1D9F80010EA17C1E90052F6E7D9F84C
:1020C00000100D80F2E70D70F0E719F8041B8DF891
:1020D000001000208DF80100EA46012003E059F8C5
:1020E00004AB4FF0FF3061074FF0000102D40DE068
:1020F00008F101018846B9420FDA8045F8DB1AF889
:1021000008100029F4D108E008F101018846814255
:10211000FADB1AF808100029F6D105985B46A0EB07
:10212000080721463846179A00F094FA284400EB35
:10213000080507E04DE029E10DE01AF8010B5A46C9
:1021400017999047B8F10108F7D25B462146384607
:10215000179A13E142E00A220092C4F302524FF0B0
:10216000000A022A08D059F804CB032A4FEAEC717E
:102170000AD00DE029E02AE009F1070121F0070269
:10218000F2E802C1914609E00FFA8CFC4FEAEC71CB
:10219000042A03D14FFA8CFC4FEAEC71002907DACC
:1021A0000A460021DCF1000C61EB02012D2202E065
:1021B000220504D52B228DF80420012203E0E2073A
:1021C00001D02022F7E7904659E00A2102E01022D0
:1021D0000DE010214FF0000A00910BE010224FF0AB
:1021E000000A44F004040827009203E008224FF09C
:1021F000000A0092C4F30252022A05D059F804CB17
:102200000021032A08D009E009F1070121F00702A3
:10221000F2E802C1914605E01FFA8CFC042A01D1C4
:102220000CF0FF0C4FF00008220728D5702806D0CC
:10223000009B83F0100353EA0A0305D00EE040220E
:102240008DF80420012208E05CEA010206D0302269
:102250008DF804208DF8050002229046009B83F043
:10226000080353EA0A030AD15CEA010201D16207BA
:1022700005D530228DF804204FF001087F1E582824
:1022800004D034A003900EA802900DE036A0F9E728
:1022900053466046009AFDF7F5FF84460398825C3A
:1022A0000298401E029002705CEA0100F0D1029890
:1022B00006A9081A00F1200A600702D524F4803428
:1022C00000E00127574502DDA7EB0A0000E00020EF
:1022D00000EB0A01009005984144401A0590E00384
:1022E00006D45B462146179A059800F0B3F90544D9
:1022F000002706E001A85A46C05D179990476D1C5B
:102300007F1C4745F6DBE0030CD55B462146179A58
:10231000059800F09FF9054404E030205A461799CB
:1023200090476D1C0099481E00900029F5DC08E0DC
:10233000029802995A460078491C029117999047D1
:102340006D1CBAF10001AAF1010AF1DC65E100009F
:10235000092801003031323334353637383961627B
:10236000636465660000000030313233343536373F
:1023700038394142434445460000000000F058F916
:102380000544761C307800287FF4ECAD19B028465F
:10239000BDE8F08F620700D4062709F1070222F09A
:1023A000070CFCE80223E14603F000485FEA080C52
:1023B00002D00FF2702C0DE05FEA045C02D50FF240
:1023C000682C07E05FEAC47C02D00FF2602C01E0C9
:1023D000AFF2700C4FF0FF3823F00043CDF850C03F
:1023E00065280CD006DC452809D046281DD0472892
:1023F0003DD13DE0662818D067287ED138E0002125
:10240000112F01DB112000E0781CCDE9000106A9A5
:102410000EA8FFF7DDFCDDE90F010E9A0391002104
:10242000009207F1010A04914DE04FF0004000973F
:10243000CDE9011006A90EA8FFF7CAFCDDE90F02DD
:1024400003920E9B11990022DDF80CA000930492D8
:1024500011B9791C00EB010AB7EB0A0004D4C0F1F2
:10246000FF3007F1010A0490AAEB0700019044E055
:10247000012F00DA01270021112F01DD112000E0DA
:102480003846CDE9000106A90EA8FFF7A1FCDDE959
:102490000F010E9A0391002104910092BA46210780
:1024A0000CD40399514500DA8A46BAF1010F05DDD3
:1024B000009AAAF10101515C302908D0B84202DA31
:1024C00010F1040F06DA0121CDE9011015E0AAF19F
:1024D0000101E9E7002805DC049901440491AAEB15
:1024E000000102E0411C514500DD8A460499401A72
:1024F000401C01904FF000400290200704D4019846
:10250000504501DBCDF8048000208DF84F00029883
:102510000DF14F07B0F1004F25D02B200E900298FF
:102520004FF0020800280CDA404202902D200E9055
:1025300007E00A210298FDF78FFE3031029007F87C
:10254000011DB8F10001A8F10108F2DC0298002891
:10255000EFD1791E0E980870307800F0200040F01E
:10256000450007F8020D12A8C01B00F107081498D7
:10257000007800B1012000EB0A01019801EBE07145
:1025800005984144401A401E0590E00306D45B467E
:102590002146179A059800F05DF8054414980078D4
:1025A00018B15A46179990476D1CE00324D55B4635
:1025B0002146179A059800F04DF805441CE0049850
:1025C000002807DBDDE90301884203DD0098405C59
:1025D000179901E0179930205A469047049805F161
:1025E0000105401C04900198401E019004D12E204A
:1025F0005A46179990476D1CBAF10001AAF1010AD9
:10260000DDDC05E017F8010B5A46179990476D1C61
:10261000B8F10001A8F10108F4DC5B462146179AE5
:102620000598ABE62D0000002B0000002000000004
:102630002DE9F041044600251E461746880404D4BF
:1026400005E039462020B0476D1C641EF9D52846A8
:10265000BDE8F0812DE9F041044600251E46904674
:10266000C80301D5302700E02027880404D505E001
:1026700041463846B0476D1C641EF9D52846BDE872
:10268000F081000013B54FF6FF730122694602483E
:10269000FFF7B2F900981CBD48000020FEF750FD7E
:1026A000FFF780FAFFF746FAFFF704FAFFF758FA48
:1026B0004FF47A741648FEF7C7FB32211448FEF730
:1026C0002BFB1348FEF766FA80051CD51048FEF771
:1026D00063FA104D81B210A02980FFF749FB2888CA
:1026E000FDF7A2FD1249FDF761FD6FF00B01FDF74B
:1026F0008FFDFDF79EFD02460B460EA0FFF738FB4F
:1027000012A0FFF735FB2046FEF7FEFBD2E70000E4
:102710001800002000000020414443312052656130
:1027200064696E67203A202564200D0A00000000CD
:102730003333534050413320566F6C7461676520CA
:102740003A20252E3466200D0A0000005AD0A1D070
:10275000FDB2E2CAD40D0A00000000000000000033
:102760000102030406070809000000000102030437
:10277000902700080000002018000000B01D00088D
:10278000A82700081800002070040000C01D0008E1
:102790000000000001000000100000000000000028
:0827A0000024F4000000000019
:0400000508000131BD
:00000001FF
